{
  "address": "0x679874fBE6D4E7Cc54A59e315FF1eB266686a937",
  "abi": [
    {
      "inputs": [],
      "stateMutability": "nonpayable",
      "type": "constructor"
    },
    {
      "anonymous": false,
      "inputs": [
        {
          "indexed": true,
          "internalType": "address",
          "name": "owner",
          "type": "address"
        },
        {
          "indexed": true,
          "internalType": "address",
          "name": "spender",
          "type": "address"
        },
        {
          "indexed": false,
          "internalType": "uint256",
          "name": "value",
          "type": "uint256"
        }
      ],
      "name": "Approval",
      "type": "event"
    },
    {
      "anonymous": false,
      "inputs": [
        {
          "indexed": true,
          "internalType": "address",
          "name": "previousOwner",
          "type": "address"
        },
        {
          "indexed": true,
          "internalType": "address",
          "name": "newOwner",
          "type": "address"
        }
      ],
      "name": "OwnershipTransferred",
      "type": "event"
    },
    {
      "anonymous": false,
      "inputs": [
        {
          "indexed": true,
          "internalType": "address",
          "name": "from",
          "type": "address"
        },
        {
          "indexed": true,
          "internalType": "address",
          "name": "to",
          "type": "address"
        },
        {
          "indexed": false,
          "internalType": "uint256",
          "name": "value",
          "type": "uint256"
        }
      ],
      "name": "Transfer",
      "type": "event"
    },
    {
      "inputs": [],
      "name": "DOMAIN_SEPARATOR",
      "outputs": [
        {
          "internalType": "bytes32",
          "name": "",
          "type": "bytes32"
        }
      ],
      "stateMutability": "view",
      "type": "function"
    },
    {
      "inputs": [],
      "name": "PERMIT_TYPEHASH",
      "outputs": [
        {
          "internalType": "bytes32",
          "name": "",
          "type": "bytes32"
        }
      ],
      "stateMutability": "view",
      "type": "function"
    },
    {
      "inputs": [
        {
          "internalType": "address",
          "name": "",
          "type": "address"
        },
        {
          "internalType": "address",
          "name": "",
          "type": "address"
        }
      ],
      "name": "allowance",
      "outputs": [
        {
          "internalType": "uint256",
          "name": "",
          "type": "uint256"
        }
      ],
      "stateMutability": "view",
      "type": "function"
    },
    {
      "inputs": [
        {
          "internalType": "address",
          "name": "spender",
          "type": "address"
        },
        {
          "internalType": "uint256",
          "name": "amount",
          "type": "uint256"
        }
      ],
      "name": "approve",
      "outputs": [
        {
          "internalType": "bool",
          "name": "",
          "type": "bool"
        }
      ],
      "stateMutability": "nonpayable",
      "type": "function"
    },
    {
      "inputs": [
        {
          "internalType": "address",
          "name": "spender",
          "type": "address"
        },
        {
          "internalType": "uint256",
          "name": "amount",
          "type": "uint256"
        },
        {
          "internalType": "bytes",
          "name": "extraData",
          "type": "bytes"
        }
      ],
      "name": "approveAndCall",
      "outputs": [
        {
          "internalType": "bool",
          "name": "",
          "type": "bool"
        }
      ],
      "stateMutability": "nonpayable",
      "type": "function"
    },
    {
      "inputs": [
        {
          "internalType": "address",
          "name": "",
          "type": "address"
        }
      ],
      "name": "balanceOf",
      "outputs": [
        {
          "internalType": "uint256",
          "name": "",
          "type": "uint256"
        }
      ],
      "stateMutability": "view",
      "type": "function"
    },
    {
      "inputs": [
        {
          "internalType": "uint256",
          "name": "amount",
          "type": "uint256"
        }
      ],
      "name": "burn",
      "outputs": [],
      "stateMutability": "nonpayable",
      "type": "function"
    },
    {
      "inputs": [
        {
          "internalType": "address",
          "name": "account",
          "type": "address"
        },
        {
          "internalType": "uint256",
          "name": "amount",
          "type": "uint256"
        }
      ],
      "name": "burnFrom",
      "outputs": [],
      "stateMutability": "nonpayable",
      "type": "function"
    },
    {
      "inputs": [],
      "name": "cachedChainId",
      "outputs": [
        {
          "internalType": "uint256",
          "name": "",
          "type": "uint256"
        }
      ],
      "stateMutability": "view",
      "type": "function"
    },
    {
      "inputs": [],
      "name": "cachedDomainSeparator",
      "outputs": [
        {
          "internalType": "bytes32",
          "name": "",
          "type": "bytes32"
        }
      ],
      "stateMutability": "view",
      "type": "function"
    },
    {
      "inputs": [],
      "name": "decimals",
      "outputs": [
        {
          "internalType": "uint8",
          "name": "",
          "type": "uint8"
        }
      ],
      "stateMutability": "view",
      "type": "function"
    },
    {
      "inputs": [
        {
          "internalType": "address",
          "name": "recipient",
          "type": "address"
        },
        {
          "internalType": "uint256",
          "name": "amount",
          "type": "uint256"
        }
      ],
      "name": "mint",
      "outputs": [],
      "stateMutability": "nonpayable",
      "type": "function"
    },
    {
      "inputs": [],
      "name": "name",
      "outputs": [
        {
          "internalType": "string",
          "name": "",
          "type": "string"
        }
      ],
      "stateMutability": "view",
      "type": "function"
    },
    {
      "inputs": [
        {
          "internalType": "address",
          "name": "",
          "type": "address"
        }
      ],
      "name": "nonce",
      "outputs": [
        {
          "internalType": "uint256",
          "name": "",
          "type": "uint256"
        }
      ],
      "stateMutability": "view",
      "type": "function"
    },
    {
      "inputs": [],
      "name": "owner",
      "outputs": [
        {
          "internalType": "address",
          "name": "",
          "type": "address"
        }
      ],
      "stateMutability": "view",
      "type": "function"
    },
    {
      "inputs": [
        {
          "internalType": "address",
          "name": "owner",
          "type": "address"
        },
        {
          "internalType": "address",
          "name": "spender",
          "type": "address"
        },
        {
          "internalType": "uint256",
          "name": "amount",
          "type": "uint256"
        },
        {
          "internalType": "uint256",
          "name": "deadline",
          "type": "uint256"
        },
        {
          "internalType": "uint8",
          "name": "v",
          "type": "uint8"
        },
        {
          "internalType": "bytes32",
          "name": "r",
          "type": "bytes32"
        },
        {
          "internalType": "bytes32",
          "name": "s",
          "type": "bytes32"
        }
      ],
      "name": "permit",
      "outputs": [],
      "stateMutability": "nonpayable",
      "type": "function"
    },
    {
      "inputs": [
        {
          "internalType": "contract IERC20",
          "name": "token",
          "type": "address"
        },
        {
          "internalType": "address",
          "name": "recipient",
          "type": "address"
        },
        {
          "internalType": "uint256",
          "name": "amount",
          "type": "uint256"
        }
      ],
      "name": "recoverERC20",
      "outputs": [],
      "stateMutability": "nonpayable",
      "type": "function"
    },
    {
      "inputs": [
        {
          "internalType": "contract IERC721",
          "name": "token",
          "type": "address"
        },
        {
          "internalType": "address",
          "name": "recipient",
          "type": "address"
        },
        {
          "internalType": "uint256",
          "name": "tokenId",
          "type": "uint256"
        },
        {
          "internalType": "bytes",
          "name": "data",
          "type": "bytes"
        }
      ],
      "name": "recoverERC721",
      "outputs": [],
      "stateMutability": "nonpayable",
      "type": "function"
    },
    {
      "inputs": [],
      "name": "renounceOwnership",
      "outputs": [],
      "stateMutability": "nonpayable",
      "type": "function"
    },
    {
      "inputs": [],
      "name": "symbol",
      "outputs": [
        {
          "internalType": "string",
          "name": "",
          "type": "string"
        }
      ],
      "stateMutability": "view",
      "type": "function"
    },
    {
      "inputs": [],
      "name": "totalSupply",
      "outputs": [
        {
          "internalType": "uint256",
          "name": "",
          "type": "uint256"
        }
      ],
      "stateMutability": "view",
      "type": "function"
    },
    {
      "inputs": [
        {
          "internalType": "address",
          "name": "recipient",
          "type": "address"
        },
        {
          "internalType": "uint256",
          "name": "amount",
          "type": "uint256"
        }
      ],
      "name": "transfer",
      "outputs": [
        {
          "internalType": "bool",
          "name": "",
          "type": "bool"
        }
      ],
      "stateMutability": "nonpayable",
      "type": "function"
    },
    {
      "inputs": [
        {
          "internalType": "address",
          "name": "spender",
          "type": "address"
        },
        {
          "internalType": "address",
          "name": "recipient",
          "type": "address"
        },
        {
          "internalType": "uint256",
          "name": "amount",
          "type": "uint256"
        }
      ],
      "name": "transferFrom",
      "outputs": [
        {
          "internalType": "bool",
          "name": "",
          "type": "bool"
        }
      ],
      "stateMutability": "nonpayable",
      "type": "function"
    },
    {
      "inputs": [
        {
          "internalType": "address",
          "name": "newOwner",
          "type": "address"
        }
      ],
      "name": "transferOwnership",
      "outputs": [],
      "stateMutability": "nonpayable",
      "type": "function"
    }
  ],
  "transactionHash": "0xc84cbf9e28bd17faf747312883a91aea795c6e07dc66e5fe8b7339a3963e368d",
  "args": [],
  "numDeployments": 1,
  "solcInputHash": "f862bd134ddc06352fa5be0644481600",
  "bytecode": "0x60c06040523480156200001157600080fd5b50604051806040016040528060078152602001663a212a21903b1960c91b815250604051806040016040528060048152602001637442544360e01b8152506200006962000063620000a160201b60201c565b620000a5565b60056200007783826200024b565b5060066200008682826200024b565b504660805262000095620000f5565b60a05250620003959050565b3390565b600080546001600160a01b038381166001600160a01b0319831681178455604051919092169283917f8be0079c531659141344cd1fd0a4f28419497f9722a3daafe3b4186f6b6457e09190a35050565b60007f8b73c3c69bb8fe3d512ecc4cf759cc79239f7b179b0ffacaa9a75d522b39400f600560405162000129919062000317565b60408051918290038220828201825260018352603160f81b6020938401528151928301939093528101919091527fc89efdaa54c0f20c7adf612882df0950f5a951637e0307cdcb4c672f298b8bc660608201524660808201523060a082015260c00160405160208183030381529060405280519060200120905090565b634e487b7160e01b600052604160045260246000fd5b600181811c90821680620001d157607f821691505b602082108103620001f257634e487b7160e01b600052602260045260246000fd5b50919050565b601f8211156200024657600081815260208120601f850160051c81016020861015620002215750805b601f850160051c820191505b8181101562000242578281556001016200022d565b5050505b505050565b81516001600160401b03811115620002675762000267620001a6565b6200027f81620002788454620001bc565b84620001f8565b602080601f831160018114620002b757600084156200029e5750858301515b600019600386901b1c1916600185901b17855562000242565b600085815260208120601f198616915b82811015620002e857888601518255948401946001909101908401620002c7565b5085821015620003075787850151600019600388901b60f8161c191681555b5050505050600190811b01905550565b60008083546200032781620001bc565b60018281168015620003425760018114620003585762000389565b60ff198416875282151583028701945062000389565b8760005260208060002060005b85811015620003805781548a82015290840190820162000365565b50505082870194505b50929695505050505050565b60805160a051611b92620003c96000396000818161034901526105fa0152600081816102d901526105d20152611b926000f3fe608060405234801561001057600080fd5b50600436106101985760003560e01c8063715018a6116100e3578063b4f94b2e1161008c578063dd62ed3e11610066578063dd62ed3e14610391578063f2fde38b146103bc578063fc4e51f6146103cf57600080fd5b8063b4f94b2e14610344578063cae9ca511461036b578063d505accf1461037e57600080fd5b80638da5cb5b116100bd5780638da5cb5b1461030e57806395d89b4114610329578063a9059cbb1461033157600080fd5b8063715018a6146102cc578063771da5c5146102d457806379cc6790146102fb57600080fd5b8063313ce5671161014557806342966c681161011f57806342966c681461027957806370a082311461028c57806370ae92d2146102ac57600080fd5b8063313ce567146102445780633644e5151461025e57806340c10f191461026657600080fd5b806318160ddd1161017657806318160ddd146101f357806323b872dd1461020a57806330adf81f1461021d57600080fd5b806306fdde031461019d578063095ea7b3146101bb5780631171bda9146101de575b600080fd5b6101a56103e2565b6040516101b29190611663565b60405180910390f35b6101ce6101c936600461168b565b610470565b60405190151581526020016101b2565b6101f16101ec3660046116b7565b610487565b005b6101fc60045481565b6040519081526020016101b2565b6101ce6102183660046116b7565b6104ff565b6101fc7f6e71edae12b1b97f4d1f60370fef10105fa2faae0126114a169c64845d6126c981565b61024c601281565b60405160ff90911681526020016101b2565b6101fc6105ce565b6101f161027436600461168b565b610629565b6101f16102873660046116f8565b610762565b6101fc61029a366004611711565b60016020526000908152604090205481565b6101fc6102ba366004611711565b60036020526000908152604090205481565b6101f161076f565b6101fc7f000000000000000000000000000000000000000000000000000000000000000081565b6101f161030936600461168b565b6107d5565b6000546040516001600160a01b0390911681526020016101b2565b6101a561086b565b6101ce61033f36600461168b565b610878565b6101fc7f000000000000000000000000000000000000000000000000000000000000000081565b6101ce610379366004611744565b610885565b6101f161038c366004611811565b610926565b6101fc61039f366004611888565b600260209081526000928352604080842090915290825290205481565b6101f16103ca366004611711565b610c36565b6101f16103dd3660046118c1565b610d15565b600580546103ef90611960565b80601f016020809104026020016040519081016040528092919081815260200182805461041b90611960565b80156104685780601f1061043d57610100808354040283529160200191610468565b820191906000526020600020905b81548152906001019060200180831161044b57829003601f168201915b505050505081565b600061047d338484610dea565b5060015b92915050565b6000546001600160a01b031633146104e65760405162461bcd60e51b815260206004820181905260248201527f4f776e61626c653a2063616c6c6572206973206e6f7420746865206f776e657260448201526064015b60405180910390fd5b6104fa6001600160a01b0384168383610ef8565b505050565b6001600160a01b038316600090815260026020908152604080832033845290915281205460001981146105b657828110156105a25760405162461bcd60e51b815260206004820152602160248201527f5472616e7366657220616d6f756e74206578636565647320616c6c6f77616e6360448201527f650000000000000000000000000000000000000000000000000000000000000060648201526084016104dd565b6105b685336105b186856119b0565b610dea565b6105c1858585610f78565b60019150505b9392505050565b60007f0000000000000000000000000000000000000000000000000000000000000000460361061c57507f000000000000000000000000000000000000000000000000000000000000000090565b61062461117f565b905090565b6000546001600160a01b031633146106835760405162461bcd60e51b815260206004820181905260248201527f4f776e61626c653a2063616c6c6572206973206e6f7420746865206f776e657260448201526064016104dd565b6001600160a01b0382166106d95760405162461bcd60e51b815260206004820152601860248201527f4d696e7420746f20746865207a65726f2061646472657373000000000000000060448201526064016104dd565b80600460008282546106eb91906119c3565b90915550506001600160a01b038216600090815260016020526040812080548392906107189084906119c3565b90915550506040518181526001600160a01b038316906000907fddf252ad1be2c89b69c2b068fc378daa952ba7f163c4a11628f55a4df523b3ef9060200160405180910390a35050565b61076c338261124a565b50565b6000546001600160a01b031633146107c95760405162461bcd60e51b815260206004820181905260248201527f4f776e61626c653a2063616c6c6572206973206e6f7420746865206f776e657260448201526064016104dd565b6107d3600061132e565b565b6001600160a01b0382166000908152600260209081526040808320338452909152902054600019811461086157818110156108525760405162461bcd60e51b815260206004820152601d60248201527f4275726e20616d6f756e74206578636565647320616c6c6f77616e636500000060448201526064016104dd565b61086183336105b185856119b0565b6104fa838361124a565b600680546103ef90611960565b600061047d338484610f78565b60006108918484610470565b1561091c576040517f8f4ffcb10000000000000000000000000000000000000000000000000000000081526001600160a01b03851690638f4ffcb1906108e19033908790309088906004016119d6565b600060405180830381600087803b1580156108fb57600080fd5b505af115801561090f573d6000803e3d6000fd5b50505050600190506105c7565b5060009392505050565b428410156109765760405162461bcd60e51b815260206004820152601260248201527f5065726d697373696f6e2065787069726564000000000000000000000000000060448201526064016104dd565b7f7fffffffffffffffffffffffffffffff5d576e7357a4501ddfe92f46681b20a08111156109e65760405162461bcd60e51b815260206004820152601b60248201527f496e76616c6964207369676e6174757265202773272076616c7565000000000060448201526064016104dd565b8260ff16601b14806109fb57508260ff16601c145b610a475760405162461bcd60e51b815260206004820152601b60248201527f496e76616c6964207369676e6174757265202776272076616c7565000000000060448201526064016104dd565b6000610a516105ce565b6001600160a01b038916600090815260036020526040812080547f6e71edae12b1b97f4d1f60370fef10105fa2faae0126114a169c64845d6126c9928c928c928c92909190610a9f83611a12565b909155506040805160208101969096526001600160a01b0394851690860152929091166060840152608083015260a082015260c0810187905260e00160405160208183030381529060405280519060200120604051602001610b339291907f190100000000000000000000000000000000000000000000000000000000000081526002810192909252602282015260420190565b60408051601f198184030181528282528051602091820120600080855291840180845281905260ff88169284019290925260608301869052608083018590529092509060019060a0016020604051602081039080840390855afa158015610b9e573d6000803e3d6000fd5b5050604051601f1901519150506001600160a01b03811615801590610bd45750886001600160a01b0316816001600160a01b0316145b610c205760405162461bcd60e51b815260206004820152601160248201527f496e76616c6964207369676e617475726500000000000000000000000000000060448201526064016104dd565b610c2b898989610dea565b505050505050505050565b6000546001600160a01b03163314610c905760405162461bcd60e51b815260206004820181905260248201527f4f776e61626c653a2063616c6c6572206973206e6f7420746865206f776e657260448201526064016104dd565b6001600160a01b038116610d0c5760405162461bcd60e51b815260206004820152602660248201527f4f776e61626c653a206e6577206f776e657220697320746865207a65726f206160448201527f646472657373000000000000000000000000000000000000000000000000000060648201526084016104dd565b61076c8161132e565b6000546001600160a01b03163314610d6f5760405162461bcd60e51b815260206004820181905260248201527f4f776e61626c653a2063616c6c6572206973206e6f7420746865206f776e657260448201526064016104dd565b6040517fb88d4fde0000000000000000000000000000000000000000000000000000000081526001600160a01b0386169063b88d4fde90610dbc9030908890889088908890600401611a2b565b600060405180830381600087803b158015610dd657600080fd5b505af1158015610c2b573d6000803e3d6000fd5b6001600160a01b038316610e405760405162461bcd60e51b815260206004820152601d60248201527f417070726f76652066726f6d20746865207a65726f206164647265737300000060448201526064016104dd565b6001600160a01b038216610e965760405162461bcd60e51b815260206004820152601b60248201527f417070726f766520746f20746865207a65726f2061646472657373000000000060448201526064016104dd565b6001600160a01b0383811660008181526002602090815260408083209487168084529482529182902085905590518481527f8c5be1e5ebec7d5bd14f71427d1e84f3dd0314c0f7b2291e5b200ac8c7c3b92591015b60405180910390a3505050565b604080516001600160a01b038416602482015260448082018490528251808303909101815260649091019091526020810180517bffffffffffffffffffffffffffffffffffffffffffffffffffffffff167fa9059cbb000000000000000000000000000000000000000000000000000000001790526104fa908490611396565b6001600160a01b038316610fce5760405162461bcd60e51b815260206004820152601e60248201527f5472616e736665722066726f6d20746865207a65726f2061646472657373000060448201526064016104dd565b6001600160a01b0382166110245760405162461bcd60e51b815260206004820152601c60248201527f5472616e7366657220746f20746865207a65726f20616464726573730000000060448201526064016104dd565b306001600160a01b0383160361107c5760405162461bcd60e51b815260206004820152601d60248201527f5472616e7366657220746f2074686520746f6b656e206164647265737300000060448201526064016104dd565b6001600160a01b038316600090815260016020526040902054818110156110e55760405162461bcd60e51b815260206004820152601f60248201527f5472616e7366657220616d6f756e7420657863656564732062616c616e63650060448201526064016104dd565b6110ef82826119b0565b6001600160a01b0380861660009081526001602052604080822093909355908516815290812080548492906111259084906119c3565b92505081905550826001600160a01b0316846001600160a01b03167fddf252ad1be2c89b69c2b068fc378daa952ba7f163c4a11628f55a4df523b3ef8460405161117191815260200190565b60405180910390a350505050565b60007f8b73c3c69bb8fe3d512ecc4cf759cc79239f7b179b0ffacaa9a75d522b39400f60056040516111b19190611a7f565b604080519182900382208282018252600183527f31000000000000000000000000000000000000000000000000000000000000006020938401528151928301939093528101919091527fc89efdaa54c0f20c7adf612882df0950f5a951637e0307cdcb4c672f298b8bc660608201524660808201523060a082015260c00160405160208183030381529060405280519060200120905090565b6001600160a01b038216600090815260016020526040902054818110156112b35760405162461bcd60e51b815260206004820152601b60248201527f4275726e20616d6f756e7420657863656564732062616c616e6365000000000060448201526064016104dd565b6112bd82826119b0565b6001600160a01b038416600090815260016020526040812091909155600480548492906112eb9084906119b0565b90915550506040518281526000906001600160a01b038516907fddf252ad1be2c89b69c2b068fc378daa952ba7f163c4a11628f55a4df523b3ef90602001610eeb565b600080546001600160a01b038381167fffffffffffffffffffffffff0000000000000000000000000000000000000000831681178455604051919092169283917f8be0079c531659141344cd1fd0a4f28419497f9722a3daafe3b4186f6b6457e09190a35050565b60006113eb826040518060400160405280602081526020017f5361666545524332303a206c6f772d6c6576656c2063616c6c206661696c6564815250856001600160a01b031661147b9092919063ffffffff16565b8051909150156104fa57808060200190518101906114099190611b1e565b6104fa5760405162461bcd60e51b815260206004820152602a60248201527f5361666545524332303a204552433230206f7065726174696f6e20646964206e60448201527f6f7420737563636565640000000000000000000000000000000000000000000060648201526084016104dd565b606061148a8484600085611492565b949350505050565b60608247101561150a5760405162461bcd60e51b815260206004820152602660248201527f416464726573733a20696e73756666696369656e742062616c616e636520666f60448201527f722063616c6c000000000000000000000000000000000000000000000000000060648201526084016104dd565b6001600160a01b0385163b6115615760405162461bcd60e51b815260206004820152601d60248201527f416464726573733a2063616c6c20746f206e6f6e2d636f6e747261637400000060448201526064016104dd565b600080866001600160a01b0316858760405161157d9190611b40565b60006040518083038185875af1925050503d80600081146115ba576040519150601f19603f3d011682016040523d82523d6000602084013e6115bf565b606091505b50915091506115cf8282866115da565b979650505050505050565b606083156115e95750816105c7565b8251156115f95782518084602001fd5b8160405162461bcd60e51b81526004016104dd9190611663565b60005b8381101561162e578181015183820152602001611616565b50506000910152565b6000815180845261164f816020860160208601611613565b601f01601f19169290920160200192915050565b6020815260006105c76020830184611637565b6001600160a01b038116811461076c57600080fd5b6000806040838503121561169e57600080fd5b82356116a981611676565b946020939093013593505050565b6000806000606084860312156116cc57600080fd5b83356116d781611676565b925060208401356116e781611676565b929592945050506040919091013590565b60006020828403121561170a57600080fd5b5035919050565b60006020828403121561172357600080fd5b81356105c781611676565b634e487b7160e01b600052604160045260246000fd5b60008060006060848603121561175957600080fd5b833561176481611676565b925060208401359150604084013567ffffffffffffffff8082111561178857600080fd5b818601915086601f83011261179c57600080fd5b8135818111156117ae576117ae61172e565b604051601f8201601f19908116603f011681019083821181831017156117d6576117d661172e565b816040528281528960208487010111156117ef57600080fd5b8260208601602083013760006020848301015280955050505050509250925092565b600080600080600080600060e0888a03121561182c57600080fd5b873561183781611676565b9650602088013561184781611676565b95506040880135945060608801359350608088013560ff8116811461186b57600080fd5b9699959850939692959460a0840135945060c09093013592915050565b6000806040838503121561189b57600080fd5b82356118a681611676565b915060208301356118b681611676565b809150509250929050565b6000806000806000608086880312156118d957600080fd5b85356118e481611676565b945060208601356118f481611676565b935060408601359250606086013567ffffffffffffffff8082111561191857600080fd5b818801915088601f83011261192c57600080fd5b81358181111561193b57600080fd5b89602082850101111561194d57600080fd5b9699959850939650602001949392505050565b600181811c9082168061197457607f821691505b60208210810361199457634e487b7160e01b600052602260045260246000fd5b50919050565b634e487b7160e01b600052601160045260246000fd5b818103818111156104815761048161199a565b808201808211156104815761048161199a565b60006001600160a01b03808716835285602084015280851660408401525060806060830152611a086080830184611637565b9695505050505050565b600060018201611a2457611a2461199a565b5060010190565b60006001600160a01b03808816835280871660208401525084604083015260806060830152826080830152828460a0840137600060a0848401015260a0601f19601f85011683010190509695505050505050565b600080835481600182811c915080831680611a9b57607f831692505b60208084108203611aba57634e487b7160e01b86526022600452602486fd5b818015611ace5760018114611ae357611b10565b60ff1986168952841515850289019650611b10565b60008a81526020902060005b86811015611b085781548b820152908501908301611aef565b505084890196505b509498975050505050505050565b600060208284031215611b3057600080fd5b815180151581146105c757600080fd5b60008251611b52818460208701611613565b919091019291505056fea264697066735822122014ba9a6dc40cd5a66877a573c7b8d56d9c3914d7f5b45a829d543c5233bd296664736f6c63430008110033",
  "devdoc": {
    "kind": "dev",
    "methods": {
      "approve(address,uint256)": {
        "details": "If the `amount` is set to `type(uint256).max` then      `transferFrom` and `burnFrom` will not reduce an allowance.      Beware that changing an allowance with this method brings the risk      that someone may use both the old and the new allowance by      unfortunate transaction ordering. One possible solution to mitigate      this race condition is to first reduce the spender's allowance to 0      and set the desired value afterwards:      https://github.com/ethereum/EIPs/issues/20#issuecomment-263524729",
        "returns": {
          "_0": "True if the operation succeeded."
        }
      },
      "approveAndCall(address,uint256,bytes)": {
        "details": "If the `amount` is set to `type(uint256).max` then      `transferFrom` and `burnFrom` will not reduce an allowance.",
        "returns": {
          "_0": "True if both approval and `receiveApproval` calls succeeded."
        }
      },
      "burn(uint256)": {
        "details": "Requirements:       - the caller must have a balance of at least `amount`."
      },
      "burnFrom(address,uint256)": {
        "details": "Requirements:      - `account` must have a balance of at least `amount`,      - the caller must have allowance for `account`'s tokens of at least        `amount`."
      },
      "mint(address,uint256)": {
        "details": "Requirements:      - `recipient` cannot be the zero address."
      },
      "owner()": {
        "details": "Returns the address of the current owner."
      },
      "permit(address,address,uint256,uint256,uint8,bytes32,bytes32)": {
        "details": "The deadline argument can be set to `type(uint256).max to create         permits that effectively never expire.  If the `amount` is set         to `type(uint256).max` then `transferFrom` and `burnFrom` will         not reduce an allowance."
      },
      "renounceOwnership()": {
        "details": "Leaves the contract without owner. It will not be possible to call `onlyOwner` functions anymore. Can only be called by the current owner. NOTE: Renouncing ownership will leave the contract without an owner, thereby removing any functionality that is only available to the owner."
      },
      "transfer(address,uint256)": {
        "details": "Requirements:       - `recipient` cannot be the zero address,       - the caller must have a balance of at least `amount`.",
        "returns": {
          "_0": "True if the operation succeeded, reverts otherwise."
        }
      },
      "transferFrom(address,address,uint256)": {
        "details": "Requirements:      - `spender` and `recipient` cannot be the zero address,      - `spender` must have a balance of at least `amount`,      - the caller must have allowance for `spender`'s tokens of at least        `amount`.",
        "returns": {
          "_0": "True if the operation succeeded, reverts otherwise."
        }
      },
      "transferOwnership(address)": {
        "details": "Transfers ownership of the contract to a new account (`newOwner`). Can only be called by the current owner."
      }
    },
    "version": 1
  },
  "userdoc": {
    "kind": "user",
    "methods": {
      "DOMAIN_SEPARATOR()": {
        "notice": "Returns hash of EIP712 Domain struct with the token name as         a signing domain and token contract as a verifying contract.         Used to construct EIP2612 signature provided to `permit`         function."
      },
      "PERMIT_TYPEHASH()": {
        "notice": "Returns EIP2612 Permit message hash. Used to construct EIP2612         signature provided to `permit` function."
      },
      "allowance(address,address)": {
        "notice": "The remaining number of tokens that spender will be         allowed to spend on behalf of owner through `transferFrom` and         `burnFrom`. This is zero by default."
      },
      "approve(address,uint256)": {
        "notice": "Sets `amount` as the allowance of `spender` over the caller's         tokens."
      },
      "approveAndCall(address,uint256,bytes)": {
        "notice": "Calls `receiveApproval` function on spender previously approving         the spender to withdraw from the caller multiple times, up to         the `amount` amount. If this function is called again, it         overwrites the current allowance with `amount`. Reverts if the         approval reverted or if `receiveApproval` call on the spender         reverted."
      },
      "balanceOf(address)": {
        "notice": "The amount of tokens owned by the given account."
      },
      "burn(uint256)": {
        "notice": "Destroys `amount` tokens from the caller."
      },
      "burnFrom(address,uint256)": {
        "notice": "Destroys `amount` of tokens from `account` using the allowance         mechanism. `amount` is then deducted from the caller's allowance         unless the allowance was made for `type(uint256).max`."
      },
      "decimals()": {
        "notice": "The decimals places of the token."
      },
      "mint(address,uint256)": {
        "notice": "Creates `amount` tokens and assigns them to `account`,         increasing the total supply."
      },
      "name()": {
        "notice": "The name of the token."
      },
      "nonce(address)": {
        "notice": "Returns the current nonce for EIP2612 permission for the         provided token owner for a replay protection. Used to construct         EIP2612 signature provided to `permit` function."
      },
      "permit(address,address,uint256,uint256,uint8,bytes32,bytes32)": {
        "notice": "EIP2612 approval made with secp256k1 signature.         Users can authorize a transfer of their tokens with a signature         conforming EIP712 standard, rather than an on-chain transaction         from their address. Anyone can submit this signature on the         user's behalf by calling the permit function, paying gas fees,         and possibly performing other actions in the same transaction."
      },
      "symbol()": {
        "notice": "The symbol of the token."
      },
      "totalSupply()": {
        "notice": "The amount of tokens in existence."
      },
      "transfer(address,uint256)": {
        "notice": "Moves `amount` tokens from the caller's account to `recipient`."
      },
      "transferFrom(address,address,uint256)": {
        "notice": "Moves `amount` tokens from `spender` to `recipient` using the         allowance mechanism. `amount` is then deducted from the caller's         allowance unless the allowance was made for `type(uint256).max`."
      }
    },
    "version": 1
  },
  "storageLayout": {
    "storage": [
      {
        "astId": 13249,
        "contract": "contracts/token/TBTC.sol:TBTC",
        "label": "_owner",
        "offset": 0,
        "slot": "0",
        "type": "t_address"
      },
      {
        "astId": 16610,
        "contract": "contracts/token/TBTC.sol:TBTC",
        "label": "balanceOf",
        "offset": 0,
        "slot": "1",
        "type": "t_mapping(t_address,t_uint256)"
      },
      {
        "astId": 16618,
        "contract": "contracts/token/TBTC.sol:TBTC",
        "label": "allowance",
        "offset": 0,
        "slot": "2",
        "type": "t_mapping(t_address,t_mapping(t_address,t_uint256))"
      },
      {
        "astId": 16624,
        "contract": "contracts/token/TBTC.sol:TBTC",
        "label": "nonce",
        "offset": 0,
        "slot": "3",
        "type": "t_mapping(t_address,t_uint256)"
      },
      {
        "astId": 16639,
        "contract": "contracts/token/TBTC.sol:TBTC",
        "label": "totalSupply",
        "offset": 0,
        "slot": "4",
        "type": "t_uint256"
      },
      {
        "astId": 16643,
        "contract": "contracts/token/TBTC.sol:TBTC",
        "label": "name",
        "offset": 0,
        "slot": "5",
        "type": "t_string_storage"
      },
      {
        "astId": 16647,
        "contract": "contracts/token/TBTC.sol:TBTC",
        "label": "symbol",
        "offset": 0,
        "slot": "6",
        "type": "t_string_storage"
      }
    ],
    "types": {
      "t_address": {
        "encoding": "inplace",
        "label": "address",
        "numberOfBytes": "20"
      },
      "t_mapping(t_address,t_mapping(t_address,t_uint256))": {
        "encoding": "mapping",
        "key": "t_address",
        "label": "mapping(address => mapping(address => uint256))",
        "numberOfBytes": "32",
        "value": "t_mapping(t_address,t_uint256)"
      },
      "t_mapping(t_address,t_uint256)": {
        "encoding": "mapping",
        "key": "t_address",
        "label": "mapping(address => uint256)",
        "numberOfBytes": "32",
        "value": "t_uint256"
      },
      "t_string_storage": {
        "encoding": "bytes",
        "label": "string",
        "numberOfBytes": "32"
      },
      "t_uint256": {
        "encoding": "inplace",
        "label": "uint256",
        "numberOfBytes": "32"
      }
    }
  }
}