{
  "address": "0xA94DD662E2A247493fACCeab9f2459AAF90778Ee",
  "abi": [
    {
      "inputs": [
        {
          "internalType": "contract Bridge",
          "name": "_bridge",
          "type": "address"
        },
        {
          "internalType": "uint256",
          "name": "_governanceDelay",
          "type": "uint256"
        }
      ],
      "stateMutability": "nonpayable",
      "type": "constructor"
    },
    {
      "anonymous": false,
      "inputs": [
        {
          "indexed": false,
          "internalType": "address",
          "name": "newBridgeGovernance",
          "type": "address"
        },
        {
          "indexed": false,
          "internalType": "uint256",
          "name": "timestamp",
          "type": "uint256"
        }
      ],
      "name": "BridgeGovernanceTransferStarted",
      "type": "event"
    },
    {
      "anonymous": false,
      "inputs": [
        {
          "indexed": false,
          "internalType": "uint64",
          "name": "newDepositDustThreshold",
          "type": "uint64"
        },
        {
          "indexed": false,
          "internalType": "uint256",
          "name": "timestamp",
          "type": "uint256"
        }
      ],
      "name": "DepositDustThresholdUpdateStarted",
      "type": "event"
    },
    {
      "anonymous": false,
      "inputs": [
        {
          "indexed": false,
          "internalType": "uint64",
          "name": "depositDustThreshold",
          "type": "uint64"
        }
      ],
      "name": "DepositDustThresholdUpdated",
      "type": "event"
    },
    {
      "anonymous": false,
      "inputs": [
        {
          "indexed": false,
          "internalType": "uint32",
          "name": "newDepositRevealAheadPeriod",
          "type": "uint32"
        },
        {
          "indexed": false,
          "internalType": "uint256",
          "name": "timestamp",
          "type": "uint256"
        }
      ],
      "name": "DepositRevealAheadPeriodUpdateStarted",
      "type": "event"
    },
    {
      "anonymous": false,
      "inputs": [
        {
          "indexed": false,
          "internalType": "uint32",
          "name": "depositRevealAheadPeriod",
          "type": "uint32"
        }
      ],
      "name": "DepositRevealAheadPeriodUpdated",
      "type": "event"
    },
    {
      "anonymous": false,
      "inputs": [
        {
          "indexed": false,
          "internalType": "uint64",
          "name": "depositTreasuryFeeDivisor",
          "type": "uint64"
        },
        {
          "indexed": false,
          "internalType": "uint256",
          "name": "timestamp",
          "type": "uint256"
        }
      ],
      "name": "DepositTreasuryFeeDivisorUpdateStarted",
      "type": "event"
    },
    {
      "anonymous": false,
      "inputs": [
        {
          "indexed": false,
          "internalType": "uint64",
          "name": "depositTreasuryFeeDivisor",
          "type": "uint64"
        }
      ],
      "name": "DepositTreasuryFeeDivisorUpdated",
      "type": "event"
    },
    {
      "anonymous": false,
      "inputs": [
        {
          "indexed": false,
          "internalType": "uint64",
          "name": "newDepositTxMaxFee",
          "type": "uint64"
        },
        {
          "indexed": false,
          "internalType": "uint256",
          "name": "timestamp",
          "type": "uint256"
        }
      ],
      "name": "DepositTxMaxFeeUpdateStarted",
      "type": "event"
    },
    {
      "anonymous": false,
      "inputs": [
        {
          "indexed": false,
          "internalType": "uint64",
          "name": "depositTxMaxFee",
          "type": "uint64"
        }
      ],
      "name": "DepositTxMaxFeeUpdated",
      "type": "event"
    },
    {
      "anonymous": false,
      "inputs": [
        {
          "indexed": false,
          "internalType": "uint32",
          "name": "newFraudChallengeDefeatTimeout",
          "type": "uint32"
        },
        {
          "indexed": false,
          "internalType": "uint256",
          "name": "timestamp",
          "type": "uint256"
        }
      ],
      "name": "FraudChallengeDefeatTimeoutUpdateStarted",
      "type": "event"
    },
    {
      "anonymous": false,
      "inputs": [
        {
          "indexed": false,
          "internalType": "uint32",
          "name": "fraudChallengeDefeatTimeout",
          "type": "uint32"
        }
      ],
      "name": "FraudChallengeDefeatTimeoutUpdated",
      "type": "event"
    },
    {
      "anonymous": false,
      "inputs": [
        {
          "indexed": false,
          "internalType": "uint96",
          "name": "newFraudChallengeDepositAmount",
          "type": "uint96"
        },
        {
          "indexed": false,
          "internalType": "uint256",
          "name": "timestamp",
          "type": "uint256"
        }
      ],
      "name": "FraudChallengeDepositAmountUpdateStarted",
      "type": "event"
    },
    {
      "anonymous": false,
      "inputs": [
        {
          "indexed": false,
          "internalType": "uint96",
          "name": "fraudChallengeDepositAmount",
          "type": "uint96"
        }
      ],
      "name": "FraudChallengeDepositAmountUpdated",
      "type": "event"
    },
    {
      "anonymous": false,
      "inputs": [
        {
          "indexed": false,
          "internalType": "uint32",
          "name": "newFraudNotifierRewardMultiplier",
          "type": "uint32"
        },
        {
          "indexed": false,
          "internalType": "uint256",
          "name": "timestamp",
          "type": "uint256"
        }
      ],
      "name": "FraudNotifierRewardMultiplierUpdateStarted",
      "type": "event"
    },
    {
      "anonymous": false,
      "inputs": [
        {
          "indexed": false,
          "internalType": "uint32",
          "name": "fraudNotifierRewardMultiplier",
          "type": "uint32"
        }
      ],
      "name": "FraudNotifierRewardMultiplierUpdated",
      "type": "event"
    },
    {
      "anonymous": false,
      "inputs": [
        {
          "indexed": false,
          "internalType": "uint96",
          "name": "newFraudSlashingAmount",
          "type": "uint96"
        },
        {
          "indexed": false,
          "internalType": "uint256",
          "name": "timestamp",
          "type": "uint256"
        }
      ],
      "name": "FraudSlashingAmountUpdateStarted",
      "type": "event"
    },
    {
      "anonymous": false,
      "inputs": [
        {
          "indexed": false,
          "internalType": "uint96",
          "name": "fraudSlashingAmount",
          "type": "uint96"
        }
      ],
      "name": "FraudSlashingAmountUpdated",
      "type": "event"
    },
    {
      "anonymous": false,
      "inputs": [
        {
          "indexed": false,
          "internalType": "uint32",
          "name": "newMovedFundsSweepTimeoutNotifierRewardMultiplier",
          "type": "uint32"
        },
        {
          "indexed": false,
          "internalType": "uint256",
          "name": "timestamp",
          "type": "uint256"
        }
      ],
      "name": "MovedFundsSweepTimeoutNotifierRewardMultiplierUpdateStarted",
      "type": "event"
    },
    {
      "anonymous": false,
      "inputs": [
        {
          "indexed": false,
          "internalType": "uint32",
          "name": "movedFundsSweepTimeoutNotifierRewardMultiplier",
          "type": "uint32"
        }
      ],
      "name": "MovedFundsSweepTimeoutNotifierRewardMultiplierUpdated",
      "type": "event"
    },
    {
      "anonymous": false,
      "inputs": [
        {
          "indexed": false,
          "internalType": "uint96",
          "name": "newMovedFundsSweepTimeoutSlashingAmount",
          "type": "uint96"
        },
        {
          "indexed": false,
          "internalType": "uint256",
          "name": "timestamp",
          "type": "uint256"
        }
      ],
      "name": "MovedFundsSweepTimeoutSlashingAmountUpdateStarted",
      "type": "event"
    },
    {
      "anonymous": false,
      "inputs": [
        {
          "indexed": false,
          "internalType": "uint96",
          "name": "movedFundsSweepTimeoutSlashingAmount",
          "type": "uint96"
        }
      ],
      "name": "MovedFundsSweepTimeoutSlashingAmountUpdated",
      "type": "event"
    },
    {
      "anonymous": false,
      "inputs": [
        {
          "indexed": false,
          "internalType": "uint32",
          "name": "newMovedFundsSweepTimeout",
          "type": "uint32"
        },
        {
          "indexed": false,
          "internalType": "uint256",
          "name": "timestamp",
          "type": "uint256"
        }
      ],
      "name": "MovedFundsSweepTimeoutUpdateStarted",
      "type": "event"
    },
    {
      "anonymous": false,
      "inputs": [
        {
          "indexed": false,
          "internalType": "uint32",
          "name": "movedFundsSweepTimeout",
          "type": "uint32"
        }
      ],
      "name": "MovedFundsSweepTimeoutUpdated",
      "type": "event"
    },
    {
      "anonymous": false,
      "inputs": [
        {
          "indexed": false,
          "internalType": "uint64",
          "name": "newMovedFundsSweepTxMaxTotalFee",
          "type": "uint64"
        },
        {
          "indexed": false,
          "internalType": "uint256",
          "name": "timestamp",
          "type": "uint256"
        }
      ],
      "name": "MovedFundsSweepTxMaxTotalFeeUpdateStarted",
      "type": "event"
    },
    {
      "anonymous": false,
      "inputs": [
        {
          "indexed": false,
          "internalType": "uint64",
          "name": "movedFundsSweepTxMaxTotalFee",
          "type": "uint64"
        }
      ],
      "name": "MovedFundsSweepTxMaxTotalFeeUpdated",
      "type": "event"
    },
    {
      "anonymous": false,
      "inputs": [
        {
          "indexed": false,
          "internalType": "uint16",
          "name": "newMovingFundsCommitmentGasOffset",
          "type": "uint16"
        },
        {
          "indexed": false,
          "internalType": "uint256",
          "name": "timestamp",
          "type": "uint256"
        }
      ],
      "name": "MovingFundsCommitmentGasOffsetUpdateStarted",
      "type": "event"
    },
    {
      "anonymous": false,
      "inputs": [
        {
          "indexed": false,
          "internalType": "uint16",
          "name": "movingFundsCommitmentGasOffset",
          "type": "uint16"
        }
      ],
      "name": "MovingFundsCommitmentGasOffsetUpdated",
      "type": "event"
    },
    {
      "anonymous": false,
      "inputs": [
        {
          "indexed": false,
          "internalType": "uint64",
          "name": "newMovingFundsDustThreshold",
          "type": "uint64"
        },
        {
          "indexed": false,
          "internalType": "uint256",
          "name": "timestamp",
          "type": "uint256"
        }
      ],
      "name": "MovingFundsDustThresholdUpdateStarted",
      "type": "event"
    },
    {
      "anonymous": false,
      "inputs": [
        {
          "indexed": false,
          "internalType": "uint64",
          "name": "movingFundsDustThreshold",
          "type": "uint64"
        }
      ],
      "name": "MovingFundsDustThresholdUpdated",
      "type": "event"
    },
    {
      "anonymous": false,
      "inputs": [
        {
          "indexed": false,
          "internalType": "uint32",
          "name": "newMovingFundsTimeoutNotifierRewardMultiplier",
          "type": "uint32"
        },
        {
          "indexed": false,
          "internalType": "uint256",
          "name": "timestamp",
          "type": "uint256"
        }
      ],
      "name": "MovingFundsTimeoutNotifierRewardMultiplierUpdateStarted",
      "type": "event"
    },
    {
      "anonymous": false,
      "inputs": [
        {
          "indexed": false,
          "internalType": "uint32",
          "name": "movingFundsTimeoutNotifierRewardMultiplier",
          "type": "uint32"
        }
      ],
      "name": "MovingFundsTimeoutNotifierRewardMultiplierUpdated",
      "type": "event"
    },
    {
      "anonymous": false,
      "inputs": [
        {
          "indexed": false,
          "internalType": "uint32",
          "name": "newMovingFundsTimeoutResetDelay",
          "type": "uint32"
        },
        {
          "indexed": false,
          "internalType": "uint256",
          "name": "timestamp",
          "type": "uint256"
        }
      ],
      "name": "MovingFundsTimeoutResetDelayUpdateStarted",
      "type": "event"
    },
    {
      "anonymous": false,
      "inputs": [
        {
          "indexed": false,
          "internalType": "uint32",
          "name": "movingFundsTimeoutResetDelay",
          "type": "uint32"
        }
      ],
      "name": "MovingFundsTimeoutResetDelayUpdated",
      "type": "event"
    },
    {
      "anonymous": false,
      "inputs": [
        {
          "indexed": false,
          "internalType": "uint96",
          "name": "newMovingFundsTimeoutSlashingAmount",
          "type": "uint96"
        },
        {
          "indexed": false,
          "internalType": "uint256",
          "name": "timestamp",
          "type": "uint256"
        }
      ],
      "name": "MovingFundsTimeoutSlashingAmountUpdateStarted",
      "type": "event"
    },
    {
      "anonymous": false,
      "inputs": [
        {
          "indexed": false,
          "internalType": "uint96",
          "name": "movingFundsTimeoutSlashingAmount",
          "type": "uint96"
        }
      ],
      "name": "MovingFundsTimeoutSlashingAmountUpdated",
      "type": "event"
    },
    {
      "anonymous": false,
      "inputs": [
        {
          "indexed": false,
          "internalType": "uint32",
          "name": "newMovingFundsTimeout",
          "type": "uint32"
        },
        {
          "indexed": false,
          "internalType": "uint256",
          "name": "timestamp",
          "type": "uint256"
        }
      ],
      "name": "MovingFundsTimeoutUpdateStarted",
      "type": "event"
    },
    {
      "anonymous": false,
      "inputs": [
        {
          "indexed": false,
          "internalType": "uint32",
          "name": "movingFundsTimeout",
          "type": "uint32"
        }
      ],
      "name": "MovingFundsTimeoutUpdated",
      "type": "event"
    },
    {
      "anonymous": false,
      "inputs": [
        {
          "indexed": false,
          "internalType": "uint64",
          "name": "newMovingFundsTxMaxTotalFee",
          "type": "uint64"
        },
        {
          "indexed": false,
          "internalType": "uint256",
          "name": "timestamp",
          "type": "uint256"
        }
      ],
      "name": "MovingFundsTxMaxTotalFeeUpdateStarted",
      "type": "event"
    },
    {
      "anonymous": false,
      "inputs": [
        {
          "indexed": false,
          "internalType": "uint64",
          "name": "movingFundsTxMaxTotalFee",
          "type": "uint64"
        }
      ],
      "name": "MovingFundsTxMaxTotalFeeUpdated",
      "type": "event"
    },
    {
      "anonymous": false,
      "inputs": [
        {
          "indexed": true,
          "internalType": "address",
          "name": "previousOwner",
          "type": "address"
        },
        {
          "indexed": true,
          "internalType": "address",
          "name": "newOwner",
          "type": "address"
        }
      ],
      "name": "OwnershipTransferred",
      "type": "event"
    },
    {
      "anonymous": false,
      "inputs": [
        {
          "indexed": false,
          "internalType": "uint64",
          "name": "newRedemptionDustThreshold",
          "type": "uint64"
        },
        {
          "indexed": false,
          "internalType": "uint256",
          "name": "timestamp",
          "type": "uint256"
        }
      ],
      "name": "RedemptionDustThresholdUpdateStarted",
      "type": "event"
    },
    {
      "anonymous": false,
      "inputs": [
        {
          "indexed": false,
          "internalType": "uint64",
          "name": "redemptionDustThreshold",
          "type": "uint64"
        }
      ],
      "name": "RedemptionDustThresholdUpdated",
      "type": "event"
    },
    {
      "anonymous": false,
      "inputs": [
        {
          "indexed": false,
          "internalType": "uint32",
          "name": "newRedemptionTimeoutNotifierRewardMultiplier",
          "type": "uint32"
        },
        {
          "indexed": false,
          "internalType": "uint256",
          "name": "timestamp",
          "type": "uint256"
        }
      ],
      "name": "RedemptionTimeoutNotifierRewardMultiplierUpdateStarted",
      "type": "event"
    },
    {
      "anonymous": false,
      "inputs": [
        {
          "indexed": false,
          "internalType": "uint32",
          "name": "redemptionTimeoutNotifierRewardMultiplier",
          "type": "uint32"
        }
      ],
      "name": "RedemptionTimeoutNotifierRewardMultiplierUpdated",
      "type": "event"
    },
    {
      "anonymous": false,
      "inputs": [
        {
          "indexed": false,
          "internalType": "uint96",
          "name": "newRedemptionTimeoutSlashingAmount",
          "type": "uint96"
        },
        {
          "indexed": false,
          "internalType": "uint256",
          "name": "timestamp",
          "type": "uint256"
        }
      ],
      "name": "RedemptionTimeoutSlashingAmountUpdateStarted",
      "type": "event"
    },
    {
      "anonymous": false,
      "inputs": [
        {
          "indexed": false,
          "internalType": "uint96",
          "name": "redemptionTimeoutSlashingAmount",
          "type": "uint96"
        }
      ],
      "name": "RedemptionTimeoutSlashingAmountUpdated",
      "type": "event"
    },
    {
      "anonymous": false,
      "inputs": [
        {
          "indexed": false,
          "internalType": "uint32",
          "name": "newRedemptionTimeout",
          "type": "uint32"
        },
        {
          "indexed": false,
          "internalType": "uint256",
          "name": "timestamp",
          "type": "uint256"
        }
      ],
      "name": "RedemptionTimeoutUpdateStarted",
      "type": "event"
    },
    {
      "anonymous": false,
      "inputs": [
        {
          "indexed": false,
          "internalType": "uint32",
          "name": "redemptionTimeout",
          "type": "uint32"
        }
      ],
      "name": "RedemptionTimeoutUpdated",
      "type": "event"
    },
    {
      "anonymous": false,
      "inputs": [
        {
          "indexed": false,
          "internalType": "uint64",
          "name": "newRedemptionTreasuryFeeDivisor",
          "type": "uint64"
        },
        {
          "indexed": false,
          "internalType": "uint256",
          "name": "timestamp",
          "type": "uint256"
        }
      ],
      "name": "RedemptionTreasuryFeeDivisorUpdateStarted",
      "type": "event"
    },
    {
      "anonymous": false,
      "inputs": [
        {
          "indexed": false,
          "internalType": "uint64",
          "name": "redemptionTreasuryFeeDivisor",
          "type": "uint64"
        }
      ],
      "name": "RedemptionTreasuryFeeDivisorUpdated",
      "type": "event"
    },
    {
      "anonymous": false,
      "inputs": [
        {
          "indexed": false,
          "internalType": "uint64",
          "name": "newRedemptionTxMaxFee",
          "type": "uint64"
        },
        {
          "indexed": false,
          "internalType": "uint256",
          "name": "timestamp",
          "type": "uint256"
        }
      ],
      "name": "RedemptionTxMaxFeeUpdateStarted",
      "type": "event"
    },
    {
      "anonymous": false,
      "inputs": [
        {
          "indexed": false,
          "internalType": "uint64",
          "name": "redemptionTxMaxFee",
          "type": "uint64"
        }
      ],
      "name": "RedemptionTxMaxFeeUpdated",
      "type": "event"
    },
    {
      "anonymous": false,
      "inputs": [
        {
          "indexed": false,
          "internalType": "uint64",
          "name": "newRedemptionTxMaxTotalFee",
          "type": "uint64"
        },
        {
          "indexed": false,
          "internalType": "uint256",
          "name": "timestamp",
          "type": "uint256"
        }
      ],
      "name": "RedemptionTxMaxTotalFeeUpdateStarted",
      "type": "event"
    },
    {
      "anonymous": false,
      "inputs": [
        {
          "indexed": false,
          "internalType": "uint64",
          "name": "redemptionTxMaxTotalFee",
          "type": "uint64"
        }
      ],
      "name": "RedemptionTxMaxTotalFeeUpdated",
      "type": "event"
    },
    {
      "anonymous": false,
      "inputs": [
        {
          "indexed": false,
          "internalType": "address",
          "name": "newTreasury",
          "type": "address"
        },
        {
          "indexed": false,
          "internalType": "uint256",
          "name": "timestamp",
          "type": "uint256"
        }
      ],
      "name": "TreasuryUpdateStarted",
      "type": "event"
    },
    {
      "anonymous": false,
      "inputs": [
        {
          "indexed": false,
          "internalType": "address",
          "name": "treasury",
          "type": "address"
        }
      ],
      "name": "TreasuryUpdated",
      "type": "event"
    },
    {
      "anonymous": false,
      "inputs": [
        {
          "indexed": false,
          "internalType": "uint32",
          "name": "newWalletClosingPeriod",
          "type": "uint32"
        },
        {
          "indexed": false,
          "internalType": "uint256",
          "name": "timestamp",
          "type": "uint256"
        }
      ],
      "name": "WalletClosingPeriodUpdateStarted",
      "type": "event"
    },
    {
      "anonymous": false,
      "inputs": [
        {
          "indexed": false,
          "internalType": "uint32",
          "name": "walletClosingPeriod",
          "type": "uint32"
        }
      ],
      "name": "WalletClosingPeriodUpdated",
      "type": "event"
    },
    {
      "anonymous": false,
      "inputs": [
        {
          "indexed": false,
          "internalType": "uint64",
          "name": "newWalletClosureMinBtcBalance",
          "type": "uint64"
        },
        {
          "indexed": false,
          "internalType": "uint256",
          "name": "timestamp",
          "type": "uint256"
        }
      ],
      "name": "WalletClosureMinBtcBalanceUpdateStarted",
      "type": "event"
    },
    {
      "anonymous": false,
      "inputs": [
        {
          "indexed": false,
          "internalType": "uint64",
          "name": "walletClosureMinBtcBalance",
          "type": "uint64"
        }
      ],
      "name": "WalletClosureMinBtcBalanceUpdated",
      "type": "event"
    },
    {
      "anonymous": false,
      "inputs": [
        {
          "indexed": false,
          "internalType": "uint64",
          "name": "newWalletCreationMaxBtcBalance",
          "type": "uint64"
        },
        {
          "indexed": false,
          "internalType": "uint256",
          "name": "timestamp",
          "type": "uint256"
        }
      ],
      "name": "WalletCreationMaxBtcBalanceUpdateStarted",
      "type": "event"
    },
    {
      "anonymous": false,
      "inputs": [
        {
          "indexed": false,
          "internalType": "uint64",
          "name": "walletCreationMaxBtcBalance",
          "type": "uint64"
        }
      ],
      "name": "WalletCreationMaxBtcBalanceUpdated",
      "type": "event"
    },
    {
      "anonymous": false,
      "inputs": [
        {
          "indexed": false,
          "internalType": "uint64",
          "name": "newWalletCreationMinBtcBalance",
          "type": "uint64"
        },
        {
          "indexed": false,
          "internalType": "uint256",
          "name": "timestamp",
          "type": "uint256"
        }
      ],
      "name": "WalletCreationMinBtcBalanceUpdateStarted",
      "type": "event"
    },
    {
      "anonymous": false,
      "inputs": [
        {
          "indexed": false,
          "internalType": "uint64",
          "name": "walletCreationMinBtcBalance",
          "type": "uint64"
        }
      ],
      "name": "WalletCreationMinBtcBalanceUpdated",
      "type": "event"
    },
    {
      "anonymous": false,
      "inputs": [
        {
          "indexed": false,
          "internalType": "uint32",
          "name": "newWalletCreationPeriod",
          "type": "uint32"
        },
        {
          "indexed": false,
          "internalType": "uint256",
          "name": "timestamp",
          "type": "uint256"
        }
      ],
      "name": "WalletCreationPeriodUpdateStarted",
      "type": "event"
    },
    {
      "anonymous": false,
      "inputs": [
        {
          "indexed": false,
          "internalType": "uint32",
          "name": "walletCreationPeriod",
          "type": "uint32"
        }
      ],
      "name": "WalletCreationPeriodUpdated",
      "type": "event"
    },
    {
      "anonymous": false,
      "inputs": [
        {
          "indexed": false,
          "internalType": "uint32",
          "name": "newWalletMaxAge",
          "type": "uint32"
        },
        {
          "indexed": false,
          "internalType": "uint256",
          "name": "timestamp",
          "type": "uint256"
        }
      ],
      "name": "WalletMaxAgeUpdateStarted",
      "type": "event"
    },
    {
      "anonymous": false,
      "inputs": [
        {
          "indexed": false,
          "internalType": "uint32",
          "name": "walletMaxAge",
          "type": "uint32"
        }
      ],
      "name": "WalletMaxAgeUpdated",
      "type": "event"
    },
    {
      "anonymous": false,
      "inputs": [
        {
          "indexed": false,
          "internalType": "uint64",
          "name": "newWalletMaxBtcTransfer",
          "type": "uint64"
        },
        {
          "indexed": false,
          "internalType": "uint256",
          "name": "timestamp",
          "type": "uint256"
        }
      ],
      "name": "WalletMaxBtcTransferUpdateStarted",
      "type": "event"
    },
    {
      "anonymous": false,
      "inputs": [
        {
          "indexed": false,
          "internalType": "uint64",
          "name": "walletMaxBtcTransfer",
          "type": "uint64"
        }
      ],
      "name": "WalletMaxBtcTransferUpdated",
      "type": "event"
    },
    {
      "inputs": [
        {
          "internalType": "address",
          "name": "_newBridgeGovernance",
          "type": "address"
        }
      ],
      "name": "beginBridgeGovernanceTransfer",
      "outputs": [],
      "stateMutability": "nonpayable",
      "type": "function"
    },
    {
      "inputs": [
        {
          "internalType": "uint64",
          "name": "_newDepositDustThreshold",
          "type": "uint64"
        }
      ],
      "name": "beginDepositDustThresholdUpdate",
      "outputs": [],
      "stateMutability": "nonpayable",
      "type": "function"
    },
    {
      "inputs": [
        {
          "internalType": "uint32",
          "name": "_newDepositRevealAheadPeriod",
          "type": "uint32"
        }
      ],
      "name": "beginDepositRevealAheadPeriodUpdate",
      "outputs": [],
      "stateMutability": "nonpayable",
      "type": "function"
    },
    {
      "inputs": [
        {
          "internalType": "uint64",
          "name": "_newDepositTreasuryFeeDivisor",
          "type": "uint64"
        }
      ],
      "name": "beginDepositTreasuryFeeDivisorUpdate",
      "outputs": [],
      "stateMutability": "nonpayable",
      "type": "function"
    },
    {
      "inputs": [
        {
          "internalType": "uint64",
          "name": "_newDepositTxMaxFee",
          "type": "uint64"
        }
      ],
      "name": "beginDepositTxMaxFeeUpdate",
      "outputs": [],
      "stateMutability": "nonpayable",
      "type": "function"
    },
    {
      "inputs": [
        {
          "internalType": "uint32",
          "name": "_newFraudChallengeDefeatTimeout",
          "type": "uint32"
        }
      ],
      "name": "beginFraudChallengeDefeatTimeoutUpdate",
      "outputs": [],
      "stateMutability": "nonpayable",
      "type": "function"
    },
    {
      "inputs": [
        {
          "internalType": "uint96",
          "name": "_newFraudChallengeDepositAmount",
          "type": "uint96"
        }
      ],
      "name": "beginFraudChallengeDepositAmountUpdate",
      "outputs": [],
      "stateMutability": "nonpayable",
      "type": "function"
    },
    {
      "inputs": [
        {
          "internalType": "uint32",
          "name": "_newFraudNotifierRewardMultiplier",
          "type": "uint32"
        }
      ],
      "name": "beginFraudNotifierRewardMultiplierUpdate",
      "outputs": [],
      "stateMutability": "nonpayable",
      "type": "function"
    },
    {
      "inputs": [
        {
          "internalType": "uint96",
          "name": "_newFraudSlashingAmount",
          "type": "uint96"
        }
      ],
      "name": "beginFraudSlashingAmountUpdate",
      "outputs": [],
      "stateMutability": "nonpayable",
      "type": "function"
    },
    {
      "inputs": [
        {
          "internalType": "uint256",
          "name": "_newGovernanceDelay",
          "type": "uint256"
        }
      ],
      "name": "beginGovernanceDelayUpdate",
      "outputs": [],
      "stateMutability": "nonpayable",
      "type": "function"
    },
    {
      "inputs": [
        {
          "internalType": "uint32",
          "name": "_newMovedFundsSweepTimeoutNotifierRewardMultiplier",
          "type": "uint32"
        }
      ],
      "name": "beginMovedFundsSweepTimeoutNotifierRewardMultiplierUpdate",
      "outputs": [],
      "stateMutability": "nonpayable",
      "type": "function"
    },
    {
      "inputs": [
        {
          "internalType": "uint96",
          "name": "_newMovedFundsSweepTimeoutSlashingAmount",
          "type": "uint96"
        }
      ],
      "name": "beginMovedFundsSweepTimeoutSlashingAmountUpdate",
      "outputs": [],
      "stateMutability": "nonpayable",
      "type": "function"
    },
    {
      "inputs": [
        {
          "internalType": "uint32",
          "name": "_newMovedFundsSweepTimeout",
          "type": "uint32"
        }
      ],
      "name": "beginMovedFundsSweepTimeoutUpdate",
      "outputs": [],
      "stateMutability": "nonpayable",
      "type": "function"
    },
    {
      "inputs": [
        {
          "internalType": "uint64",
          "name": "_newMovedFundsSweepTxMaxTotalFee",
          "type": "uint64"
        }
      ],
      "name": "beginMovedFundsSweepTxMaxTotalFeeUpdate",
      "outputs": [],
      "stateMutability": "nonpayable",
      "type": "function"
    },
    {
      "inputs": [
        {
          "internalType": "uint16",
          "name": "_newMovingFundsCommitmentGasOffset",
          "type": "uint16"
        }
      ],
      "name": "beginMovingFundsCommitmentGasOffsetUpdate",
      "outputs": [],
      "stateMutability": "nonpayable",
      "type": "function"
    },
    {
      "inputs": [
        {
          "internalType": "uint64",
          "name": "_newMovingFundsDustThreshold",
          "type": "uint64"
        }
      ],
      "name": "beginMovingFundsDustThresholdUpdate",
      "outputs": [],
      "stateMutability": "nonpayable",
      "type": "function"
    },
    {
      "inputs": [
        {
          "internalType": "uint32",
          "name": "_newMovingFundsTimeoutNotifierRewardMultiplier",
          "type": "uint32"
        }
      ],
      "name": "beginMovingFundsTimeoutNotifierRewardMultiplierUpdate",
      "outputs": [],
      "stateMutability": "nonpayable",
      "type": "function"
    },
    {
      "inputs": [
        {
          "internalType": "uint32",
          "name": "_newMovingFundsTimeoutResetDelay",
          "type": "uint32"
        }
      ],
      "name": "beginMovingFundsTimeoutResetDelayUpdate",
      "outputs": [],
      "stateMutability": "nonpayable",
      "type": "function"
    },
    {
      "inputs": [
        {
          "internalType": "uint96",
          "name": "_newMovingFundsTimeoutSlashingAmount",
          "type": "uint96"
        }
      ],
      "name": "beginMovingFundsTimeoutSlashingAmountUpdate",
      "outputs": [],
      "stateMutability": "nonpayable",
      "type": "function"
    },
    {
      "inputs": [
        {
          "internalType": "uint32",
          "name": "_newMovingFundsTimeout",
          "type": "uint32"
        }
      ],
      "name": "beginMovingFundsTimeoutUpdate",
      "outputs": [],
      "stateMutability": "nonpayable",
      "type": "function"
    },
    {
      "inputs": [
        {
          "internalType": "uint64",
          "name": "_newMovingFundsTxMaxTotalFee",
          "type": "uint64"
        }
      ],
      "name": "beginMovingFundsTxMaxTotalFeeUpdate",
      "outputs": [],
      "stateMutability": "nonpayable",
      "type": "function"
    },
    {
      "inputs": [
        {
          "internalType": "uint64",
          "name": "_newRedemptionDustThreshold",
          "type": "uint64"
        }
      ],
      "name": "beginRedemptionDustThresholdUpdate",
      "outputs": [],
      "stateMutability": "nonpayable",
      "type": "function"
    },
    {
      "inputs": [
        {
          "internalType": "uint32",
          "name": "_newRedemptionTimeoutNotifierRewardMultiplier",
          "type": "uint32"
        }
      ],
      "name": "beginRedemptionTimeoutNotifierRewardMultiplierUpdate",
      "outputs": [],
      "stateMutability": "nonpayable",
      "type": "function"
    },
    {
      "inputs": [
        {
          "internalType": "uint96",
          "name": "_newRedemptionTimeoutSlashingAmount",
          "type": "uint96"
        }
      ],
      "name": "beginRedemptionTimeoutSlashingAmountUpdate",
      "outputs": [],
      "stateMutability": "nonpayable",
      "type": "function"
    },
    {
      "inputs": [
        {
          "internalType": "uint32",
          "name": "_newRedemptionTimeout",
          "type": "uint32"
        }
      ],
      "name": "beginRedemptionTimeoutUpdate",
      "outputs": [],
      "stateMutability": "nonpayable",
      "type": "function"
    },
    {
      "inputs": [
        {
          "internalType": "uint64",
          "name": "_newRedemptionTreasuryFeeDivisor",
          "type": "uint64"
        }
      ],
      "name": "beginRedemptionTreasuryFeeDivisorUpdate",
      "outputs": [],
      "stateMutability": "nonpayable",
      "type": "function"
    },
    {
      "inputs": [
        {
          "internalType": "uint64",
          "name": "_newRedemptionTxMaxFee",
          "type": "uint64"
        }
      ],
      "name": "beginRedemptionTxMaxFeeUpdate",
      "outputs": [],
      "stateMutability": "nonpayable",
      "type": "function"
    },
    {
      "inputs": [
        {
          "internalType": "uint64",
          "name": "_newRedemptionTxMaxTotalFee",
          "type": "uint64"
        }
      ],
      "name": "beginRedemptionTxMaxTotalFeeUpdate",
      "outputs": [],
      "stateMutability": "nonpayable",
      "type": "function"
    },
    {
      "inputs": [
        {
          "internalType": "address",
          "name": "_newTreasury",
          "type": "address"
        }
      ],
      "name": "beginTreasuryUpdate",
      "outputs": [],
      "stateMutability": "nonpayable",
      "type": "function"
    },
    {
      "inputs": [
        {
          "internalType": "uint32",
          "name": "_newWalletClosingPeriod",
          "type": "uint32"
        }
      ],
      "name": "beginWalletClosingPeriodUpdate",
      "outputs": [],
      "stateMutability": "nonpayable",
      "type": "function"
    },
    {
      "inputs": [
        {
          "internalType": "uint64",
          "name": "_newWalletClosureMinBtcBalance",
          "type": "uint64"
        }
      ],
      "name": "beginWalletClosureMinBtcBalanceUpdate",
      "outputs": [],
      "stateMutability": "nonpayable",
      "type": "function"
    },
    {
      "inputs": [
        {
          "internalType": "uint64",
          "name": "_newWalletCreationMaxBtcBalance",
          "type": "uint64"
        }
      ],
      "name": "beginWalletCreationMaxBtcBalanceUpdate",
      "outputs": [],
      "stateMutability": "nonpayable",
      "type": "function"
    },
    {
      "inputs": [
        {
          "internalType": "uint64",
          "name": "_newWalletCreationMinBtcBalance",
          "type": "uint64"
        }
      ],
      "name": "beginWalletCreationMinBtcBalanceUpdate",
      "outputs": [],
      "stateMutability": "nonpayable",
      "type": "function"
    },
    {
      "inputs": [
        {
          "internalType": "uint32",
          "name": "_newWalletCreationPeriod",
          "type": "uint32"
        }
      ],
      "name": "beginWalletCreationPeriodUpdate",
      "outputs": [],
      "stateMutability": "nonpayable",
      "type": "function"
    },
    {
      "inputs": [
        {
          "internalType": "uint32",
          "name": "_newWalletMaxAge",
          "type": "uint32"
        }
      ],
      "name": "beginWalletMaxAgeUpdate",
      "outputs": [],
      "stateMutability": "nonpayable",
      "type": "function"
    },
    {
      "inputs": [
        {
          "internalType": "uint64",
          "name": "_newWalletMaxBtcTransfer",
          "type": "uint64"
        }
      ],
      "name": "beginWalletMaxBtcTransferUpdate",
      "outputs": [],
      "stateMutability": "nonpayable",
      "type": "function"
    },
    {
      "inputs": [],
      "name": "bridgeGovernanceTransferChangeInitiated",
      "outputs": [
        {
          "internalType": "uint256",
          "name": "",
          "type": "uint256"
        }
      ],
      "stateMutability": "view",
      "type": "function"
    },
    {
      "inputs": [],
      "name": "finalizeBridgeGovernanceTransfer",
      "outputs": [],
      "stateMutability": "nonpayable",
      "type": "function"
    },
    {
      "inputs": [],
      "name": "finalizeDepositDustThresholdUpdate",
      "outputs": [],
      "stateMutability": "nonpayable",
      "type": "function"
    },
    {
      "inputs": [],
      "name": "finalizeDepositRevealAheadPeriodUpdate",
      "outputs": [],
      "stateMutability": "nonpayable",
      "type": "function"
    },
    {
      "inputs": [],
      "name": "finalizeDepositTreasuryFeeDivisorUpdate",
      "outputs": [],
      "stateMutability": "nonpayable",
      "type": "function"
    },
    {
      "inputs": [],
      "name": "finalizeDepositTxMaxFeeUpdate",
      "outputs": [],
      "stateMutability": "nonpayable",
      "type": "function"
    },
    {
      "inputs": [],
      "name": "finalizeFraudChallengeDefeatTimeoutUpdate",
      "outputs": [],
      "stateMutability": "nonpayable",
      "type": "function"
    },
    {
      "inputs": [],
      "name": "finalizeFraudChallengeDepositAmountUpdate",
      "outputs": [],
      "stateMutability": "nonpayable",
      "type": "function"
    },
    {
      "inputs": [],
      "name": "finalizeFraudNotifierRewardMultiplierUpdate",
      "outputs": [],
      "stateMutability": "nonpayable",
      "type": "function"
    },
    {
      "inputs": [],
      "name": "finalizeFraudSlashingAmountUpdate",
      "outputs": [],
      "stateMutability": "nonpayable",
      "type": "function"
    },
    {
      "inputs": [],
      "name": "finalizeGovernanceDelayUpdate",
      "outputs": [],
      "stateMutability": "nonpayable",
      "type": "function"
    },
    {
      "inputs": [],
      "name": "finalizeMovedFundsSweepTimeoutNotifierRewardMultiplierUpdate",
      "outputs": [],
      "stateMutability": "nonpayable",
      "type": "function"
    },
    {
      "inputs": [],
      "name": "finalizeMovedFundsSweepTimeoutSlashingAmountUpdate",
      "outputs": [],
      "stateMutability": "nonpayable",
      "type": "function"
    },
    {
      "inputs": [],
      "name": "finalizeMovedFundsSweepTimeoutUpdate",
      "outputs": [],
      "stateMutability": "nonpayable",
      "type": "function"
    },
    {
      "inputs": [],
      "name": "finalizeMovedFundsSweepTxMaxTotalFeeUpdate",
      "outputs": [],
      "stateMutability": "nonpayable",
      "type": "function"
    },
    {
      "inputs": [],
      "name": "finalizeMovingFundsCommitmentGasOffsetUpdate",
      "outputs": [],
      "stateMutability": "nonpayable",
      "type": "function"
    },
    {
      "inputs": [],
      "name": "finalizeMovingFundsDustThresholdUpdate",
      "outputs": [],
      "stateMutability": "nonpayable",
      "type": "function"
    },
    {
      "inputs": [],
      "name": "finalizeMovingFundsTimeoutNotifierRewardMultiplierUpdate",
      "outputs": [],
      "stateMutability": "nonpayable",
      "type": "function"
    },
    {
      "inputs": [],
      "name": "finalizeMovingFundsTimeoutResetDelayUpdate",
      "outputs": [],
      "stateMutability": "nonpayable",
      "type": "function"
    },
    {
      "inputs": [],
      "name": "finalizeMovingFundsTimeoutSlashingAmountUpdate",
      "outputs": [],
      "stateMutability": "nonpayable",
      "type": "function"
    },
    {
      "inputs": [],
      "name": "finalizeMovingFundsTimeoutUpdate",
      "outputs": [],
      "stateMutability": "nonpayable",
      "type": "function"
    },
    {
      "inputs": [],
      "name": "finalizeMovingFundsTxMaxTotalFeeUpdate",
      "outputs": [],
      "stateMutability": "nonpayable",
      "type": "function"
    },
    {
      "inputs": [],
      "name": "finalizeRedemptionDustThresholdUpdate",
      "outputs": [],
      "stateMutability": "nonpayable",
      "type": "function"
    },
    {
      "inputs": [],
      "name": "finalizeRedemptionTimeoutNotifierRewardMultiplierUpdate",
      "outputs": [],
      "stateMutability": "nonpayable",
      "type": "function"
    },
    {
      "inputs": [],
      "name": "finalizeRedemptionTimeoutSlashingAmountUpdate",
      "outputs": [],
      "stateMutability": "nonpayable",
      "type": "function"
    },
    {
      "inputs": [],
      "name": "finalizeRedemptionTimeoutUpdate",
      "outputs": [],
      "stateMutability": "nonpayable",
      "type": "function"
    },
    {
      "inputs": [],
      "name": "finalizeRedemptionTreasuryFeeDivisorUpdate",
      "outputs": [],
      "stateMutability": "nonpayable",
      "type": "function"
    },
    {
      "inputs": [],
      "name": "finalizeRedemptionTxMaxFeeUpdate",
      "outputs": [],
      "stateMutability": "nonpayable",
      "type": "function"
    },
    {
      "inputs": [],
      "name": "finalizeRedemptionTxMaxTotalFeeUpdate",
      "outputs": [],
      "stateMutability": "nonpayable",
      "type": "function"
    },
    {
      "inputs": [],
      "name": "finalizeTreasuryUpdate",
      "outputs": [],
      "stateMutability": "nonpayable",
      "type": "function"
    },
    {
      "inputs": [],
      "name": "finalizeWalletClosingPeriodUpdate",
      "outputs": [],
      "stateMutability": "nonpayable",
      "type": "function"
    },
    {
      "inputs": [],
      "name": "finalizeWalletClosureMinBtcBalanceUpdate",
      "outputs": [],
      "stateMutability": "nonpayable",
      "type": "function"
    },
    {
      "inputs": [],
      "name": "finalizeWalletCreationMaxBtcBalanceUpdate",
      "outputs": [],
      "stateMutability": "nonpayable",
      "type": "function"
    },
    {
      "inputs": [],
      "name": "finalizeWalletCreationMinBtcBalanceUpdate",
      "outputs": [],
      "stateMutability": "nonpayable",
      "type": "function"
    },
    {
      "inputs": [],
      "name": "finalizeWalletCreationPeriodUpdate",
      "outputs": [],
      "stateMutability": "nonpayable",
      "type": "function"
    },
    {
      "inputs": [],
      "name": "finalizeWalletMaxAgeUpdate",
      "outputs": [],
      "stateMutability": "nonpayable",
      "type": "function"
    },
    {
      "inputs": [],
      "name": "finalizeWalletMaxBtcTransferUpdate",
      "outputs": [],
      "stateMutability": "nonpayable",
      "type": "function"
    },
    {
      "inputs": [
        {
          "internalType": "uint256",
          "name": "",
          "type": "uint256"
        }
      ],
      "name": "governanceDelays",
      "outputs": [
        {
          "internalType": "uint256",
          "name": "",
          "type": "uint256"
        }
      ],
      "stateMutability": "view",
      "type": "function"
    },
    {
      "inputs": [],
      "name": "owner",
      "outputs": [
        {
          "internalType": "address",
          "name": "",
          "type": "address"
        }
      ],
      "stateMutability": "view",
      "type": "function"
    },
    {
      "inputs": [],
      "name": "renounceOwnership",
      "outputs": [],
      "stateMutability": "nonpayable",
      "type": "function"
    },
    {
      "inputs": [
        {
          "internalType": "address",
          "name": "spvMaintainer",
          "type": "address"
        },
        {
          "internalType": "bool",
          "name": "isTrusted",
          "type": "bool"
        }
      ],
      "name": "setSpvMaintainerStatus",
      "outputs": [],
      "stateMutability": "nonpayable",
      "type": "function"
    },
    {
      "inputs": [
        {
          "internalType": "address",
          "name": "vault",
          "type": "address"
        },
        {
          "internalType": "bool",
          "name": "isTrusted",
          "type": "bool"
        }
      ],
      "name": "setVaultStatus",
      "outputs": [],
      "stateMutability": "nonpayable",
      "type": "function"
    },
    {
      "inputs": [
        {
          "internalType": "address",
          "name": "newOwner",
          "type": "address"
        }
      ],
      "name": "transferOwnership",
      "outputs": [],
      "stateMutability": "nonpayable",
      "type": "function"
    }
  ],
  "transactionHash": "0x5b78d2d367298a175249bd7def2aac8dc036767600f04010cf523b7a82445918",
  "args": [
    "0x5e4861a80B55f035D899f66772117F00FA0E8e7B",
    172800
  ],
  "numDeployments": 1,
  "solcInputHash": "fccb130292c8c7cc958ab4fa31a3e180",
  "bytecode": "0x60806040523480156200001157600080fd5b50604051620057bc380380620057bc8339810160408190526200003491620000ba565b6200003f336200006a565b604580546001600160a01b0319166001600160a01b0384161790558060466000015550620000f69050565b600080546001600160a01b038381166001600160a01b0319831681178455604051919092169283917f8be0079c531659141344cd1fd0a4f28419497f9722a3daafe3b4186f6b6457e09190a35050565b60008060408385031215620000ce57600080fd5b82516001600160a01b0381168114620000e657600080fd5b6020939093015192949293505050565b6156b680620001066000396000f3fe608060405234801561001057600080fd5b50600436106104755760003560e01c80636636b65511610257578063b372e40311610146578063dd6d0e68116100c3578063f44c0f3311610087578063f44c0f33146108a0578063f604f5d3146108a8578063f9f06a9a146108b0578063fabcb8fa146108b8578063fcbf9be7146108cb57600080fd5b8063dd6d0e6814610857578063e7c7c8c81461085f578063f00b17d414610872578063f039ee9a1461087a578063f2fde38b1461088d57600080fd5b8063caf0bc8f1161010a578063caf0bc8f14610803578063d1234d9514610816578063d25cb94614610829578063da7767981461083c578063dc46f09d1461084457600080fd5b8063b372e403146107c5578063c1104a2d146107d8578063c63cba46146107eb578063c789663b146107f3578063c79fb011146107fb57600080fd5b80638b18a505116101d457806397845cc41161019857806397845cc41461077c57806397fd27fc146107845780639b64dab814610797578063a85507251461079f578063aa4d9ccc146107b257600080fd5b80638b18a5051461072a5780638c382a531461073d5780638da5cb5b1461074657806390464a4414610761578063961312ce1461077457600080fd5b806371e7b6931161021b57806371e7b693146106e15780637256fde9146106f45780637318814c146106fc57806380b2f2db1461070f57806385082d2c1461071757600080fd5b80636636b6551461069057806368fcf2a8146106985780636a57a28b146106be578063715018a6146106d157806371c96758146106d957600080fd5b80633a1e363d116103735780634f5bfd2a116102f05780636015124b116102b45780636015124b14610652578063605da0531461065a57806360d712fc14610662578063625391f9146106755780636263b8831461067d57600080fd5b80634f5bfd2a14610609578063541d69871461061c5780635e3ef2c71461062f5780635f2b2d0d146106375780635faa6fa01461064a57600080fd5b8063480753671161033757806348075367146105b557806348dd7d66146105bd5780634abef7d4146105d05780634cf19dde146105e35780634e216f5f146105f657600080fd5b80633a1e363d146105615780634078dde01461057457806340c9ac421461058757806343b327c31461059a578063471c169f146105ad57600080fd5b806322f1d80a116104015780632df793c7116103c55780632df793c71461052e5780632eb97687146105365780632f65b50f1461053e57806337fa5d51146105465780633860c3571461055957600080fd5b806322f1d80a146104f057806324d6fa9d1461050357806326825a9d1461050b57806326c23dda1461051357806329d8c91d1461051b57600080fd5b806311f08c3e1161044857806311f08c3e146104b257806312864337146104ba57806315566135146104cd5780631b3d4e63146104d55780631fb738bb146104dd57600080fd5b806301a1f86f1461047a5780630403ac241461048f57806305a1d322146104975780630a303cd21461049f575b600080fd5b61048d6104883660046150c2565b6108d3565b005b61048d61097c565b61048d610b5a565b61048d6104ad3660046150f8565b610cf9565b61048d610d67565b61048d6104c836600461512a565b610f1a565b61048d610f8b565b61048d61112d565b61048d6104eb36600461512a565b6112d3565b61048d6104fe3660046150c2565b611344565b61048d6113b5565b61048d611530565b61048d61160f565b61048d6105293660046150f8565b61178c565b61048d6117fa565b61048d611961565b61048d611b03565b61048d610554366004615147565b611c83565b61048d611cb6565b61048d61056f3660046150c2565b611e24565b61048d6105823660046150c2565b611e95565b61048d6105953660046150c2565b611f06565b61048d6105a83660046150c2565b611f77565b61048d611fe7565b61048d612163565b61048d6105cb3660046150c2565b6122ca565b61048d6105de3660046150f8565b61233b565b61048d6105f13660046150f8565b6123a9565b61048d6106043660046150c2565b612417565b61048d6106173660046150f8565b612488565b61048d61062a3660046150f8565b6124f6565b61048d612564565b61048d61064536600461517c565b612701565b61048d612797565b61048d612914565b61048d612ab3565b61048d61067036600461517c565b612bfc565b61048d612c60565b61048d61068b3660046150c2565b612dd8565b61048d612e49565b6106ab6106a6366004615147565b612fc6565b6040519081526020015b60405180910390f35b61048d6106cc3660046150c2565b612fdd565b61048d61304e565b61048d613084565b61048d6106ef3660046150f8565b6131eb565b61048d613259565b61048d61070a3660046150f8565b6133f8565b61048d613466565b61048d61072536600461512a565b6135d1565b61048d6107383660046151b8565b613642565b6106ab60495481565b6000546040516001600160a01b0390911681526020016106b5565b61048d61076f3660046151e3565b6136cd565b61048d613739565b61048d6138a3565b61048d6107923660046150f8565b613a20565b61048d613a8e565b61048d6107ad3660046150f8565b613c30565b61048d6107c03660046150f8565b613c9e565b61048d6107d33660046150c2565b613d0b565b61048d6107e63660046150c2565b613d7c565b61048d613ded565b61048d613f8f565b61048d61410b565b61048d6108113660046151b8565b6142ad565b61048d61082436600461512a565b61431e565b61048d6108373660046150c2565b61438f565b61048d614400565b61048d6108523660046150f8565b61450c565b61048d61457a565b61048d61086d3660046150f8565b6146f5565b61048d614763565b61048d61088836600461512a565b6148de565b61048d61089b3660046151b8565b61494f565b61048d6149ea565b61048d614b89565b61048d614cf4565b61048d6108c63660046150c2565b614e71565b61048d614ee2565b6000546001600160a01b031633146109065760405162461bcd60e51b81526004016108fd90615200565b60405180910390fd5b6040516340834c5960e11b8152600160048201526001600160401b038216602482015273ce4b16b81A28d785FEEB7b1D56a9B97d450D34439063810698b2906044015b60006040518083038186803b15801561096157600080fd5b505af4158015610975573d6000803e3d6000fd5b5050505050565b6000546001600160a01b031633146109a65760405162461bcd60e51b81526004016108fd90615200565b600080600080600080600080600080604560009054906101000a90046001600160a01b03166001600160a01b031663be05abe36040518163ffffffff1660e01b815260040161016060405180830381865afa158015610a09573d6000803e3d6000fd5b505050506040513d601f19601f82011682018060405250810190610a2d919061524b565b5099509950995099509950995099509950995099506000601760140160009054906101000a900463ffffffff169050601773ce4b16b81A28d785FEEB7b1D56a9B97d450D3443637d105c799091610a8360465490565b6040516001600160e01b031960e085901b1681526004810192909252602482015260440160006040518083038186803b158015610abf57600080fd5b505af4158015610ad3573d6000803e3d6000fd5b505060455460405163c3b5ffc960e01b81526001600160a01b03909116925063c3b5ffc99150610b1b908e908e908e908e908e908e908e908e908e908e908e90600401615331565b600060405180830381600087803b158015610b3557600080fd5b505af1158015610b49573d6000803e3d6000fd5b505050505050505050505050505050565b6000546001600160a01b03163314610b845760405162461bcd60e51b81526004016108fd90615200565b600080600080600080600080600080604560009054906101000a90046001600160a01b03166001600160a01b031663be05abe36040518163ffffffff1660e01b815260040161016060405180830381865afa158015610be7573d6000803e3d6000fd5b505050506040513d601f19601f82011682018060405250810190610c0b919061524b565b9a509a5050995099509950995099509950995099506000601760100160009054906101000a900463ffffffff169050601773ce4b16b81A28d785FEEB7b1D56a9B97d450D3443638c0fc65a9091610c6160465490565b6040516001600160e01b031960e085901b1681526004810192909252602482015260440160006040518083038186803b158015610c9d57600080fd5b505af4158015610cb1573d6000803e3d6000fd5b505060455460405163c3b5ffc960e01b81526001600160a01b03909116925063c3b5ffc99150610b1b908e908e908e908e908e908e908e908e908c908f908f90600401615331565b6000546001600160a01b03163314610d235760405162461bcd60e51b81526004016108fd90615200565b604051630587584360e21b8152602d600482015263ffffffff8216602482015273ce4b16b81A28d785FEEB7b1D56a9B97d450D34439063161d610c90604401610949565b6000546001600160a01b03163314610d915760405162461bcd60e51b81526004016108fd90615200565b600080600080600080604560009054906101000a90046001600160a01b03166001600160a01b0316636e70ce416040518163ffffffff1660e01b815260040160e060405180830381865afa158015610ded573d6000803e3d6000fd5b505050506040513d601f19601f82011682018060405250810190610e1191906153ab565b50601554959b5093995091975095509350915063ffffffff1673ce4b16b81A28d785FEEB7b1D56a9B97d450D344363728bd45d6009610e4f60465490565b6040516001600160e01b031960e085901b1681526004810192909252602482015260440160006040518083038186803b158015610e8b57600080fd5b505af4158015610e9f573d6000803e3d6000fd5b505060455460405163b5da217160e01b81526001600160a01b03909116925063b5da21719150610edf908a908a908a908a908a908a908a90600401615447565b600060405180830381600087803b158015610ef957600080fd5b505af1158015610f0d573d6000803e3d6000fd5b5050505050505050505050565b6000546001600160a01b03163314610f445760405162461bcd60e51b81526004016108fd90615200565b604051632fc22b3f60e21b8152603b60048201526001600160601b038216602482015273ce4b16b81A28d785FEEB7b1D56a9B97d450D34439063bf08acfc90604401610949565b6000546001600160a01b03163314610fb55760405162461bcd60e51b81526004016108fd90615200565b600080600080600080600080600080604560009054906101000a90046001600160a01b03166001600160a01b031663be05abe36040518163ffffffff1660e01b815260040161016060405180830381865afa158015611018573d6000803e3d6000fd5b505050506040513d601f19601f8201168201806040525081019061103c919061524b565b9a509a509a5050995099509950995099509950995060006017600e0160009054906101000a90046001600160401b03169050601773ce4b16b81A28d785FEEB7b1D56a9B97d450D3443634569ab88909161109560465490565b6040516001600160e01b031960e085901b1681526004810192909252602482015260440160006040518083038186803b1580156110d157600080fd5b505af41580156110e5573d6000803e3d6000fd5b505060455460405163c3b5ffc960e01b81526001600160a01b03909116925063c3b5ffc99150610b1b908e908e908e908e908e908e908e908b908f908f908f90600401615331565b6000546001600160a01b031633146111575760405162461bcd60e51b81526004016108fd90615200565b6000806000604560009054906101000a90046001600160a01b03166001600160a01b03166375b922d16040518163ffffffff1660e01b8152600401608060405180830381865afa1580156111af573d6000803e3d6000fd5b505050506040513d601f19601f820116820180604052508101906111d39190615496565b603b805493975091955093506001600160601b03909116915073ce4b16b81A28d785FEEB7b1D56a9B97d450D344390638f2ca6459061121160465490565b6040516001600160e01b031960e085901b1681526004810192909252602482015260440160006040518083038186803b15801561124d57600080fd5b505af4158015611261573d6000803e3d6000fd5b505060455460405163dc49117b60e01b81526001600160a01b03909116925063dc49117b915061129b9084908890889088906004016154f5565b600060405180830381600087803b1580156112b557600080fd5b505af11580156112c9573d6000803e3d6000fd5b5050505050505050565b6000546001600160a01b031633146112fd5760405162461bcd60e51b81526004016108fd90615200565b604051632eed92d760e21b8152600960048201526001600160601b038216602482015273ce4b16b81A28d785FEEB7b1D56a9B97d450D34439063bbb64b5c90604401610949565b6000546001600160a01b0316331461136e5760405162461bcd60e51b81526004016108fd90615200565b6040516374b0fecf60e11b8152602d60048201526001600160401b038216602482015273ce4b16b81A28d785FEEB7b1D56a9B97d450D34439063e961fd9e90604401610949565b6000546001600160a01b031633146113df5760405162461bcd60e51b81526004016108fd90615200565b600080600080600080604560009054906101000a90046001600160a01b03166001600160a01b03166361ccf97a6040518163ffffffff1660e01b815260040160e060405180830381865afa15801561143b573d6000803e3d6000fd5b505050506040513d601f19601f8201168201806040525081019061145f9190615525565b603554969c50949a509298509096509094509092505063ffffffff1673ce4b16b81A28d785FEEB7b1D56a9B97d450D34436305be330f602d6114a060465490565b6040516001600160e01b031960e085901b1681526004810192909252602482015260440160006040518083038186803b1580156114dc57600080fd5b505af41580156114f0573d6000803e3d6000fd5b505060455460405163883d6a1160e01b81526001600160a01b03909116925063883d6a119150610edf908a908a908a908a9088908b908b906004016155a0565b6000546001600160a01b0316331461155a5760405162461bcd60e51b81526004016108fd90615200565b6048546115a05760405162461bcd60e51b815260206004820152601460248201527310da185b99d9481b9bdd081a5b9a5d1a585d195960621b60448201526064016108fd565b6046546048546115b090426155e7565b116115fd5760405162461bcd60e51b815260206004820181905260248201527f476f7665726e616e63652064656c617920686173206e6f7420656c617073656460448201526064016108fd565b60478054604655600090819055604855565b6000546001600160a01b031633146116395760405162461bcd60e51b81526004016108fd90615200565b600080600080600080604560009054906101000a90046001600160a01b03166001600160a01b03166361ccf97a6040518163ffffffff1660e01b815260040160e060405180830381865afa158015611695573d6000803e3d6000fd5b505050506040513d601f19601f820116820180604052508101906116b99190615525565b603354969c50949a509298509650909450909250506001600160401b031673ce4b16b81A28d785FEEB7b1D56a9B97d450D3443633861f138602d6116fc60465490565b6040516001600160e01b031960e085901b1681526004810192909252602482015260440160006040518083038186803b15801561173857600080fd5b505af415801561174c573d6000803e3d6000fd5b505060455460405163883d6a1160e01b81526001600160a01b03909116925063883d6a119150610edf908a908a908a9087908b908b908b906004016155a0565b6000546001600160a01b031633146117b65760405162461bcd60e51b81526004016108fd90615200565b604051639707e9ad60e01b81526017600482015263ffffffff8216602482015273ce4b16b81A28d785FEEB7b1D56a9B97d450D344390639707e9ad90604401610949565b6000546001600160a01b031633146118245760405162461bcd60e51b81526004016108fd90615200565b6000806000604560009054906101000a90046001600160a01b03166001600160a01b031663c42b64d06040518163ffffffff1660e01b8152600401608060405180830381865afa15801561187c573d6000803e3d6000fd5b505050506040513d601f19601f820116820180604052508101906118a0919061560e565b50600754929550909350915063ffffffff1673ce4b16b81A28d785FEEB7b1D56a9B97d450D3443632520e8bf60016118d760465490565b6040516001600160e01b031960e085901b1681526004810192909252602482015260440160006040518083038186803b15801561191357600080fd5b505af4158015611927573d6000803e3d6000fd5b5050604554604051633832650760e01b81526001600160a01b0390911692506338326507915061129b908790879087908790600401615651565b6000546001600160a01b0316331461198b5760405162461bcd60e51b81526004016108fd90615200565b600080600080600080600080600080604560009054906101000a90046001600160a01b03166001600160a01b031663be05abe36040518163ffffffff1660e01b815260040161016060405180830381865afa1580156119ee573d6000803e3d6000fd5b505050506040513d601f19601f82011682018060405250810190611a12919061524b565b9a509a509a509a509a509a509a509a509a505099506000601760020160009054906101000a90046001600160401b03169050601773ce4b16b81A28d785FEEB7b1D56a9B97d450D344363d6964b979091611a6b60465490565b6040516001600160e01b031960e085901b1681526004810192909252602482015260440160006040518083038186803b158015611aa757600080fd5b505af4158015611abb573d6000803e3d6000fd5b505060455460405163c3b5ffc960e01b81526001600160a01b03909116925063c3b5ffc99150610b1b908e9085908f908f908f908f908f908f908f908f908f90600401615331565b6000546001600160a01b03163314611b2d5760405162461bcd60e51b81526004016108fd90615200565b600080600080600080604560009054906101000a90046001600160a01b03166001600160a01b0316636e70ce416040518163ffffffff1660e01b815260040160e060405180830381865afa158015611b89573d6000803e3d6000fd5b505050506040513d601f19601f82011682018060405250810190611bad91906153ab565b60098054969d50949b50929950909750955093506001600160401b03909116915073ce4b16b81A28d785FEEB7b1D56a9B97d450D34439063ec9f476090611bf360465490565b6040516001600160e01b031960e085901b1681526004810192909252602482015260440160006040518083038186803b158015611c2f57600080fd5b505af4158015611c43573d6000803e3d6000fd5b505060455460405163b5da217160e01b81526001600160a01b03909116925063b5da21719150610edf9084908b908b908b908b908b908b90600401615447565b6000546001600160a01b03163314611cad5760405162461bcd60e51b81526004016108fd90615200565b60475542604855565b6000546001600160a01b03163314611ce05760405162461bcd60e51b81526004016108fd90615200565b6000806000604560009054906101000a90046001600160a01b03166001600160a01b031663c42b64d06040518163ffffffff1660e01b8152600401608060405180830381865afa158015611d38573d6000803e3d6000fd5b505050506040513d601f19601f82011682018060405250810190611d5c919061560e565b6001805493975091955093506001600160401b03909116915073ce4b16b81A28d785FEEB7b1D56a9B97d450D34439063ae25638390611d9a60465490565b6040516001600160e01b031960e085901b1681526004810192909252602482015260440160006040518083038186803b158015611dd657600080fd5b505af4158015611dea573d6000803e3d6000fd5b5050604554604051633832650760e01b81526001600160a01b0390911692506338326507915061129b908490889088908890600401615651565b6000546001600160a01b03163314611e4e5760405162461bcd60e51b81526004016108fd90615200565b6040516368af502160e01b8152600960048201526001600160401b038216602482015273ce4b16b81A28d785FEEB7b1D56a9B97d450D3443906368af502190604401610949565b6000546001600160a01b03163314611ebf5760405162461bcd60e51b81526004016108fd90615200565b604051630ac6330760e11b8152600160048201526001600160401b038216602482015273ce4b16b81A28d785FEEB7b1D56a9B97d450D34439063158c660e90604401610949565b6000546001600160a01b03163314611f305760405162461bcd60e51b81526004016108fd90615200565b6040516319de06fb60e31b8152600160048201526001600160401b038216602482015273ce4b16b81A28d785FEEB7b1D56a9B97d450D34439063cef037d890604401610949565b6000546001600160a01b03163314611fa15760405162461bcd60e51b81526004016108fd90615200565b604051620f049d60ea1b8152600960048201526001600160401b038216602482015273ce4b16b81A28d785FEEB7b1D56a9B97d450D344390633c12740090604401610949565b6000546001600160a01b031633146120115760405162461bcd60e51b81526004016108fd90615200565b600080600080600080604560009054906101000a90046001600160a01b03166001600160a01b0316636e70ce416040518163ffffffff1660e01b815260040160e060405180830381865afa15801561206d573d6000803e3d6000fd5b505050506040513d601f19601f8201168201806040525081019061209191906153ab565b600d54969c50949a5091985096509450909250506001600160401b031673ce4b16b81A28d785FEEB7b1D56a9B97d450D3443639232db3f60096120d360465490565b6040516001600160e01b031960e085901b1681526004810192909252602482015260440160006040518083038186803b15801561210f57600080fd5b505af4158015612123573d6000803e3d6000fd5b505060455460405163b5da217160e01b81526001600160a01b03909116925063b5da21719150610edf908a908a9086908b908b908b908b90600401615447565b6000546001600160a01b0316331461218d5760405162461bcd60e51b81526004016108fd90615200565b6000806000604560009054906101000a90046001600160a01b03166001600160a01b03166375b922d16040518163ffffffff1660e01b8152600401608060405180830381865afa1580156121e5573d6000803e3d6000fd5b505050506040513d601f19601f820116820180604052508101906122099190615496565b50604154929550909350915063ffffffff1673ce4b16b81A28d785FEEB7b1D56a9B97d450D3443630c4e5686603b61224060465490565b6040516001600160e01b031960e085901b1681526004810192909252602482015260440160006040518083038186803b15801561227c57600080fd5b505af4158015612290573d6000803e3d6000fd5b505060455460405163dc49117b60e01b81526001600160a01b03909116925063dc49117b915061129b9087908790879087906004016154f5565b6000546001600160a01b031633146122f45760405162461bcd60e51b81526004016108fd90615200565b604051633964f6cb60e11b8152601760048201526001600160401b038216602482015273ce4b16b81A28d785FEEB7b1D56a9B97d450D3443906372c9ed9690604401610949565b6000546001600160a01b031633146123655760405162461bcd60e51b81526004016108fd90615200565b604051636312276d60e11b81526017600482015263ffffffff8216602482015273ce4b16b81A28d785FEEB7b1D56a9B97d450D34439063c6244eda90604401610949565b6000546001600160a01b031633146123d35760405162461bcd60e51b81526004016108fd90615200565b604051632d453d5760e01b8152603b600482015263ffffffff8216602482015273ce4b16b81A28d785FEEB7b1D56a9B97d450D344390632d453d5790604401610949565b6000546001600160a01b031633146124415760405162461bcd60e51b81526004016108fd90615200565b6040516377b3952360e11b8152600960048201526001600160401b038216602482015273ce4b16b81A28d785FEEB7b1D56a9B97d450D34439063ef672a4690604401610949565b6000546001600160a01b031633146124b25760405162461bcd60e51b81526004016108fd90615200565b60405163382c42c560e11b8152603b600482015263ffffffff8216602482015273ce4b16b81A28d785FEEB7b1D56a9B97d450D344390637058858a90604401610949565b6000546001600160a01b031633146125205760405162461bcd60e51b81526004016108fd90615200565b60405163730d3c4360e11b81526009600482015263ffffffff8216602482015273ce4b16b81A28d785FEEB7b1D56a9B97d450D34439063e61a788690604401610949565b6000546001600160a01b0316331461258e5760405162461bcd60e51b81526004016108fd90615200565b600080600080600080600080600080604560009054906101000a90046001600160a01b03166001600160a01b031663be05abe36040518163ffffffff1660e01b815260040161016060405180830381865afa1580156125f1573d6000803e3d6000fd5b505050506040513d601f19601f82011682018060405250810190612615919061524b565b9a509a509a509a505099509950995099509950995060006017600c0160009054906101000a900461ffff169050601773ce4b16b81A28d785FEEB7b1D56a9B97d450D344363d7e1b317909161266960465490565b6040516001600160e01b031960e085901b1681526004810192909252602482015260440160006040518083038186803b1580156126a557600080fd5b505af41580156126b9573d6000803e3d6000fd5b505060455460405163c3b5ffc960e01b81526001600160a01b03909116925063c3b5ffc99150610b1b908e908e908e908e908e908e908a908f908f908f908f90600401615331565b6000546001600160a01b0316331461272b5760405162461bcd60e51b81526004016108fd90615200565b604554604051635f2b2d0d60e01b81526001600160a01b038481166004830152831515602483015290911690635f2b2d0d906044015b600060405180830381600087803b15801561277b57600080fd5b505af115801561278f573d6000803e3d6000fd5b505050505050565b6000546001600160a01b031633146127c15760405162461bcd60e51b81526004016108fd90615200565b600080600080600080604560009054906101000a90046001600160a01b03166001600160a01b0316636e70ce416040518163ffffffff1660e01b815260040160e060405180830381865afa15801561281d573d6000803e3d6000fd5b505050506040513d601f19601f8201168201806040525081019061284191906153ab565b600f54969c50949a509298509650909450909250506001600160401b031673ce4b16b81A28d785FEEB7b1D56a9B97d450D3443638a346d4d600961288460465490565b6040516001600160e01b031960e085901b1681526004810192909252602482015260440160006040518083038186803b1580156128c057600080fd5b505af41580156128d4573d6000803e3d6000fd5b505060455460405163b5da217160e01b81526001600160a01b03909116925063b5da21719150610edf908a908a908a9087908b908b908b90600401615447565b6000546001600160a01b0316331461293e5760405162461bcd60e51b81526004016108fd90615200565b600080600080600080600080600080604560009054906101000a90046001600160a01b03166001600160a01b031663be05abe36040518163ffffffff1660e01b815260040161016060405180830381865afa1580156129a1573d6000803e3d6000fd5b505050506040513d601f19601f820116820180604052508101906129c5919061524b565b9a509a509a509a509a50509950995099509950995060006017600a0160009054906101000a900463ffffffff169050601773ce4b16b81A28d785FEEB7b1D56a9B97d450D3443631b3f064f9091612a1b60465490565b6040516001600160e01b031960e085901b1681526004810192909252602482015260440160006040518083038186803b158015612a5757600080fd5b505af4158015612a6b573d6000803e3d6000fd5b505060455460405163c3b5ffc960e01b81526001600160a01b03909116925063c3b5ffc99150610b1b908e908e908e908e908e9089908f908f908f908f908f90600401615331565b6000546001600160a01b03163314612add5760405162461bcd60e51b81526004016108fd90615200565b600060495411612b265760405162461bcd60e51b815260206004820152601460248201527310da185b99d9481b9bdd081a5b9a5d1a585d195960621b60448201526064016108fd565b604654604954612b3690426155e7565b1015612b845760405162461bcd60e51b815260206004820181905260248201527f476f7665726e616e63652064656c617920686173206e6f7420656c617073656460448201526064016108fd565b604554604a546040516334e2fffd60e21b81526001600160a01b03918216600482015291169063d38bfff490602401600060405180830381600087803b158015612bcd57600080fd5b505af1158015612be1573d6000803e3d6000fd5b505060006049555050604a80546001600160a01b0319169055565b6000546001600160a01b03163314612c265760405162461bcd60e51b81526004016108fd90615200565b604554604051631835c4bf60e21b81526001600160a01b0384811660048301528315156024830152909116906360d712fc90604401612761565b6000546001600160a01b03163314612c8a5760405162461bcd60e51b81526004016108fd90615200565b600080600080600080604560009054906101000a90046001600160a01b03166001600160a01b03166361ccf97a6040518163ffffffff1660e01b815260040160e060405180830381865afa158015612ce6573d6000803e3d6000fd5b505050506040513d601f19601f82011682018060405250810190612d0a9190615525565b50603954959b5093995091975095509350915063ffffffff1673ce4b16b81A28d785FEEB7b1D56a9B97d450D344363dbf83803602d612d4860465490565b6040516001600160e01b031960e085901b1681526004810192909252602482015260440160006040518083038186803b158015612d8457600080fd5b505af4158015612d98573d6000803e3d6000fd5b505060455460405163883d6a1160e01b81526001600160a01b03909116925063883d6a119150610edf908a908a908a908a908a908a908a906004016155a0565b6000546001600160a01b03163314612e025760405162461bcd60e51b81526004016108fd90615200565b6040516323d4f60160e21b8152601760048201526001600160401b038216602482015273ce4b16b81A28d785FEEB7b1D56a9B97d450D344390638f53d80490604401610949565b6000546001600160a01b03163314612e735760405162461bcd60e51b81526004016108fd90615200565b600080600080600080604560009054906101000a90046001600160a01b03166001600160a01b0316636e70ce416040518163ffffffff1660e01b815260040160e060405180830381865afa158015612ecf573d6000803e3d6000fd5b505050506040513d601f19601f82011682018060405250810190612ef391906153ab565b601354969c50949a509298509096509450909250506001600160601b031673ce4b16b81A28d785FEEB7b1D56a9B97d450D344363f818e43c6009612f3660465490565b6040516001600160e01b031960e085901b1681526004810192909252602482015260440160006040518083038186803b158015612f7257600080fd5b505af4158015612f86573d6000803e3d6000fd5b505060455460405163b5da217160e01b81526001600160a01b03909116925063b5da21719150610edf908a908a908a908a908a9089908b90600401615447565b60468160038110612fd657600080fd5b0154905081565b6000546001600160a01b031633146130075760405162461bcd60e51b81526004016108fd90615200565b60405163f543e37d60e01b8152602d60048201526001600160401b038216602482015273ce4b16b81A28d785FEEB7b1D56a9B97d450D34439063f543e37d90604401610949565b6000546001600160a01b031633146130785760405162461bcd60e51b81526004016108fd90615200565b613082600061505d565b565b6000546001600160a01b031633146130ae5760405162461bcd60e51b81526004016108fd90615200565b6000806000604560009054906101000a90046001600160a01b03166001600160a01b03166375b922d16040518163ffffffff1660e01b8152600401608060405180830381865afa158015613106573d6000803e3d6000fd5b505050506040513d601f19601f8201168201806040525081019061312a9190615496565b603d5493965090945092505063ffffffff1673ce4b16b81A28d785FEEB7b1D56a9B97d450D344363d2a27c33603b61316160465490565b6040516001600160e01b031960e085901b1681526004810192909252602482015260440160006040518083038186803b15801561319d57600080fd5b505af41580156131b1573d6000803e3d6000fd5b505060455460405163dc49117b60e01b81526001600160a01b03909116925063dc49117b915061129b9087908590889088906004016154f5565b6000546001600160a01b031633146132155760405162461bcd60e51b81526004016108fd90615200565b6040516353cf6f6560e01b81526001600482015263ffffffff8216602482015273ce4b16b81A28d785FEEB7b1D56a9B97d450D3443906353cf6f6590604401610949565b6000546001600160a01b031633146132835760405162461bcd60e51b81526004016108fd90615200565b600080600080600080600080600080604560009054906101000a90046001600160a01b03166001600160a01b031663be05abe36040518163ffffffff1660e01b815260040161016060405180830381865afa1580156132e6573d6000803e3d6000fd5b505050506040513d601f19601f8201168201806040525081019061330a919061524b565b9a509a509a509a509a509a509a509a5050995099506000601760040160009054906101000a900463ffffffff169050601773ce4b16b81A28d785FEEB7b1D56a9B97d450D34436351a3d06e909161336060465490565b6040516001600160e01b031960e085901b1681526004810192909252602482015260440160006040518083038186803b15801561339c57600080fd5b505af41580156133b0573d6000803e3d6000fd5b505060455460405163c3b5ffc960e01b81526001600160a01b03909116925063c3b5ffc99150610b1b908e908e9086908f908f908f908f908f908f908f908f90600401615331565b6000546001600160a01b031633146134225760405162461bcd60e51b81526004016108fd90615200565b60405163126e077960e31b81526017600482015263ffffffff8216602482015273ce4b16b81A28d785FEEB7b1D56a9B97d450D3443906393703bc890604401610949565b6000546001600160a01b031633146134905760405162461bcd60e51b81526004016108fd90615200565b6000806000604560009054906101000a90046001600160a01b03166001600160a01b031663c42b64d06040518163ffffffff1660e01b8152600401608060405180830381865afa1580156134e8573d6000803e3d6000fd5b505050506040513d601f19601f8201168201806040525081019061350c919061560e565b600554939650919450909250506001600160401b031673ce4b16b81A28d785FEEB7b1D56a9B97d450D34436368decba2600161354760465490565b6040516001600160e01b031960e085901b1681526004810192909252602482015260440160006040518083038186803b15801561358357600080fd5b505af4158015613597573d6000803e3d6000fd5b5050604554604051633832650760e01b81526001600160a01b0390911692506338326507915061129b908790879086908890600401615651565b6000546001600160a01b031633146135fb5760405162461bcd60e51b81526004016108fd90615200565b6040516322b8310d60e21b8152601760048201526001600160601b038216602482015273ce4b16b81A28d785FEEB7b1D56a9B97d450D344390638ae0c43490604401610949565b6000546001600160a01b0316331461366c5760405162461bcd60e51b81526004016108fd90615200565b604a80546001600160a01b0319166001600160a01b0383169081179091554260498190556040805192835260208301919091527f24973178c1aef0f16b3490f7b45109bb38df71d627a7ed575597447150837881910160405180910390a150565b6000546001600160a01b031633146136f75760405162461bcd60e51b81526004016108fd90615200565b6040516336cdaf1960e11b81526017600482015261ffff8216602482015273ce4b16b81A28d785FEEB7b1D56a9B97d450D344390636d9b5e3290604401610949565b6000546001600160a01b031633146137635760405162461bcd60e51b81526004016108fd90615200565b6000806000604560009054906101000a90046001600160a01b03166001600160a01b031663c42b64d06040518163ffffffff1660e01b8152600401608060405180830381865afa1580156137bb573d6000803e3d6000fd5b505050506040513d601f19601f820116820180604052508101906137df919061560e565b6003549396509094509250506001600160401b031673ce4b16b81A28d785FEEB7b1D56a9B97d450D344363362c2372600161381960465490565b6040516001600160e01b031960e085901b1681526004810192909252602482015260440160006040518083038186803b15801561385557600080fd5b505af4158015613869573d6000803e3d6000fd5b5050604554604051633832650760e01b81526001600160a01b0390911692506338326507915061129b908790859088908890600401615651565b6000546001600160a01b031633146138cd5760405162461bcd60e51b81526004016108fd90615200565b600080600080600080604560009054906101000a90046001600160a01b03166001600160a01b03166361ccf97a6040518163ffffffff1660e01b815260040160e060405180830381865afa158015613929573d6000803e3d6000fd5b505050506040513d601f19601f8201168201806040525081019061394d9190615525565b602d8054969d50949b509299509097509550935063ffffffff909116915073ce4b16b81A28d785FEEB7b1D56a9B97d450D34439063a62029f69061399060465490565b6040516001600160e01b031960e085901b1681526004810192909252602482015260440160006040518083038186803b1580156139cc57600080fd5b505af41580156139e0573d6000803e3d6000fd5b505060455460405163883d6a1160e01b81526001600160a01b03909116925063883d6a119150610edf9084908b908b908b908b908b908b906004016155a0565b6000546001600160a01b03163314613a4a5760405162461bcd60e51b81526004016108fd90615200565b604051631323ffb160e11b81526017600482015263ffffffff8216602482015273ce4b16b81A28d785FEEB7b1D56a9B97d450D344390632647ff6290604401610949565b6000546001600160a01b03163314613ab85760405162461bcd60e51b81526004016108fd90615200565b600080600080600080600080600080604560009054906101000a90046001600160a01b03166001600160a01b031663be05abe36040518163ffffffff1660e01b815260040161016060405180830381865afa158015613b1b573d6000803e3d6000fd5b505050506040513d601f19601f82011682018060405250810190613b3f919061524b565b9a50509950995099509950995099509950995099506000601760120160009054906101000a90046001600160601b03169050601773ce4b16b81A28d785FEEB7b1D56a9B97d450D3443636d5be9be9091613b9860465490565b6040516001600160e01b031960e085901b1681526004810192909252602482015260440160006040518083038186803b158015613bd457600080fd5b505af4158015613be8573d6000803e3d6000fd5b505060455460405163c3b5ffc960e01b81526001600160a01b03909116925063c3b5ffc99150610b1b908e908e908e908e908e908e908e908e908e908d908f90600401615331565b6000546001600160a01b03163314613c5a5760405162461bcd60e51b81526004016108fd90615200565b60405163a6b0e7bd60e01b81526017600482015263ffffffff8216602482015273ce4b16b81A28d785FEEB7b1D56a9B97d450D34439063a6b0e7bd90604401610949565b6000546001600160a01b03163314613cc85760405162461bcd60e51b81526004016108fd90615200565b604051620c4fa760ea1b8152602d600482015263ffffffff8216602482015273ce4b16b81A28d785FEEB7b1D56a9B97d450D34439063313e9c0090604401610949565b6000546001600160a01b03163314613d355760405162461bcd60e51b81526004016108fd90615200565b6040516391346cbb60e01b8152602d60048201526001600160401b038216602482015273ce4b16b81A28d785FEEB7b1D56a9B97d450D3443906391346cbb90604401610949565b6000546001600160a01b03163314613da65760405162461bcd60e51b81526004016108fd90615200565b6040516304b8e2eb60e01b8152602d60048201526001600160401b038216602482015273ce4b16b81A28d785FEEB7b1D56a9B97d450D3443906304b8e2eb90604401610949565b6000546001600160a01b03163314613e175760405162461bcd60e51b81526004016108fd90615200565b600080600080600080600080600080604560009054906101000a90046001600160a01b03166001600160a01b031663be05abe36040518163ffffffff1660e01b815260040161016060405180830381865afa158015613e7a573d6000803e3d6000fd5b505050506040513d601f19601f82011682018060405250810190613e9e919061524b565b9a509a509a509a509a509a509a509a509a509a50506000601760000160009054906101000a90046001600160401b03169050601773ce4b16b81A28d785FEEB7b1D56a9B97d450D3443630b5a08ed9091613ef760465490565b6040516001600160e01b031960e085901b1681526004810192909252602482015260440160006040518083038186803b158015613f3357600080fd5b505af4158015613f47573d6000803e3d6000fd5b505060455460405163c3b5ffc960e01b81526001600160a01b03909116925063c3b5ffc99150610b1b9084908f908f908f908f908f908f908f908f908f908f90600401615331565b6000546001600160a01b03163314613fb95760405162461bcd60e51b81526004016108fd90615200565b600080600080600080604560009054906101000a90046001600160a01b03166001600160a01b03166361ccf97a6040518163ffffffff1660e01b815260040160e060405180830381865afa158015614015573d6000803e3d6000fd5b505050506040513d601f19601f820116820180604052508101906140399190615525565b603154969c50949a5091985096509450909250506001600160401b031673ce4b16b81A28d785FEEB7b1D56a9B97d450D344363f08cac39602d61407b60465490565b6040516001600160e01b031960e085901b1681526004810192909252602482015260440160006040518083038186803b1580156140b757600080fd5b505af41580156140cb573d6000803e3d6000fd5b505060455460405163883d6a1160e01b81526001600160a01b03909116925063883d6a119150610edf908a908a9086908b908b908b908b906004016155a0565b6000546001600160a01b031633146141355760405162461bcd60e51b81526004016108fd90615200565b600080600080600080600080600080604560009054906101000a90046001600160a01b03166001600160a01b031663be05abe36040518163ffffffff1660e01b815260040161016060405180830381865afa158015614198573d6000803e3d6000fd5b505050506040513d601f19601f820116820180604052508101906141bc919061524b565b9a509a509a509a509a509a505099509950995099506000601760080160009054906101000a90046001600160601b03169050601773ce4b16b81A28d785FEEB7b1D56a9B97d450D344363ffbe0627909161421560465490565b6040516001600160e01b031960e085901b1681526004810192909252602482015260440160006040518083038186803b15801561425157600080fd5b505af4158015614265573d6000803e3d6000fd5b505060455460405163c3b5ffc960e01b81526001600160a01b03909116925063c3b5ffc99150610b1b908e908e908e908e9088908f908f908f908f908f908f90600401615331565b6000546001600160a01b031633146142d75760405162461bcd60e51b81526004016108fd90615200565b604051630b56b11560e41b8152604360048201526001600160a01b038216602482015273ce4b16b81A28d785FEEB7b1D56a9B97d450D34439063b56b115090604401610949565b6000546001600160a01b031633146143485760405162461bcd60e51b81526004016108fd90615200565b604051638a397dd760e01b8152603b60048201526001600160601b038216602482015273ce4b16b81A28d785FEEB7b1D56a9B97d450D344390638a397dd790604401610949565b6000546001600160a01b031633146143b95760405162461bcd60e51b81526004016108fd90615200565b6040516301d2d6f160e51b8152601760048201526001600160401b038216602482015273ce4b16b81A28d785FEEB7b1D56a9B97d450D344390633a5ade2090604401610949565b6000546001600160a01b0316331461442a5760405162461bcd60e51b81526004016108fd90615200565b604380546001600160a01b03169073ce4b16b81A28d785FEEB7b1D56a9B97d450D344390634a46b8339061445d60465490565b6040516001600160e01b031960e085901b1681526004810192909252602482015260440160006040518083038186803b15801561449957600080fd5b505af41580156144ad573d6000803e3d6000fd5b5050604554604051637f51bb1f60e01b81526001600160a01b0385811660048301529091169250637f51bb1f9150602401600060405180830381600087803b1580156144f857600080fd5b505af1158015610975573d6000803e3d6000fd5b6000546001600160a01b031633146145365760405162461bcd60e51b81526004016108fd90615200565b60405163e37b9e1b60e01b8152602d600482015263ffffffff8216602482015273ce4b16b81A28d785FEEB7b1D56a9B97d450D34439063e37b9e1b90604401610949565b6000546001600160a01b031633146145a45760405162461bcd60e51b81526004016108fd90615200565b600080600080600080604560009054906101000a90046001600160a01b03166001600160a01b0316636e70ce416040518163ffffffff1660e01b815260040160e060405180830381865afa158015614600573d6000803e3d6000fd5b505050506040513d601f19601f8201168201806040525081019061462491906153ab565b601154969c50949a509298509096509094509092505063ffffffff1673ce4b16b81A28d785FEEB7b1D56a9B97d450D344363a48814a5600961466560465490565b6040516001600160e01b031960e085901b1681526004810192909252602482015260440160006040518083038186803b1580156146a157600080fd5b505af41580156146b5573d6000803e3d6000fd5b505060455460405163b5da217160e01b81526001600160a01b03909116925063b5da21719150610edf908a908a908a908a9088908b908b90600401615447565b6000546001600160a01b0316331461471f5760405162461bcd60e51b81526004016108fd90615200565b6040516383eb9c5960e01b81526009600482015263ffffffff8216602482015273ce4b16b81A28d785FEEB7b1D56a9B97d450D3443906383eb9c5990604401610949565b6000546001600160a01b0316331461478d5760405162461bcd60e51b81526004016108fd90615200565b600080600080600080604560009054906101000a90046001600160a01b03166001600160a01b0316636e70ce416040518163ffffffff1660e01b815260040160e060405180830381865afa1580156147e9573d6000803e3d6000fd5b505050506040513d601f19601f8201168201806040525081019061480d91906153ab565b600b54969c50939a50919850965094509250506001600160401b031673ce4b16b81A28d785FEEB7b1D56a9B97d450D344363c4faa867600961484e60465490565b6040516001600160e01b031960e085901b1681526004810192909252602482015260440160006040518083038186803b15801561488a57600080fd5b505af415801561489e573d6000803e3d6000fd5b505060455460405163b5da217160e01b81526001600160a01b03909116925063b5da21719150610edf908a9085908b908b908b908b908b90600401615447565b6000546001600160a01b031633146149085760405162461bcd60e51b81526004016108fd90615200565b60405163128c836760e21b8152601760048201526001600160601b038216602482015273ce4b16b81A28d785FEEB7b1D56a9B97d450D344390634a320d9c90604401610949565b6000546001600160a01b031633146149795760405162461bcd60e51b81526004016108fd90615200565b6001600160a01b0381166149de5760405162461bcd60e51b815260206004820152602660248201527f4f776e61626c653a206e6577206f776e657220697320746865207a65726f206160448201526564647265737360d01b60648201526084016108fd565b6149e78161505d565b50565b6000546001600160a01b03163314614a145760405162461bcd60e51b81526004016108fd90615200565b600080600080600080600080600080604560009054906101000a90046001600160a01b03166001600160a01b031663be05abe36040518163ffffffff1660e01b815260040161016060405180830381865afa158015614a77573d6000803e3d6000fd5b505050506040513d601f19601f82011682018060405250810190614a9b919061524b565b9a509a509a509a509a509a509a50509950995099506000601760060160009054906101000a900463ffffffff169050601773ce4b16b81A28d785FEEB7b1D56a9B97d450D344363dcce6cc89091614af160465490565b6040516001600160e01b031960e085901b1681526004810192909252602482015260440160006040518083038186803b158015614b2d57600080fd5b505af4158015614b41573d6000803e3d6000fd5b505060455460405163c3b5ffc960e01b81526001600160a01b03909116925063c3b5ffc99150610b1b908e908e908e9087908f908f908f908f908f908f908f90600401615331565b6000546001600160a01b03163314614bb35760405162461bcd60e51b81526004016108fd90615200565b6000806000604560009054906101000a90046001600160a01b03166001600160a01b03166375b922d16040518163ffffffff1660e01b8152600401608060405180830381865afa158015614c0b573d6000803e3d6000fd5b505050506040513d601f19601f82011682018060405250810190614c2f9190615496565b603f54939650919450909250506001600160601b031673ce4b16b81A28d785FEEB7b1D56a9B97d450D344363a9e31763603b614c6a60465490565b6040516001600160e01b031960e085901b1681526004810192909252602482015260440160006040518083038186803b158015614ca657600080fd5b505af4158015614cba573d6000803e3d6000fd5b505060455460405163dc49117b60e01b81526001600160a01b03909116925063dc49117b915061129b9087908790869088906004016154f5565b6000546001600160a01b03163314614d1e5760405162461bcd60e51b81526004016108fd90615200565b600080600080600080604560009054906101000a90046001600160a01b03166001600160a01b03166361ccf97a6040518163ffffffff1660e01b815260040160e060405180830381865afa158015614d7a573d6000803e3d6000fd5b505050506040513d601f19601f82011682018060405250810190614d9e9190615525565b603754969c50949a509298509096509450909250506001600160401b031673ce4b16b81A28d785FEEB7b1D56a9B97d450D344363af11623a602d614de160465490565b6040516001600160e01b031960e085901b1681526004810192909252602482015260440160006040518083038186803b158015614e1d57600080fd5b505af4158015614e31573d6000803e3d6000fd5b505060455460405163883d6a1160e01b81526001600160a01b03909116925063883d6a119150610edf908a908a908a908a908a9089908b906004016155a0565b6000546001600160a01b03163314614e9b5760405162461bcd60e51b81526004016108fd90615200565b60405163baa9397360e01b8152600960048201526001600160401b038216602482015273ce4b16b81A28d785FEEB7b1D56a9B97d450D34439063baa9397390604401610949565b6000546001600160a01b03163314614f0c5760405162461bcd60e51b81526004016108fd90615200565b600080600080600080604560009054906101000a90046001600160a01b03166001600160a01b03166361ccf97a6040518163ffffffff1660e01b815260040160e060405180830381865afa158015614f68573d6000803e3d6000fd5b505050506040513d601f19601f82011682018060405250810190614f8c9190615525565b602f54969c50939a50919850965094509250506001600160401b031673ce4b16b81A28d785FEEB7b1D56a9B97d450D34436381f5c03a602d614fcd60465490565b6040516001600160e01b031960e085901b1681526004810192909252602482015260440160006040518083038186803b15801561500957600080fd5b505af415801561501d573d6000803e3d6000fd5b505060455460405163883d6a1160e01b81526001600160a01b03909116925063883d6a119150610edf908a9085908b908b908b908b908b906004016155a0565b600080546001600160a01b038381166001600160a01b0319831681178455604051919092169283917f8be0079c531659141344cd1fd0a4f28419497f9722a3daafe3b4186f6b6457e09190a35050565b6001600160401b03811681146149e757600080fd5b6000602082840312156150d457600080fd5b81356150df816150ad565b9392505050565b63ffffffff811681146149e757600080fd5b60006020828403121561510a57600080fd5b81356150df816150e6565b6001600160601b03811681146149e757600080fd5b60006020828403121561513c57600080fd5b81356150df81615115565b60006020828403121561515957600080fd5b5035919050565b80356001600160a01b038116811461517757600080fd5b919050565b6000806040838503121561518f57600080fd5b61519883615160565b9150602083013580151581146151ad57600080fd5b809150509250929050565b6000602082840312156151ca57600080fd5b6150df82615160565b61ffff811681146149e757600080fd5b6000602082840312156151f557600080fd5b81356150df816151d3565b6020808252818101527f4f776e61626c653a2063616c6c6572206973206e6f7420746865206f776e6572604082015260600190565b8051615177816150e6565b805161517781615115565b60008060008060008060008060008060006101608c8e03121561526d57600080fd5b8b51615278816150ad565b60208d0151909b50615289816150ad565b60408d0151909a5061529a816150e6565b60608d01519099506152ab816150e6565b60808d01519098506152bc81615115565b60a08d01519097506152cd816150e6565b60c08d01519096506152de816151d3565b60e08d01519095506152ef816150ad565b6101008d0151909450615301816150e6565b92506153106101208d01615240565b915061531f6101408d01615235565b90509295989b509295989b9093969950565b6001600160401b039b8c168152998b1660208b015263ffffffff98891660408b015296881660608a01526001600160601b0395861660808a015293871660a089015261ffff9290921660c088015290961660e086015294831661010085015293909316610120830152919091166101408201526101600190565b600080600080600080600060e0888a0312156153c657600080fd5b87516153d1816150ad565b60208901519097506153e2816150ad565b60408901519096506153f3816150ad565b6060890151909550615404816150ad565b6080890151909450615415816150e6565b60a089015190935061542681615115565b60c0890151909250615437816150e6565b8091505092959891949750929550565b6001600160401b0397881681529587166020870152938616604086015291909416606084015263ffffffff93841660808401526001600160601b031660a083015290911660c082015260e00190565b600080600080608085870312156154ac57600080fd5b84516154b781615115565b60208601519094506154c8816150e6565b60408601519093506154d981615115565b60608601519092506154ea816150e6565b939692955090935050565b6001600160601b03948516815263ffffffff93841660208201529190931660408201529116606082015260800190565b600080600080600080600060e0888a03121561554057600080fd5b875161554b816150e6565b602089015190975061555c816150ad565b604089015190965061556d816150ad565b606089015190955061557e816150ad565b608089015190945061558f816150e6565b60a0890151909350615426816150ad565b63ffffffff97881681526001600160401b03968716602082015294861660408601529285166060850152908516608084015290921660a0820152911660c082015260e00190565b8181038181111561560857634e487b7160e01b600052601160045260246000fd5b92915050565b6000806000806080858703121561562457600080fd5b845161562f816150ad565b6020860151909450615640816150ad565b60408601519093506154d9816150ad565b6001600160401b03948516815292841660208401529216604082015263ffffffff90911660608201526080019056fea26469706673582212207da1d14d2f392e07b29827a404a981663e8cbd3c74887eb82fdd7004db28380564736f6c63430008110033",
  "deployedBytecode": "0x608060405234801561001057600080fd5b50600436106104755760003560e01c80636636b65511610257578063b372e40311610146578063dd6d0e68116100c3578063f44c0f3311610087578063f44c0f33146108a0578063f604f5d3146108a8578063f9f06a9a146108b0578063fabcb8fa146108b8578063fcbf9be7146108cb57600080fd5b8063dd6d0e6814610857578063e7c7c8c81461085f578063f00b17d414610872578063f039ee9a1461087a578063f2fde38b1461088d57600080fd5b8063caf0bc8f1161010a578063caf0bc8f14610803578063d1234d9514610816578063d25cb94614610829578063da7767981461083c578063dc46f09d1461084457600080fd5b8063b372e403146107c5578063c1104a2d146107d8578063c63cba46146107eb578063c789663b146107f3578063c79fb011146107fb57600080fd5b80638b18a505116101d457806397845cc41161019857806397845cc41461077c57806397fd27fc146107845780639b64dab814610797578063a85507251461079f578063aa4d9ccc146107b257600080fd5b80638b18a5051461072a5780638c382a531461073d5780638da5cb5b1461074657806390464a4414610761578063961312ce1461077457600080fd5b806371e7b6931161021b57806371e7b693146106e15780637256fde9146106f45780637318814c146106fc57806380b2f2db1461070f57806385082d2c1461071757600080fd5b80636636b6551461069057806368fcf2a8146106985780636a57a28b146106be578063715018a6146106d157806371c96758146106d957600080fd5b80633a1e363d116103735780634f5bfd2a116102f05780636015124b116102b45780636015124b14610652578063605da0531461065a57806360d712fc14610662578063625391f9146106755780636263b8831461067d57600080fd5b80634f5bfd2a14610609578063541d69871461061c5780635e3ef2c71461062f5780635f2b2d0d146106375780635faa6fa01461064a57600080fd5b8063480753671161033757806348075367146105b557806348dd7d66146105bd5780634abef7d4146105d05780634cf19dde146105e35780634e216f5f146105f657600080fd5b80633a1e363d146105615780634078dde01461057457806340c9ac421461058757806343b327c31461059a578063471c169f146105ad57600080fd5b806322f1d80a116104015780632df793c7116103c55780632df793c71461052e5780632eb97687146105365780632f65b50f1461053e57806337fa5d51146105465780633860c3571461055957600080fd5b806322f1d80a146104f057806324d6fa9d1461050357806326825a9d1461050b57806326c23dda1461051357806329d8c91d1461051b57600080fd5b806311f08c3e1161044857806311f08c3e146104b257806312864337146104ba57806315566135146104cd5780631b3d4e63146104d55780631fb738bb146104dd57600080fd5b806301a1f86f1461047a5780630403ac241461048f57806305a1d322146104975780630a303cd21461049f575b600080fd5b61048d6104883660046150c2565b6108d3565b005b61048d61097c565b61048d610b5a565b61048d6104ad3660046150f8565b610cf9565b61048d610d67565b61048d6104c836600461512a565b610f1a565b61048d610f8b565b61048d61112d565b61048d6104eb36600461512a565b6112d3565b61048d6104fe3660046150c2565b611344565b61048d6113b5565b61048d611530565b61048d61160f565b61048d6105293660046150f8565b61178c565b61048d6117fa565b61048d611961565b61048d611b03565b61048d610554366004615147565b611c83565b61048d611cb6565b61048d61056f3660046150c2565b611e24565b61048d6105823660046150c2565b611e95565b61048d6105953660046150c2565b611f06565b61048d6105a83660046150c2565b611f77565b61048d611fe7565b61048d612163565b61048d6105cb3660046150c2565b6122ca565b61048d6105de3660046150f8565b61233b565b61048d6105f13660046150f8565b6123a9565b61048d6106043660046150c2565b612417565b61048d6106173660046150f8565b612488565b61048d61062a3660046150f8565b6124f6565b61048d612564565b61048d61064536600461517c565b612701565b61048d612797565b61048d612914565b61048d612ab3565b61048d61067036600461517c565b612bfc565b61048d612c60565b61048d61068b3660046150c2565b612dd8565b61048d612e49565b6106ab6106a6366004615147565b612fc6565b6040519081526020015b60405180910390f35b61048d6106cc3660046150c2565b612fdd565b61048d61304e565b61048d613084565b61048d6106ef3660046150f8565b6131eb565b61048d613259565b61048d61070a3660046150f8565b6133f8565b61048d613466565b61048d61072536600461512a565b6135d1565b61048d6107383660046151b8565b613642565b6106ab60495481565b6000546040516001600160a01b0390911681526020016106b5565b61048d61076f3660046151e3565b6136cd565b61048d613739565b61048d6138a3565b61048d6107923660046150f8565b613a20565b61048d613a8e565b61048d6107ad3660046150f8565b613c30565b61048d6107c03660046150f8565b613c9e565b61048d6107d33660046150c2565b613d0b565b61048d6107e63660046150c2565b613d7c565b61048d613ded565b61048d613f8f565b61048d61410b565b61048d6108113660046151b8565b6142ad565b61048d61082436600461512a565b61431e565b61048d6108373660046150c2565b61438f565b61048d614400565b61048d6108523660046150f8565b61450c565b61048d61457a565b61048d61086d3660046150f8565b6146f5565b61048d614763565b61048d61088836600461512a565b6148de565b61048d61089b3660046151b8565b61494f565b61048d6149ea565b61048d614b89565b61048d614cf4565b61048d6108c63660046150c2565b614e71565b61048d614ee2565b6000546001600160a01b031633146109065760405162461bcd60e51b81526004016108fd90615200565b60405180910390fd5b6040516340834c5960e11b8152600160048201526001600160401b038216602482015273__$a76fe959a16b0ef92b5d2bd739d5cb0318$__9063810698b2906044015b60006040518083038186803b15801561096157600080fd5b505af4158015610975573d6000803e3d6000fd5b5050505050565b6000546001600160a01b031633146109a65760405162461bcd60e51b81526004016108fd90615200565b600080600080600080600080600080604560009054906101000a90046001600160a01b03166001600160a01b031663be05abe36040518163ffffffff1660e01b815260040161016060405180830381865afa158015610a09573d6000803e3d6000fd5b505050506040513d601f19601f82011682018060405250810190610a2d919061524b565b5099509950995099509950995099509950995099506000601760140160009054906101000a900463ffffffff169050601773__$a76fe959a16b0ef92b5d2bd739d5cb0318$__637d105c799091610a8360465490565b6040516001600160e01b031960e085901b1681526004810192909252602482015260440160006040518083038186803b158015610abf57600080fd5b505af4158015610ad3573d6000803e3d6000fd5b505060455460405163c3b5ffc960e01b81526001600160a01b03909116925063c3b5ffc99150610b1b908e908e908e908e908e908e908e908e908e908e908e90600401615331565b600060405180830381600087803b158015610b3557600080fd5b505af1158015610b49573d6000803e3d6000fd5b505050505050505050505050505050565b6000546001600160a01b03163314610b845760405162461bcd60e51b81526004016108fd90615200565b600080600080600080600080600080604560009054906101000a90046001600160a01b03166001600160a01b031663be05abe36040518163ffffffff1660e01b815260040161016060405180830381865afa158015610be7573d6000803e3d6000fd5b505050506040513d601f19601f82011682018060405250810190610c0b919061524b565b9a509a5050995099509950995099509950995099506000601760100160009054906101000a900463ffffffff169050601773__$a76fe959a16b0ef92b5d2bd739d5cb0318$__638c0fc65a9091610c6160465490565b6040516001600160e01b031960e085901b1681526004810192909252602482015260440160006040518083038186803b158015610c9d57600080fd5b505af4158015610cb1573d6000803e3d6000fd5b505060455460405163c3b5ffc960e01b81526001600160a01b03909116925063c3b5ffc99150610b1b908e908e908e908e908e908e908e908e908c908f908f90600401615331565b6000546001600160a01b03163314610d235760405162461bcd60e51b81526004016108fd90615200565b604051630587584360e21b8152602d600482015263ffffffff8216602482015273__$a76fe959a16b0ef92b5d2bd739d5cb0318$__9063161d610c90604401610949565b6000546001600160a01b03163314610d915760405162461bcd60e51b81526004016108fd90615200565b600080600080600080604560009054906101000a90046001600160a01b03166001600160a01b0316636e70ce416040518163ffffffff1660e01b815260040160e060405180830381865afa158015610ded573d6000803e3d6000fd5b505050506040513d601f19601f82011682018060405250810190610e1191906153ab565b50601554959b5093995091975095509350915063ffffffff1673__$a76fe959a16b0ef92b5d2bd739d5cb0318$__63728bd45d6009610e4f60465490565b6040516001600160e01b031960e085901b1681526004810192909252602482015260440160006040518083038186803b158015610e8b57600080fd5b505af4158015610e9f573d6000803e3d6000fd5b505060455460405163b5da217160e01b81526001600160a01b03909116925063b5da21719150610edf908a908a908a908a908a908a908a90600401615447565b600060405180830381600087803b158015610ef957600080fd5b505af1158015610f0d573d6000803e3d6000fd5b5050505050505050505050565b6000546001600160a01b03163314610f445760405162461bcd60e51b81526004016108fd90615200565b604051632fc22b3f60e21b8152603b60048201526001600160601b038216602482015273__$a76fe959a16b0ef92b5d2bd739d5cb0318$__9063bf08acfc90604401610949565b6000546001600160a01b03163314610fb55760405162461bcd60e51b81526004016108fd90615200565b600080600080600080600080600080604560009054906101000a90046001600160a01b03166001600160a01b031663be05abe36040518163ffffffff1660e01b815260040161016060405180830381865afa158015611018573d6000803e3d6000fd5b505050506040513d601f19601f8201168201806040525081019061103c919061524b565b9a509a509a5050995099509950995099509950995060006017600e0160009054906101000a90046001600160401b03169050601773__$a76fe959a16b0ef92b5d2bd739d5cb0318$__634569ab88909161109560465490565b6040516001600160e01b031960e085901b1681526004810192909252602482015260440160006040518083038186803b1580156110d157600080fd5b505af41580156110e5573d6000803e3d6000fd5b505060455460405163c3b5ffc960e01b81526001600160a01b03909116925063c3b5ffc99150610b1b908e908e908e908e908e908e908e908b908f908f908f90600401615331565b6000546001600160a01b031633146111575760405162461bcd60e51b81526004016108fd90615200565b6000806000604560009054906101000a90046001600160a01b03166001600160a01b03166375b922d16040518163ffffffff1660e01b8152600401608060405180830381865afa1580156111af573d6000803e3d6000fd5b505050506040513d601f19601f820116820180604052508101906111d39190615496565b603b805493975091955093506001600160601b03909116915073__$a76fe959a16b0ef92b5d2bd739d5cb0318$__90638f2ca6459061121160465490565b6040516001600160e01b031960e085901b1681526004810192909252602482015260440160006040518083038186803b15801561124d57600080fd5b505af4158015611261573d6000803e3d6000fd5b505060455460405163dc49117b60e01b81526001600160a01b03909116925063dc49117b915061129b9084908890889088906004016154f5565b600060405180830381600087803b1580156112b557600080fd5b505af11580156112c9573d6000803e3d6000fd5b5050505050505050565b6000546001600160a01b031633146112fd5760405162461bcd60e51b81526004016108fd90615200565b604051632eed92d760e21b8152600960048201526001600160601b038216602482015273__$a76fe959a16b0ef92b5d2bd739d5cb0318$__9063bbb64b5c90604401610949565b6000546001600160a01b0316331461136e5760405162461bcd60e51b81526004016108fd90615200565b6040516374b0fecf60e11b8152602d60048201526001600160401b038216602482015273__$a76fe959a16b0ef92b5d2bd739d5cb0318$__9063e961fd9e90604401610949565b6000546001600160a01b031633146113df5760405162461bcd60e51b81526004016108fd90615200565b600080600080600080604560009054906101000a90046001600160a01b03166001600160a01b03166361ccf97a6040518163ffffffff1660e01b815260040160e060405180830381865afa15801561143b573d6000803e3d6000fd5b505050506040513d601f19601f8201168201806040525081019061145f9190615525565b603554969c50949a509298509096509094509092505063ffffffff1673__$a76fe959a16b0ef92b5d2bd739d5cb0318$__6305be330f602d6114a060465490565b6040516001600160e01b031960e085901b1681526004810192909252602482015260440160006040518083038186803b1580156114dc57600080fd5b505af41580156114f0573d6000803e3d6000fd5b505060455460405163883d6a1160e01b81526001600160a01b03909116925063883d6a119150610edf908a908a908a908a9088908b908b906004016155a0565b6000546001600160a01b0316331461155a5760405162461bcd60e51b81526004016108fd90615200565b6048546115a05760405162461bcd60e51b815260206004820152601460248201527310da185b99d9481b9bdd081a5b9a5d1a585d195960621b60448201526064016108fd565b6046546048546115b090426155e7565b116115fd5760405162461bcd60e51b815260206004820181905260248201527f476f7665726e616e63652064656c617920686173206e6f7420656c617073656460448201526064016108fd565b60478054604655600090819055604855565b6000546001600160a01b031633146116395760405162461bcd60e51b81526004016108fd90615200565b600080600080600080604560009054906101000a90046001600160a01b03166001600160a01b03166361ccf97a6040518163ffffffff1660e01b815260040160e060405180830381865afa158015611695573d6000803e3d6000fd5b505050506040513d601f19601f820116820180604052508101906116b99190615525565b603354969c50949a509298509650909450909250506001600160401b031673__$a76fe959a16b0ef92b5d2bd739d5cb0318$__633861f138602d6116fc60465490565b6040516001600160e01b031960e085901b1681526004810192909252602482015260440160006040518083038186803b15801561173857600080fd5b505af415801561174c573d6000803e3d6000fd5b505060455460405163883d6a1160e01b81526001600160a01b03909116925063883d6a119150610edf908a908a908a9087908b908b908b906004016155a0565b6000546001600160a01b031633146117b65760405162461bcd60e51b81526004016108fd90615200565b604051639707e9ad60e01b81526017600482015263ffffffff8216602482015273__$a76fe959a16b0ef92b5d2bd739d5cb0318$__90639707e9ad90604401610949565b6000546001600160a01b031633146118245760405162461bcd60e51b81526004016108fd90615200565b6000806000604560009054906101000a90046001600160a01b03166001600160a01b031663c42b64d06040518163ffffffff1660e01b8152600401608060405180830381865afa15801561187c573d6000803e3d6000fd5b505050506040513d601f19601f820116820180604052508101906118a0919061560e565b50600754929550909350915063ffffffff1673__$a76fe959a16b0ef92b5d2bd739d5cb0318$__632520e8bf60016118d760465490565b6040516001600160e01b031960e085901b1681526004810192909252602482015260440160006040518083038186803b15801561191357600080fd5b505af4158015611927573d6000803e3d6000fd5b5050604554604051633832650760e01b81526001600160a01b0390911692506338326507915061129b908790879087908790600401615651565b6000546001600160a01b0316331461198b5760405162461bcd60e51b81526004016108fd90615200565b600080600080600080600080600080604560009054906101000a90046001600160a01b03166001600160a01b031663be05abe36040518163ffffffff1660e01b815260040161016060405180830381865afa1580156119ee573d6000803e3d6000fd5b505050506040513d601f19601f82011682018060405250810190611a12919061524b565b9a509a509a509a509a509a509a509a509a505099506000601760020160009054906101000a90046001600160401b03169050601773__$a76fe959a16b0ef92b5d2bd739d5cb0318$__63d6964b979091611a6b60465490565b6040516001600160e01b031960e085901b1681526004810192909252602482015260440160006040518083038186803b158015611aa757600080fd5b505af4158015611abb573d6000803e3d6000fd5b505060455460405163c3b5ffc960e01b81526001600160a01b03909116925063c3b5ffc99150610b1b908e9085908f908f908f908f908f908f908f908f908f90600401615331565b6000546001600160a01b03163314611b2d5760405162461bcd60e51b81526004016108fd90615200565b600080600080600080604560009054906101000a90046001600160a01b03166001600160a01b0316636e70ce416040518163ffffffff1660e01b815260040160e060405180830381865afa158015611b89573d6000803e3d6000fd5b505050506040513d601f19601f82011682018060405250810190611bad91906153ab565b60098054969d50949b50929950909750955093506001600160401b03909116915073__$a76fe959a16b0ef92b5d2bd739d5cb0318$__9063ec9f476090611bf360465490565b6040516001600160e01b031960e085901b1681526004810192909252602482015260440160006040518083038186803b158015611c2f57600080fd5b505af4158015611c43573d6000803e3d6000fd5b505060455460405163b5da217160e01b81526001600160a01b03909116925063b5da21719150610edf9084908b908b908b908b908b908b90600401615447565b6000546001600160a01b03163314611cad5760405162461bcd60e51b81526004016108fd90615200565b60475542604855565b6000546001600160a01b03163314611ce05760405162461bcd60e51b81526004016108fd90615200565b6000806000604560009054906101000a90046001600160a01b03166001600160a01b031663c42b64d06040518163ffffffff1660e01b8152600401608060405180830381865afa158015611d38573d6000803e3d6000fd5b505050506040513d601f19601f82011682018060405250810190611d5c919061560e565b6001805493975091955093506001600160401b03909116915073__$a76fe959a16b0ef92b5d2bd739d5cb0318$__9063ae25638390611d9a60465490565b6040516001600160e01b031960e085901b1681526004810192909252602482015260440160006040518083038186803b158015611dd657600080fd5b505af4158015611dea573d6000803e3d6000fd5b5050604554604051633832650760e01b81526001600160a01b0390911692506338326507915061129b908490889088908890600401615651565b6000546001600160a01b03163314611e4e5760405162461bcd60e51b81526004016108fd90615200565b6040516368af502160e01b8152600960048201526001600160401b038216602482015273__$a76fe959a16b0ef92b5d2bd739d5cb0318$__906368af502190604401610949565b6000546001600160a01b03163314611ebf5760405162461bcd60e51b81526004016108fd90615200565b604051630ac6330760e11b8152600160048201526001600160401b038216602482015273__$a76fe959a16b0ef92b5d2bd739d5cb0318$__9063158c660e90604401610949565b6000546001600160a01b03163314611f305760405162461bcd60e51b81526004016108fd90615200565b6040516319de06fb60e31b8152600160048201526001600160401b038216602482015273__$a76fe959a16b0ef92b5d2bd739d5cb0318$__9063cef037d890604401610949565b6000546001600160a01b03163314611fa15760405162461bcd60e51b81526004016108fd90615200565b604051620f049d60ea1b8152600960048201526001600160401b038216602482015273__$a76fe959a16b0ef92b5d2bd739d5cb0318$__90633c12740090604401610949565b6000546001600160a01b031633146120115760405162461bcd60e51b81526004016108fd90615200565b600080600080600080604560009054906101000a90046001600160a01b03166001600160a01b0316636e70ce416040518163ffffffff1660e01b815260040160e060405180830381865afa15801561206d573d6000803e3d6000fd5b505050506040513d601f19601f8201168201806040525081019061209191906153ab565b600d54969c50949a5091985096509450909250506001600160401b031673__$a76fe959a16b0ef92b5d2bd739d5cb0318$__639232db3f60096120d360465490565b6040516001600160e01b031960e085901b1681526004810192909252602482015260440160006040518083038186803b15801561210f57600080fd5b505af4158015612123573d6000803e3d6000fd5b505060455460405163b5da217160e01b81526001600160a01b03909116925063b5da21719150610edf908a908a9086908b908b908b908b90600401615447565b6000546001600160a01b0316331461218d5760405162461bcd60e51b81526004016108fd90615200565b6000806000604560009054906101000a90046001600160a01b03166001600160a01b03166375b922d16040518163ffffffff1660e01b8152600401608060405180830381865afa1580156121e5573d6000803e3d6000fd5b505050506040513d601f19601f820116820180604052508101906122099190615496565b50604154929550909350915063ffffffff1673__$a76fe959a16b0ef92b5d2bd739d5cb0318$__630c4e5686603b61224060465490565b6040516001600160e01b031960e085901b1681526004810192909252602482015260440160006040518083038186803b15801561227c57600080fd5b505af4158015612290573d6000803e3d6000fd5b505060455460405163dc49117b60e01b81526001600160a01b03909116925063dc49117b915061129b9087908790879087906004016154f5565b6000546001600160a01b031633146122f45760405162461bcd60e51b81526004016108fd90615200565b604051633964f6cb60e11b8152601760048201526001600160401b038216602482015273__$a76fe959a16b0ef92b5d2bd739d5cb0318$__906372c9ed9690604401610949565b6000546001600160a01b031633146123655760405162461bcd60e51b81526004016108fd90615200565b604051636312276d60e11b81526017600482015263ffffffff8216602482015273__$a76fe959a16b0ef92b5d2bd739d5cb0318$__9063c6244eda90604401610949565b6000546001600160a01b031633146123d35760405162461bcd60e51b81526004016108fd90615200565b604051632d453d5760e01b8152603b600482015263ffffffff8216602482015273__$a76fe959a16b0ef92b5d2bd739d5cb0318$__90632d453d5790604401610949565b6000546001600160a01b031633146124415760405162461bcd60e51b81526004016108fd90615200565b6040516377b3952360e11b8152600960048201526001600160401b038216602482015273__$a76fe959a16b0ef92b5d2bd739d5cb0318$__9063ef672a4690604401610949565b6000546001600160a01b031633146124b25760405162461bcd60e51b81526004016108fd90615200565b60405163382c42c560e11b8152603b600482015263ffffffff8216602482015273__$a76fe959a16b0ef92b5d2bd739d5cb0318$__90637058858a90604401610949565b6000546001600160a01b031633146125205760405162461bcd60e51b81526004016108fd90615200565b60405163730d3c4360e11b81526009600482015263ffffffff8216602482015273__$a76fe959a16b0ef92b5d2bd739d5cb0318$__9063e61a788690604401610949565b6000546001600160a01b0316331461258e5760405162461bcd60e51b81526004016108fd90615200565b600080600080600080600080600080604560009054906101000a90046001600160a01b03166001600160a01b031663be05abe36040518163ffffffff1660e01b815260040161016060405180830381865afa1580156125f1573d6000803e3d6000fd5b505050506040513d601f19601f82011682018060405250810190612615919061524b565b9a509a509a509a505099509950995099509950995060006017600c0160009054906101000a900461ffff169050601773__$a76fe959a16b0ef92b5d2bd739d5cb0318$__63d7e1b317909161266960465490565b6040516001600160e01b031960e085901b1681526004810192909252602482015260440160006040518083038186803b1580156126a557600080fd5b505af41580156126b9573d6000803e3d6000fd5b505060455460405163c3b5ffc960e01b81526001600160a01b03909116925063c3b5ffc99150610b1b908e908e908e908e908e908e908a908f908f908f908f90600401615331565b6000546001600160a01b0316331461272b5760405162461bcd60e51b81526004016108fd90615200565b604554604051635f2b2d0d60e01b81526001600160a01b038481166004830152831515602483015290911690635f2b2d0d906044015b600060405180830381600087803b15801561277b57600080fd5b505af115801561278f573d6000803e3d6000fd5b505050505050565b6000546001600160a01b031633146127c15760405162461bcd60e51b81526004016108fd90615200565b600080600080600080604560009054906101000a90046001600160a01b03166001600160a01b0316636e70ce416040518163ffffffff1660e01b815260040160e060405180830381865afa15801561281d573d6000803e3d6000fd5b505050506040513d601f19601f8201168201806040525081019061284191906153ab565b600f54969c50949a509298509650909450909250506001600160401b031673__$a76fe959a16b0ef92b5d2bd739d5cb0318$__638a346d4d600961288460465490565b6040516001600160e01b031960e085901b1681526004810192909252602482015260440160006040518083038186803b1580156128c057600080fd5b505af41580156128d4573d6000803e3d6000fd5b505060455460405163b5da217160e01b81526001600160a01b03909116925063b5da21719150610edf908a908a908a9087908b908b908b90600401615447565b6000546001600160a01b0316331461293e5760405162461bcd60e51b81526004016108fd90615200565b600080600080600080600080600080604560009054906101000a90046001600160a01b03166001600160a01b031663be05abe36040518163ffffffff1660e01b815260040161016060405180830381865afa1580156129a1573d6000803e3d6000fd5b505050506040513d601f19601f820116820180604052508101906129c5919061524b565b9a509a509a509a509a50509950995099509950995060006017600a0160009054906101000a900463ffffffff169050601773__$a76fe959a16b0ef92b5d2bd739d5cb0318$__631b3f064f9091612a1b60465490565b6040516001600160e01b031960e085901b1681526004810192909252602482015260440160006040518083038186803b158015612a5757600080fd5b505af4158015612a6b573d6000803e3d6000fd5b505060455460405163c3b5ffc960e01b81526001600160a01b03909116925063c3b5ffc99150610b1b908e908e908e908e908e9089908f908f908f908f908f90600401615331565b6000546001600160a01b03163314612add5760405162461bcd60e51b81526004016108fd90615200565b600060495411612b265760405162461bcd60e51b815260206004820152601460248201527310da185b99d9481b9bdd081a5b9a5d1a585d195960621b60448201526064016108fd565b604654604954612b3690426155e7565b1015612b845760405162461bcd60e51b815260206004820181905260248201527f476f7665726e616e63652064656c617920686173206e6f7420656c617073656460448201526064016108fd565b604554604a546040516334e2fffd60e21b81526001600160a01b03918216600482015291169063d38bfff490602401600060405180830381600087803b158015612bcd57600080fd5b505af1158015612be1573d6000803e3d6000fd5b505060006049555050604a80546001600160a01b0319169055565b6000546001600160a01b03163314612c265760405162461bcd60e51b81526004016108fd90615200565b604554604051631835c4bf60e21b81526001600160a01b0384811660048301528315156024830152909116906360d712fc90604401612761565b6000546001600160a01b03163314612c8a5760405162461bcd60e51b81526004016108fd90615200565b600080600080600080604560009054906101000a90046001600160a01b03166001600160a01b03166361ccf97a6040518163ffffffff1660e01b815260040160e060405180830381865afa158015612ce6573d6000803e3d6000fd5b505050506040513d601f19601f82011682018060405250810190612d0a9190615525565b50603954959b5093995091975095509350915063ffffffff1673__$a76fe959a16b0ef92b5d2bd739d5cb0318$__63dbf83803602d612d4860465490565b6040516001600160e01b031960e085901b1681526004810192909252602482015260440160006040518083038186803b158015612d8457600080fd5b505af4158015612d98573d6000803e3d6000fd5b505060455460405163883d6a1160e01b81526001600160a01b03909116925063883d6a119150610edf908a908a908a908a908a908a908a906004016155a0565b6000546001600160a01b03163314612e025760405162461bcd60e51b81526004016108fd90615200565b6040516323d4f60160e21b8152601760048201526001600160401b038216602482015273__$a76fe959a16b0ef92b5d2bd739d5cb0318$__90638f53d80490604401610949565b6000546001600160a01b03163314612e735760405162461bcd60e51b81526004016108fd90615200565b600080600080600080604560009054906101000a90046001600160a01b03166001600160a01b0316636e70ce416040518163ffffffff1660e01b815260040160e060405180830381865afa158015612ecf573d6000803e3d6000fd5b505050506040513d601f19601f82011682018060405250810190612ef391906153ab565b601354969c50949a509298509096509450909250506001600160601b031673__$a76fe959a16b0ef92b5d2bd739d5cb0318$__63f818e43c6009612f3660465490565b6040516001600160e01b031960e085901b1681526004810192909252602482015260440160006040518083038186803b158015612f7257600080fd5b505af4158015612f86573d6000803e3d6000fd5b505060455460405163b5da217160e01b81526001600160a01b03909116925063b5da21719150610edf908a908a908a908a908a9089908b90600401615447565b60468160038110612fd657600080fd5b0154905081565b6000546001600160a01b031633146130075760405162461bcd60e51b81526004016108fd90615200565b60405163f543e37d60e01b8152602d60048201526001600160401b038216602482015273__$a76fe959a16b0ef92b5d2bd739d5cb0318$__9063f543e37d90604401610949565b6000546001600160a01b031633146130785760405162461bcd60e51b81526004016108fd90615200565b613082600061505d565b565b6000546001600160a01b031633146130ae5760405162461bcd60e51b81526004016108fd90615200565b6000806000604560009054906101000a90046001600160a01b03166001600160a01b03166375b922d16040518163ffffffff1660e01b8152600401608060405180830381865afa158015613106573d6000803e3d6000fd5b505050506040513d601f19601f8201168201806040525081019061312a9190615496565b603d5493965090945092505063ffffffff1673__$a76fe959a16b0ef92b5d2bd739d5cb0318$__63d2a27c33603b61316160465490565b6040516001600160e01b031960e085901b1681526004810192909252602482015260440160006040518083038186803b15801561319d57600080fd5b505af41580156131b1573d6000803e3d6000fd5b505060455460405163dc49117b60e01b81526001600160a01b03909116925063dc49117b915061129b9087908590889088906004016154f5565b6000546001600160a01b031633146132155760405162461bcd60e51b81526004016108fd90615200565b6040516353cf6f6560e01b81526001600482015263ffffffff8216602482015273__$a76fe959a16b0ef92b5d2bd739d5cb0318$__906353cf6f6590604401610949565b6000546001600160a01b031633146132835760405162461bcd60e51b81526004016108fd90615200565b600080600080600080600080600080604560009054906101000a90046001600160a01b03166001600160a01b031663be05abe36040518163ffffffff1660e01b815260040161016060405180830381865afa1580156132e6573d6000803e3d6000fd5b505050506040513d601f19601f8201168201806040525081019061330a919061524b565b9a509a509a509a509a509a509a509a5050995099506000601760040160009054906101000a900463ffffffff169050601773__$a76fe959a16b0ef92b5d2bd739d5cb0318$__6351a3d06e909161336060465490565b6040516001600160e01b031960e085901b1681526004810192909252602482015260440160006040518083038186803b15801561339c57600080fd5b505af41580156133b0573d6000803e3d6000fd5b505060455460405163c3b5ffc960e01b81526001600160a01b03909116925063c3b5ffc99150610b1b908e908e9086908f908f908f908f908f908f908f908f90600401615331565b6000546001600160a01b031633146134225760405162461bcd60e51b81526004016108fd90615200565b60405163126e077960e31b81526017600482015263ffffffff8216602482015273__$a76fe959a16b0ef92b5d2bd739d5cb0318$__906393703bc890604401610949565b6000546001600160a01b031633146134905760405162461bcd60e51b81526004016108fd90615200565b6000806000604560009054906101000a90046001600160a01b03166001600160a01b031663c42b64d06040518163ffffffff1660e01b8152600401608060405180830381865afa1580156134e8573d6000803e3d6000fd5b505050506040513d601f19601f8201168201806040525081019061350c919061560e565b600554939650919450909250506001600160401b031673__$a76fe959a16b0ef92b5d2bd739d5cb0318$__6368decba2600161354760465490565b6040516001600160e01b031960e085901b1681526004810192909252602482015260440160006040518083038186803b15801561358357600080fd5b505af4158015613597573d6000803e3d6000fd5b5050604554604051633832650760e01b81526001600160a01b0390911692506338326507915061129b908790879086908890600401615651565b6000546001600160a01b031633146135fb5760405162461bcd60e51b81526004016108fd90615200565b6040516322b8310d60e21b8152601760048201526001600160601b038216602482015273__$a76fe959a16b0ef92b5d2bd739d5cb0318$__90638ae0c43490604401610949565b6000546001600160a01b0316331461366c5760405162461bcd60e51b81526004016108fd90615200565b604a80546001600160a01b0319166001600160a01b0383169081179091554260498190556040805192835260208301919091527f24973178c1aef0f16b3490f7b45109bb38df71d627a7ed575597447150837881910160405180910390a150565b6000546001600160a01b031633146136f75760405162461bcd60e51b81526004016108fd90615200565b6040516336cdaf1960e11b81526017600482015261ffff8216602482015273__$a76fe959a16b0ef92b5d2bd739d5cb0318$__90636d9b5e3290604401610949565b6000546001600160a01b031633146137635760405162461bcd60e51b81526004016108fd90615200565b6000806000604560009054906101000a90046001600160a01b03166001600160a01b031663c42b64d06040518163ffffffff1660e01b8152600401608060405180830381865afa1580156137bb573d6000803e3d6000fd5b505050506040513d601f19601f820116820180604052508101906137df919061560e565b6003549396509094509250506001600160401b031673__$a76fe959a16b0ef92b5d2bd739d5cb0318$__63362c2372600161381960465490565b6040516001600160e01b031960e085901b1681526004810192909252602482015260440160006040518083038186803b15801561385557600080fd5b505af4158015613869573d6000803e3d6000fd5b5050604554604051633832650760e01b81526001600160a01b0390911692506338326507915061129b908790859088908890600401615651565b6000546001600160a01b031633146138cd5760405162461bcd60e51b81526004016108fd90615200565b600080600080600080604560009054906101000a90046001600160a01b03166001600160a01b03166361ccf97a6040518163ffffffff1660e01b815260040160e060405180830381865afa158015613929573d6000803e3d6000fd5b505050506040513d601f19601f8201168201806040525081019061394d9190615525565b602d8054969d50949b509299509097509550935063ffffffff909116915073__$a76fe959a16b0ef92b5d2bd739d5cb0318$__9063a62029f69061399060465490565b6040516001600160e01b031960e085901b1681526004810192909252602482015260440160006040518083038186803b1580156139cc57600080fd5b505af41580156139e0573d6000803e3d6000fd5b505060455460405163883d6a1160e01b81526001600160a01b03909116925063883d6a119150610edf9084908b908b908b908b908b908b906004016155a0565b6000546001600160a01b03163314613a4a5760405162461bcd60e51b81526004016108fd90615200565b604051631323ffb160e11b81526017600482015263ffffffff8216602482015273__$a76fe959a16b0ef92b5d2bd739d5cb0318$__90632647ff6290604401610949565b6000546001600160a01b03163314613ab85760405162461bcd60e51b81526004016108fd90615200565b600080600080600080600080600080604560009054906101000a90046001600160a01b03166001600160a01b031663be05abe36040518163ffffffff1660e01b815260040161016060405180830381865afa158015613b1b573d6000803e3d6000fd5b505050506040513d601f19601f82011682018060405250810190613b3f919061524b565b9a50509950995099509950995099509950995099506000601760120160009054906101000a90046001600160601b03169050601773__$a76fe959a16b0ef92b5d2bd739d5cb0318$__636d5be9be9091613b9860465490565b6040516001600160e01b031960e085901b1681526004810192909252602482015260440160006040518083038186803b158015613bd457600080fd5b505af4158015613be8573d6000803e3d6000fd5b505060455460405163c3b5ffc960e01b81526001600160a01b03909116925063c3b5ffc99150610b1b908e908e908e908e908e908e908e908e908e908d908f90600401615331565b6000546001600160a01b03163314613c5a5760405162461bcd60e51b81526004016108fd90615200565b60405163a6b0e7bd60e01b81526017600482015263ffffffff8216602482015273__$a76fe959a16b0ef92b5d2bd739d5cb0318$__9063a6b0e7bd90604401610949565b6000546001600160a01b03163314613cc85760405162461bcd60e51b81526004016108fd90615200565b604051620c4fa760ea1b8152602d600482015263ffffffff8216602482015273__$a76fe959a16b0ef92b5d2bd739d5cb0318$__9063313e9c0090604401610949565b6000546001600160a01b03163314613d355760405162461bcd60e51b81526004016108fd90615200565b6040516391346cbb60e01b8152602d60048201526001600160401b038216602482015273__$a76fe959a16b0ef92b5d2bd739d5cb0318$__906391346cbb90604401610949565b6000546001600160a01b03163314613da65760405162461bcd60e51b81526004016108fd90615200565b6040516304b8e2eb60e01b8152602d60048201526001600160401b038216602482015273__$a76fe959a16b0ef92b5d2bd739d5cb0318$__906304b8e2eb90604401610949565b6000546001600160a01b03163314613e175760405162461bcd60e51b81526004016108fd90615200565b600080600080600080600080600080604560009054906101000a90046001600160a01b03166001600160a01b031663be05abe36040518163ffffffff1660e01b815260040161016060405180830381865afa158015613e7a573d6000803e3d6000fd5b505050506040513d601f19601f82011682018060405250810190613e9e919061524b565b9a509a509a509a509a509a509a509a509a509a50506000601760000160009054906101000a90046001600160401b03169050601773__$a76fe959a16b0ef92b5d2bd739d5cb0318$__630b5a08ed9091613ef760465490565b6040516001600160e01b031960e085901b1681526004810192909252602482015260440160006040518083038186803b158015613f3357600080fd5b505af4158015613f47573d6000803e3d6000fd5b505060455460405163c3b5ffc960e01b81526001600160a01b03909116925063c3b5ffc99150610b1b9084908f908f908f908f908f908f908f908f908f908f90600401615331565b6000546001600160a01b03163314613fb95760405162461bcd60e51b81526004016108fd90615200565b600080600080600080604560009054906101000a90046001600160a01b03166001600160a01b03166361ccf97a6040518163ffffffff1660e01b815260040160e060405180830381865afa158015614015573d6000803e3d6000fd5b505050506040513d601f19601f820116820180604052508101906140399190615525565b603154969c50949a5091985096509450909250506001600160401b031673__$a76fe959a16b0ef92b5d2bd739d5cb0318$__63f08cac39602d61407b60465490565b6040516001600160e01b031960e085901b1681526004810192909252602482015260440160006040518083038186803b1580156140b757600080fd5b505af41580156140cb573d6000803e3d6000fd5b505060455460405163883d6a1160e01b81526001600160a01b03909116925063883d6a119150610edf908a908a9086908b908b908b908b906004016155a0565b6000546001600160a01b031633146141355760405162461bcd60e51b81526004016108fd90615200565b600080600080600080600080600080604560009054906101000a90046001600160a01b03166001600160a01b031663be05abe36040518163ffffffff1660e01b815260040161016060405180830381865afa158015614198573d6000803e3d6000fd5b505050506040513d601f19601f820116820180604052508101906141bc919061524b565b9a509a509a509a509a509a505099509950995099506000601760080160009054906101000a90046001600160601b03169050601773__$a76fe959a16b0ef92b5d2bd739d5cb0318$__63ffbe0627909161421560465490565b6040516001600160e01b031960e085901b1681526004810192909252602482015260440160006040518083038186803b15801561425157600080fd5b505af4158015614265573d6000803e3d6000fd5b505060455460405163c3b5ffc960e01b81526001600160a01b03909116925063c3b5ffc99150610b1b908e908e908e908e9088908f908f908f908f908f908f90600401615331565b6000546001600160a01b031633146142d75760405162461bcd60e51b81526004016108fd90615200565b604051630b56b11560e41b8152604360048201526001600160a01b038216602482015273__$a76fe959a16b0ef92b5d2bd739d5cb0318$__9063b56b115090604401610949565b6000546001600160a01b031633146143485760405162461bcd60e51b81526004016108fd90615200565b604051638a397dd760e01b8152603b60048201526001600160601b038216602482015273__$a76fe959a16b0ef92b5d2bd739d5cb0318$__90638a397dd790604401610949565b6000546001600160a01b031633146143b95760405162461bcd60e51b81526004016108fd90615200565b6040516301d2d6f160e51b8152601760048201526001600160401b038216602482015273__$a76fe959a16b0ef92b5d2bd739d5cb0318$__90633a5ade2090604401610949565b6000546001600160a01b0316331461442a5760405162461bcd60e51b81526004016108fd90615200565b604380546001600160a01b03169073__$a76fe959a16b0ef92b5d2bd739d5cb0318$__90634a46b8339061445d60465490565b6040516001600160e01b031960e085901b1681526004810192909252602482015260440160006040518083038186803b15801561449957600080fd5b505af41580156144ad573d6000803e3d6000fd5b5050604554604051637f51bb1f60e01b81526001600160a01b0385811660048301529091169250637f51bb1f9150602401600060405180830381600087803b1580156144f857600080fd5b505af1158015610975573d6000803e3d6000fd5b6000546001600160a01b031633146145365760405162461bcd60e51b81526004016108fd90615200565b60405163e37b9e1b60e01b8152602d600482015263ffffffff8216602482015273__$a76fe959a16b0ef92b5d2bd739d5cb0318$__9063e37b9e1b90604401610949565b6000546001600160a01b031633146145a45760405162461bcd60e51b81526004016108fd90615200565b600080600080600080604560009054906101000a90046001600160a01b03166001600160a01b0316636e70ce416040518163ffffffff1660e01b815260040160e060405180830381865afa158015614600573d6000803e3d6000fd5b505050506040513d601f19601f8201168201806040525081019061462491906153ab565b601154969c50949a509298509096509094509092505063ffffffff1673__$a76fe959a16b0ef92b5d2bd739d5cb0318$__63a48814a5600961466560465490565b6040516001600160e01b031960e085901b1681526004810192909252602482015260440160006040518083038186803b1580156146a157600080fd5b505af41580156146b5573d6000803e3d6000fd5b505060455460405163b5da217160e01b81526001600160a01b03909116925063b5da21719150610edf908a908a908a908a9088908b908b90600401615447565b6000546001600160a01b0316331461471f5760405162461bcd60e51b81526004016108fd90615200565b6040516383eb9c5960e01b81526009600482015263ffffffff8216602482015273__$a76fe959a16b0ef92b5d2bd739d5cb0318$__906383eb9c5990604401610949565b6000546001600160a01b0316331461478d5760405162461bcd60e51b81526004016108fd90615200565b600080600080600080604560009054906101000a90046001600160a01b03166001600160a01b0316636e70ce416040518163ffffffff1660e01b815260040160e060405180830381865afa1580156147e9573d6000803e3d6000fd5b505050506040513d601f19601f8201168201806040525081019061480d91906153ab565b600b54969c50939a50919850965094509250506001600160401b031673__$a76fe959a16b0ef92b5d2bd739d5cb0318$__63c4faa867600961484e60465490565b6040516001600160e01b031960e085901b1681526004810192909252602482015260440160006040518083038186803b15801561488a57600080fd5b505af415801561489e573d6000803e3d6000fd5b505060455460405163b5da217160e01b81526001600160a01b03909116925063b5da21719150610edf908a9085908b908b908b908b908b90600401615447565b6000546001600160a01b031633146149085760405162461bcd60e51b81526004016108fd90615200565b60405163128c836760e21b8152601760048201526001600160601b038216602482015273__$a76fe959a16b0ef92b5d2bd739d5cb0318$__90634a320d9c90604401610949565b6000546001600160a01b031633146149795760405162461bcd60e51b81526004016108fd90615200565b6001600160a01b0381166149de5760405162461bcd60e51b815260206004820152602660248201527f4f776e61626c653a206e6577206f776e657220697320746865207a65726f206160448201526564647265737360d01b60648201526084016108fd565b6149e78161505d565b50565b6000546001600160a01b03163314614a145760405162461bcd60e51b81526004016108fd90615200565b600080600080600080600080600080604560009054906101000a90046001600160a01b03166001600160a01b031663be05abe36040518163ffffffff1660e01b815260040161016060405180830381865afa158015614a77573d6000803e3d6000fd5b505050506040513d601f19601f82011682018060405250810190614a9b919061524b565b9a509a509a509a509a509a509a50509950995099506000601760060160009054906101000a900463ffffffff169050601773__$a76fe959a16b0ef92b5d2bd739d5cb0318$__63dcce6cc89091614af160465490565b6040516001600160e01b031960e085901b1681526004810192909252602482015260440160006040518083038186803b158015614b2d57600080fd5b505af4158015614b41573d6000803e3d6000fd5b505060455460405163c3b5ffc960e01b81526001600160a01b03909116925063c3b5ffc99150610b1b908e908e908e9087908f908f908f908f908f908f908f90600401615331565b6000546001600160a01b03163314614bb35760405162461bcd60e51b81526004016108fd90615200565b6000806000604560009054906101000a90046001600160a01b03166001600160a01b03166375b922d16040518163ffffffff1660e01b8152600401608060405180830381865afa158015614c0b573d6000803e3d6000fd5b505050506040513d601f19601f82011682018060405250810190614c2f9190615496565b603f54939650919450909250506001600160601b031673__$a76fe959a16b0ef92b5d2bd739d5cb0318$__63a9e31763603b614c6a60465490565b6040516001600160e01b031960e085901b1681526004810192909252602482015260440160006040518083038186803b158015614ca657600080fd5b505af4158015614cba573d6000803e3d6000fd5b505060455460405163dc49117b60e01b81526001600160a01b03909116925063dc49117b915061129b9087908790869088906004016154f5565b6000546001600160a01b03163314614d1e5760405162461bcd60e51b81526004016108fd90615200565b600080600080600080604560009054906101000a90046001600160a01b03166001600160a01b03166361ccf97a6040518163ffffffff1660e01b815260040160e060405180830381865afa158015614d7a573d6000803e3d6000fd5b505050506040513d601f19601f82011682018060405250810190614d9e9190615525565b603754969c50949a509298509096509450909250506001600160401b031673__$a76fe959a16b0ef92b5d2bd739d5cb0318$__63af11623a602d614de160465490565b6040516001600160e01b031960e085901b1681526004810192909252602482015260440160006040518083038186803b158015614e1d57600080fd5b505af4158015614e31573d6000803e3d6000fd5b505060455460405163883d6a1160e01b81526001600160a01b03909116925063883d6a119150610edf908a908a908a908a908a9089908b906004016155a0565b6000546001600160a01b03163314614e9b5760405162461bcd60e51b81526004016108fd90615200565b60405163baa9397360e01b8152600960048201526001600160401b038216602482015273__$a76fe959a16b0ef92b5d2bd739d5cb0318$__9063baa9397390604401610949565b6000546001600160a01b03163314614f0c5760405162461bcd60e51b81526004016108fd90615200565b600080600080600080604560009054906101000a90046001600160a01b03166001600160a01b03166361ccf97a6040518163ffffffff1660e01b815260040160e060405180830381865afa158015614f68573d6000803e3d6000fd5b505050506040513d601f19601f82011682018060405250810190614f8c9190615525565b602f54969c50939a50919850965094509250506001600160401b031673__$a76fe959a16b0ef92b5d2bd739d5cb0318$__6381f5c03a602d614fcd60465490565b6040516001600160e01b031960e085901b1681526004810192909252602482015260440160006040518083038186803b15801561500957600080fd5b505af415801561501d573d6000803e3d6000fd5b505060455460405163883d6a1160e01b81526001600160a01b03909116925063883d6a119150610edf908a9085908b908b908b908b908b906004016155a0565b600080546001600160a01b038381166001600160a01b0319831681178455604051919092169283917f8be0079c531659141344cd1fd0a4f28419497f9722a3daafe3b4186f6b6457e09190a35050565b6001600160401b03811681146149e757600080fd5b6000602082840312156150d457600080fd5b81356150df816150ad565b9392505050565b63ffffffff811681146149e757600080fd5b60006020828403121561510a57600080fd5b81356150df816150e6565b6001600160601b03811681146149e757600080fd5b60006020828403121561513c57600080fd5b81356150df81615115565b60006020828403121561515957600080fd5b5035919050565b80356001600160a01b038116811461517757600080fd5b919050565b6000806040838503121561518f57600080fd5b61519883615160565b9150602083013580151581146151ad57600080fd5b809150509250929050565b6000602082840312156151ca57600080fd5b6150df82615160565b61ffff811681146149e757600080fd5b6000602082840312156151f557600080fd5b81356150df816151d3565b6020808252818101527f4f776e61626c653a2063616c6c6572206973206e6f7420746865206f776e6572604082015260600190565b8051615177816150e6565b805161517781615115565b60008060008060008060008060008060006101608c8e03121561526d57600080fd5b8b51615278816150ad565b60208d0151909b50615289816150ad565b60408d0151909a5061529a816150e6565b60608d01519099506152ab816150e6565b60808d01519098506152bc81615115565b60a08d01519097506152cd816150e6565b60c08d01519096506152de816151d3565b60e08d01519095506152ef816150ad565b6101008d0151909450615301816150e6565b92506153106101208d01615240565b915061531f6101408d01615235565b90509295989b509295989b9093969950565b6001600160401b039b8c168152998b1660208b015263ffffffff98891660408b015296881660608a01526001600160601b0395861660808a015293871660a089015261ffff9290921660c088015290961660e086015294831661010085015293909316610120830152919091166101408201526101600190565b600080600080600080600060e0888a0312156153c657600080fd5b87516153d1816150ad565b60208901519097506153e2816150ad565b60408901519096506153f3816150ad565b6060890151909550615404816150ad565b6080890151909450615415816150e6565b60a089015190935061542681615115565b60c0890151909250615437816150e6565b8091505092959891949750929550565b6001600160401b0397881681529587166020870152938616604086015291909416606084015263ffffffff93841660808401526001600160601b031660a083015290911660c082015260e00190565b600080600080608085870312156154ac57600080fd5b84516154b781615115565b60208601519094506154c8816150e6565b60408601519093506154d981615115565b60608601519092506154ea816150e6565b939692955090935050565b6001600160601b03948516815263ffffffff93841660208201529190931660408201529116606082015260800190565b600080600080600080600060e0888a03121561554057600080fd5b875161554b816150e6565b602089015190975061555c816150ad565b604089015190965061556d816150ad565b606089015190955061557e816150ad565b608089015190945061558f816150e6565b60a0890151909350615426816150ad565b63ffffffff97881681526001600160401b03968716602082015294861660408601529285166060850152908516608084015290921660a0820152911660c082015260e00190565b8181038181111561560857634e487b7160e01b600052601160045260246000fd5b92915050565b6000806000806080858703121561562457600080fd5b845161562f816150ad565b6020860151909450615640816150ad565b60408601519093506154d9816150ad565b6001600160401b03948516815292841660208401529216604082015263ffffffff90911660608201526080019056fea26469706673582212207da1d14d2f392e07b29827a404a981663e8cbd3c74887eb82fdd7004db28380564736f6c63430008110033",
  "libraries": {
    "BridgeGovernanceParameters": "0xce4b16b81A28d785FEEB7b1D56a9B97d450D3443"
  }
}