{
  "address": "0xf286EA706A2512d2B9232FE7F8b2724880230b45",
  "abi": [
    {
      "inputs": [
        {
          "internalType": "contract Bridge",
          "name": "_bridge",
          "type": "address"
        },
        {
          "internalType": "uint256",
          "name": "_governanceDelay",
          "type": "uint256"
        }
      ],
      "stateMutability": "nonpayable",
      "type": "constructor"
    },
    {
      "anonymous": false,
      "inputs": [
        {
          "indexed": false,
          "internalType": "address",
          "name": "newBridgeGovernance",
          "type": "address"
        },
        {
          "indexed": false,
          "internalType": "uint256",
          "name": "timestamp",
          "type": "uint256"
        }
      ],
      "name": "BridgeGovernanceTransferStarted",
      "type": "event"
    },
    {
      "anonymous": false,
      "inputs": [
        {
          "indexed": false,
          "internalType": "uint64",
          "name": "newDepositDustThreshold",
          "type": "uint64"
        },
        {
          "indexed": false,
          "internalType": "uint256",
          "name": "timestamp",
          "type": "uint256"
        }
      ],
      "name": "DepositDustThresholdUpdateStarted",
      "type": "event"
    },
    {
      "anonymous": false,
      "inputs": [
        {
          "indexed": false,
          "internalType": "uint64",
          "name": "depositDustThreshold",
          "type": "uint64"
        }
      ],
      "name": "DepositDustThresholdUpdated",
      "type": "event"
    },
    {
      "anonymous": false,
      "inputs": [
        {
          "indexed": false,
          "internalType": "uint32",
          "name": "newDepositRevealAheadPeriod",
          "type": "uint32"
        },
        {
          "indexed": false,
          "internalType": "uint256",
          "name": "timestamp",
          "type": "uint256"
        }
      ],
      "name": "DepositRevealAheadPeriodUpdateStarted",
      "type": "event"
    },
    {
      "anonymous": false,
      "inputs": [
        {
          "indexed": false,
          "internalType": "uint32",
          "name": "depositRevealAheadPeriod",
          "type": "uint32"
        }
      ],
      "name": "DepositRevealAheadPeriodUpdated",
      "type": "event"
    },
    {
      "anonymous": false,
      "inputs": [
        {
          "indexed": false,
          "internalType": "uint64",
          "name": "depositTreasuryFeeDivisor",
          "type": "uint64"
        },
        {
          "indexed": false,
          "internalType": "uint256",
          "name": "timestamp",
          "type": "uint256"
        }
      ],
      "name": "DepositTreasuryFeeDivisorUpdateStarted",
      "type": "event"
    },
    {
      "anonymous": false,
      "inputs": [
        {
          "indexed": false,
          "internalType": "uint64",
          "name": "depositTreasuryFeeDivisor",
          "type": "uint64"
        }
      ],
      "name": "DepositTreasuryFeeDivisorUpdated",
      "type": "event"
    },
    {
      "anonymous": false,
      "inputs": [
        {
          "indexed": false,
          "internalType": "uint64",
          "name": "newDepositTxMaxFee",
          "type": "uint64"
        },
        {
          "indexed": false,
          "internalType": "uint256",
          "name": "timestamp",
          "type": "uint256"
        }
      ],
      "name": "DepositTxMaxFeeUpdateStarted",
      "type": "event"
    },
    {
      "anonymous": false,
      "inputs": [
        {
          "indexed": false,
          "internalType": "uint64",
          "name": "depositTxMaxFee",
          "type": "uint64"
        }
      ],
      "name": "DepositTxMaxFeeUpdated",
      "type": "event"
    },
    {
      "anonymous": false,
      "inputs": [
        {
          "indexed": false,
          "internalType": "uint32",
          "name": "newFraudChallengeDefeatTimeout",
          "type": "uint32"
        },
        {
          "indexed": false,
          "internalType": "uint256",
          "name": "timestamp",
          "type": "uint256"
        }
      ],
      "name": "FraudChallengeDefeatTimeoutUpdateStarted",
      "type": "event"
    },
    {
      "anonymous": false,
      "inputs": [
        {
          "indexed": false,
          "internalType": "uint32",
          "name": "fraudChallengeDefeatTimeout",
          "type": "uint32"
        }
      ],
      "name": "FraudChallengeDefeatTimeoutUpdated",
      "type": "event"
    },
    {
      "anonymous": false,
      "inputs": [
        {
          "indexed": false,
          "internalType": "uint96",
          "name": "newFraudChallengeDepositAmount",
          "type": "uint96"
        },
        {
          "indexed": false,
          "internalType": "uint256",
          "name": "timestamp",
          "type": "uint256"
        }
      ],
      "name": "FraudChallengeDepositAmountUpdateStarted",
      "type": "event"
    },
    {
      "anonymous": false,
      "inputs": [
        {
          "indexed": false,
          "internalType": "uint96",
          "name": "fraudChallengeDepositAmount",
          "type": "uint96"
        }
      ],
      "name": "FraudChallengeDepositAmountUpdated",
      "type": "event"
    },
    {
      "anonymous": false,
      "inputs": [
        {
          "indexed": false,
          "internalType": "uint32",
          "name": "newFraudNotifierRewardMultiplier",
          "type": "uint32"
        },
        {
          "indexed": false,
          "internalType": "uint256",
          "name": "timestamp",
          "type": "uint256"
        }
      ],
      "name": "FraudNotifierRewardMultiplierUpdateStarted",
      "type": "event"
    },
    {
      "anonymous": false,
      "inputs": [
        {
          "indexed": false,
          "internalType": "uint32",
          "name": "fraudNotifierRewardMultiplier",
          "type": "uint32"
        }
      ],
      "name": "FraudNotifierRewardMultiplierUpdated",
      "type": "event"
    },
    {
      "anonymous": false,
      "inputs": [
        {
          "indexed": false,
          "internalType": "uint96",
          "name": "newFraudSlashingAmount",
          "type": "uint96"
        },
        {
          "indexed": false,
          "internalType": "uint256",
          "name": "timestamp",
          "type": "uint256"
        }
      ],
      "name": "FraudSlashingAmountUpdateStarted",
      "type": "event"
    },
    {
      "anonymous": false,
      "inputs": [
        {
          "indexed": false,
          "internalType": "uint96",
          "name": "fraudSlashingAmount",
          "type": "uint96"
        }
      ],
      "name": "FraudSlashingAmountUpdated",
      "type": "event"
    },
    {
      "anonymous": false,
      "inputs": [
        {
          "indexed": false,
          "internalType": "uint32",
          "name": "newMovedFundsSweepTimeoutNotifierRewardMultiplier",
          "type": "uint32"
        },
        {
          "indexed": false,
          "internalType": "uint256",
          "name": "timestamp",
          "type": "uint256"
        }
      ],
      "name": "MovedFundsSweepTimeoutNotifierRewardMultiplierUpdateStarted",
      "type": "event"
    },
    {
      "anonymous": false,
      "inputs": [
        {
          "indexed": false,
          "internalType": "uint32",
          "name": "movedFundsSweepTimeoutNotifierRewardMultiplier",
          "type": "uint32"
        }
      ],
      "name": "MovedFundsSweepTimeoutNotifierRewardMultiplierUpdated",
      "type": "event"
    },
    {
      "anonymous": false,
      "inputs": [
        {
          "indexed": false,
          "internalType": "uint96",
          "name": "newMovedFundsSweepTimeoutSlashingAmount",
          "type": "uint96"
        },
        {
          "indexed": false,
          "internalType": "uint256",
          "name": "timestamp",
          "type": "uint256"
        }
      ],
      "name": "MovedFundsSweepTimeoutSlashingAmountUpdateStarted",
      "type": "event"
    },
    {
      "anonymous": false,
      "inputs": [
        {
          "indexed": false,
          "internalType": "uint96",
          "name": "movedFundsSweepTimeoutSlashingAmount",
          "type": "uint96"
        }
      ],
      "name": "MovedFundsSweepTimeoutSlashingAmountUpdated",
      "type": "event"
    },
    {
      "anonymous": false,
      "inputs": [
        {
          "indexed": false,
          "internalType": "uint32",
          "name": "newMovedFundsSweepTimeout",
          "type": "uint32"
        },
        {
          "indexed": false,
          "internalType": "uint256",
          "name": "timestamp",
          "type": "uint256"
        }
      ],
      "name": "MovedFundsSweepTimeoutUpdateStarted",
      "type": "event"
    },
    {
      "anonymous": false,
      "inputs": [
        {
          "indexed": false,
          "internalType": "uint32",
          "name": "movedFundsSweepTimeout",
          "type": "uint32"
        }
      ],
      "name": "MovedFundsSweepTimeoutUpdated",
      "type": "event"
    },
    {
      "anonymous": false,
      "inputs": [
        {
          "indexed": false,
          "internalType": "uint64",
          "name": "newMovedFundsSweepTxMaxTotalFee",
          "type": "uint64"
        },
        {
          "indexed": false,
          "internalType": "uint256",
          "name": "timestamp",
          "type": "uint256"
        }
      ],
      "name": "MovedFundsSweepTxMaxTotalFeeUpdateStarted",
      "type": "event"
    },
    {
      "anonymous": false,
      "inputs": [
        {
          "indexed": false,
          "internalType": "uint64",
          "name": "movedFundsSweepTxMaxTotalFee",
          "type": "uint64"
        }
      ],
      "name": "MovedFundsSweepTxMaxTotalFeeUpdated",
      "type": "event"
    },
    {
      "anonymous": false,
      "inputs": [
        {
          "indexed": false,
          "internalType": "uint16",
          "name": "newMovingFundsCommitmentGasOffset",
          "type": "uint16"
        },
        {
          "indexed": false,
          "internalType": "uint256",
          "name": "timestamp",
          "type": "uint256"
        }
      ],
      "name": "MovingFundsCommitmentGasOffsetUpdateStarted",
      "type": "event"
    },
    {
      "anonymous": false,
      "inputs": [
        {
          "indexed": false,
          "internalType": "uint16",
          "name": "movingFundsCommitmentGasOffset",
          "type": "uint16"
        }
      ],
      "name": "MovingFundsCommitmentGasOffsetUpdated",
      "type": "event"
    },
    {
      "anonymous": false,
      "inputs": [
        {
          "indexed": false,
          "internalType": "uint64",
          "name": "newMovingFundsDustThreshold",
          "type": "uint64"
        },
        {
          "indexed": false,
          "internalType": "uint256",
          "name": "timestamp",
          "type": "uint256"
        }
      ],
      "name": "MovingFundsDustThresholdUpdateStarted",
      "type": "event"
    },
    {
      "anonymous": false,
      "inputs": [
        {
          "indexed": false,
          "internalType": "uint64",
          "name": "movingFundsDustThreshold",
          "type": "uint64"
        }
      ],
      "name": "MovingFundsDustThresholdUpdated",
      "type": "event"
    },
    {
      "anonymous": false,
      "inputs": [
        {
          "indexed": false,
          "internalType": "uint32",
          "name": "newMovingFundsTimeoutNotifierRewardMultiplier",
          "type": "uint32"
        },
        {
          "indexed": false,
          "internalType": "uint256",
          "name": "timestamp",
          "type": "uint256"
        }
      ],
      "name": "MovingFundsTimeoutNotifierRewardMultiplierUpdateStarted",
      "type": "event"
    },
    {
      "anonymous": false,
      "inputs": [
        {
          "indexed": false,
          "internalType": "uint32",
          "name": "movingFundsTimeoutNotifierRewardMultiplier",
          "type": "uint32"
        }
      ],
      "name": "MovingFundsTimeoutNotifierRewardMultiplierUpdated",
      "type": "event"
    },
    {
      "anonymous": false,
      "inputs": [
        {
          "indexed": false,
          "internalType": "uint32",
          "name": "newMovingFundsTimeoutResetDelay",
          "type": "uint32"
        },
        {
          "indexed": false,
          "internalType": "uint256",
          "name": "timestamp",
          "type": "uint256"
        }
      ],
      "name": "MovingFundsTimeoutResetDelayUpdateStarted",
      "type": "event"
    },
    {
      "anonymous": false,
      "inputs": [
        {
          "indexed": false,
          "internalType": "uint32",
          "name": "movingFundsTimeoutResetDelay",
          "type": "uint32"
        }
      ],
      "name": "MovingFundsTimeoutResetDelayUpdated",
      "type": "event"
    },
    {
      "anonymous": false,
      "inputs": [
        {
          "indexed": false,
          "internalType": "uint96",
          "name": "newMovingFundsTimeoutSlashingAmount",
          "type": "uint96"
        },
        {
          "indexed": false,
          "internalType": "uint256",
          "name": "timestamp",
          "type": "uint256"
        }
      ],
      "name": "MovingFundsTimeoutSlashingAmountUpdateStarted",
      "type": "event"
    },
    {
      "anonymous": false,
      "inputs": [
        {
          "indexed": false,
          "internalType": "uint96",
          "name": "movingFundsTimeoutSlashingAmount",
          "type": "uint96"
        }
      ],
      "name": "MovingFundsTimeoutSlashingAmountUpdated",
      "type": "event"
    },
    {
      "anonymous": false,
      "inputs": [
        {
          "indexed": false,
          "internalType": "uint32",
          "name": "newMovingFundsTimeout",
          "type": "uint32"
        },
        {
          "indexed": false,
          "internalType": "uint256",
          "name": "timestamp",
          "type": "uint256"
        }
      ],
      "name": "MovingFundsTimeoutUpdateStarted",
      "type": "event"
    },
    {
      "anonymous": false,
      "inputs": [
        {
          "indexed": false,
          "internalType": "uint32",
          "name": "movingFundsTimeout",
          "type": "uint32"
        }
      ],
      "name": "MovingFundsTimeoutUpdated",
      "type": "event"
    },
    {
      "anonymous": false,
      "inputs": [
        {
          "indexed": false,
          "internalType": "uint64",
          "name": "newMovingFundsTxMaxTotalFee",
          "type": "uint64"
        },
        {
          "indexed": false,
          "internalType": "uint256",
          "name": "timestamp",
          "type": "uint256"
        }
      ],
      "name": "MovingFundsTxMaxTotalFeeUpdateStarted",
      "type": "event"
    },
    {
      "anonymous": false,
      "inputs": [
        {
          "indexed": false,
          "internalType": "uint64",
          "name": "movingFundsTxMaxTotalFee",
          "type": "uint64"
        }
      ],
      "name": "MovingFundsTxMaxTotalFeeUpdated",
      "type": "event"
    },
    {
      "anonymous": false,
      "inputs": [
        {
          "indexed": true,
          "internalType": "address",
          "name": "previousOwner",
          "type": "address"
        },
        {
          "indexed": true,
          "internalType": "address",
          "name": "newOwner",
          "type": "address"
        }
      ],
      "name": "OwnershipTransferred",
      "type": "event"
    },
    {
      "anonymous": false,
      "inputs": [
        {
          "indexed": false,
          "internalType": "uint64",
          "name": "newRedemptionDustThreshold",
          "type": "uint64"
        },
        {
          "indexed": false,
          "internalType": "uint256",
          "name": "timestamp",
          "type": "uint256"
        }
      ],
      "name": "RedemptionDustThresholdUpdateStarted",
      "type": "event"
    },
    {
      "anonymous": false,
      "inputs": [
        {
          "indexed": false,
          "internalType": "uint64",
          "name": "redemptionDustThreshold",
          "type": "uint64"
        }
      ],
      "name": "RedemptionDustThresholdUpdated",
      "type": "event"
    },
    {
      "anonymous": false,
      "inputs": [
        {
          "indexed": false,
          "internalType": "uint32",
          "name": "newRedemptionTimeoutNotifierRewardMultiplier",
          "type": "uint32"
        },
        {
          "indexed": false,
          "internalType": "uint256",
          "name": "timestamp",
          "type": "uint256"
        }
      ],
      "name": "RedemptionTimeoutNotifierRewardMultiplierUpdateStarted",
      "type": "event"
    },
    {
      "anonymous": false,
      "inputs": [
        {
          "indexed": false,
          "internalType": "uint32",
          "name": "redemptionTimeoutNotifierRewardMultiplier",
          "type": "uint32"
        }
      ],
      "name": "RedemptionTimeoutNotifierRewardMultiplierUpdated",
      "type": "event"
    },
    {
      "anonymous": false,
      "inputs": [
        {
          "indexed": false,
          "internalType": "uint96",
          "name": "newRedemptionTimeoutSlashingAmount",
          "type": "uint96"
        },
        {
          "indexed": false,
          "internalType": "uint256",
          "name": "timestamp",
          "type": "uint256"
        }
      ],
      "name": "RedemptionTimeoutSlashingAmountUpdateStarted",
      "type": "event"
    },
    {
      "anonymous": false,
      "inputs": [
        {
          "indexed": false,
          "internalType": "uint96",
          "name": "redemptionTimeoutSlashingAmount",
          "type": "uint96"
        }
      ],
      "name": "RedemptionTimeoutSlashingAmountUpdated",
      "type": "event"
    },
    {
      "anonymous": false,
      "inputs": [
        {
          "indexed": false,
          "internalType": "uint32",
          "name": "newRedemptionTimeout",
          "type": "uint32"
        },
        {
          "indexed": false,
          "internalType": "uint256",
          "name": "timestamp",
          "type": "uint256"
        }
      ],
      "name": "RedemptionTimeoutUpdateStarted",
      "type": "event"
    },
    {
      "anonymous": false,
      "inputs": [
        {
          "indexed": false,
          "internalType": "uint32",
          "name": "redemptionTimeout",
          "type": "uint32"
        }
      ],
      "name": "RedemptionTimeoutUpdated",
      "type": "event"
    },
    {
      "anonymous": false,
      "inputs": [
        {
          "indexed": false,
          "internalType": "uint64",
          "name": "newRedemptionTreasuryFeeDivisor",
          "type": "uint64"
        },
        {
          "indexed": false,
          "internalType": "uint256",
          "name": "timestamp",
          "type": "uint256"
        }
      ],
      "name": "RedemptionTreasuryFeeDivisorUpdateStarted",
      "type": "event"
    },
    {
      "anonymous": false,
      "inputs": [
        {
          "indexed": false,
          "internalType": "uint64",
          "name": "redemptionTreasuryFeeDivisor",
          "type": "uint64"
        }
      ],
      "name": "RedemptionTreasuryFeeDivisorUpdated",
      "type": "event"
    },
    {
      "anonymous": false,
      "inputs": [
        {
          "indexed": false,
          "internalType": "uint64",
          "name": "newRedemptionTxMaxFee",
          "type": "uint64"
        },
        {
          "indexed": false,
          "internalType": "uint256",
          "name": "timestamp",
          "type": "uint256"
        }
      ],
      "name": "RedemptionTxMaxFeeUpdateStarted",
      "type": "event"
    },
    {
      "anonymous": false,
      "inputs": [
        {
          "indexed": false,
          "internalType": "uint64",
          "name": "redemptionTxMaxFee",
          "type": "uint64"
        }
      ],
      "name": "RedemptionTxMaxFeeUpdated",
      "type": "event"
    },
    {
      "anonymous": false,
      "inputs": [
        {
          "indexed": false,
          "internalType": "uint64",
          "name": "newRedemptionTxMaxTotalFee",
          "type": "uint64"
        },
        {
          "indexed": false,
          "internalType": "uint256",
          "name": "timestamp",
          "type": "uint256"
        }
      ],
      "name": "RedemptionTxMaxTotalFeeUpdateStarted",
      "type": "event"
    },
    {
      "anonymous": false,
      "inputs": [
        {
          "indexed": false,
          "internalType": "uint64",
          "name": "redemptionTxMaxTotalFee",
          "type": "uint64"
        }
      ],
      "name": "RedemptionTxMaxTotalFeeUpdated",
      "type": "event"
    },
    {
      "anonymous": false,
      "inputs": [
        {
          "indexed": false,
          "internalType": "address",
          "name": "newTreasury",
          "type": "address"
        },
        {
          "indexed": false,
          "internalType": "uint256",
          "name": "timestamp",
          "type": "uint256"
        }
      ],
      "name": "TreasuryUpdateStarted",
      "type": "event"
    },
    {
      "anonymous": false,
      "inputs": [
        {
          "indexed": false,
          "internalType": "address",
          "name": "treasury",
          "type": "address"
        }
      ],
      "name": "TreasuryUpdated",
      "type": "event"
    },
    {
      "anonymous": false,
      "inputs": [
        {
          "indexed": false,
          "internalType": "uint32",
          "name": "newWalletClosingPeriod",
          "type": "uint32"
        },
        {
          "indexed": false,
          "internalType": "uint256",
          "name": "timestamp",
          "type": "uint256"
        }
      ],
      "name": "WalletClosingPeriodUpdateStarted",
      "type": "event"
    },
    {
      "anonymous": false,
      "inputs": [
        {
          "indexed": false,
          "internalType": "uint32",
          "name": "walletClosingPeriod",
          "type": "uint32"
        }
      ],
      "name": "WalletClosingPeriodUpdated",
      "type": "event"
    },
    {
      "anonymous": false,
      "inputs": [
        {
          "indexed": false,
          "internalType": "uint64",
          "name": "newWalletClosureMinBtcBalance",
          "type": "uint64"
        },
        {
          "indexed": false,
          "internalType": "uint256",
          "name": "timestamp",
          "type": "uint256"
        }
      ],
      "name": "WalletClosureMinBtcBalanceUpdateStarted",
      "type": "event"
    },
    {
      "anonymous": false,
      "inputs": [
        {
          "indexed": false,
          "internalType": "uint64",
          "name": "walletClosureMinBtcBalance",
          "type": "uint64"
        }
      ],
      "name": "WalletClosureMinBtcBalanceUpdated",
      "type": "event"
    },
    {
      "anonymous": false,
      "inputs": [
        {
          "indexed": false,
          "internalType": "uint64",
          "name": "newWalletCreationMaxBtcBalance",
          "type": "uint64"
        },
        {
          "indexed": false,
          "internalType": "uint256",
          "name": "timestamp",
          "type": "uint256"
        }
      ],
      "name": "WalletCreationMaxBtcBalanceUpdateStarted",
      "type": "event"
    },
    {
      "anonymous": false,
      "inputs": [
        {
          "indexed": false,
          "internalType": "uint64",
          "name": "walletCreationMaxBtcBalance",
          "type": "uint64"
        }
      ],
      "name": "WalletCreationMaxBtcBalanceUpdated",
      "type": "event"
    },
    {
      "anonymous": false,
      "inputs": [
        {
          "indexed": false,
          "internalType": "uint64",
          "name": "newWalletCreationMinBtcBalance",
          "type": "uint64"
        },
        {
          "indexed": false,
          "internalType": "uint256",
          "name": "timestamp",
          "type": "uint256"
        }
      ],
      "name": "WalletCreationMinBtcBalanceUpdateStarted",
      "type": "event"
    },
    {
      "anonymous": false,
      "inputs": [
        {
          "indexed": false,
          "internalType": "uint64",
          "name": "walletCreationMinBtcBalance",
          "type": "uint64"
        }
      ],
      "name": "WalletCreationMinBtcBalanceUpdated",
      "type": "event"
    },
    {
      "anonymous": false,
      "inputs": [
        {
          "indexed": false,
          "internalType": "uint32",
          "name": "newWalletCreationPeriod",
          "type": "uint32"
        },
        {
          "indexed": false,
          "internalType": "uint256",
          "name": "timestamp",
          "type": "uint256"
        }
      ],
      "name": "WalletCreationPeriodUpdateStarted",
      "type": "event"
    },
    {
      "anonymous": false,
      "inputs": [
        {
          "indexed": false,
          "internalType": "uint32",
          "name": "walletCreationPeriod",
          "type": "uint32"
        }
      ],
      "name": "WalletCreationPeriodUpdated",
      "type": "event"
    },
    {
      "anonymous": false,
      "inputs": [
        {
          "indexed": false,
          "internalType": "uint32",
          "name": "newWalletMaxAge",
          "type": "uint32"
        },
        {
          "indexed": false,
          "internalType": "uint256",
          "name": "timestamp",
          "type": "uint256"
        }
      ],
      "name": "WalletMaxAgeUpdateStarted",
      "type": "event"
    },
    {
      "anonymous": false,
      "inputs": [
        {
          "indexed": false,
          "internalType": "uint32",
          "name": "walletMaxAge",
          "type": "uint32"
        }
      ],
      "name": "WalletMaxAgeUpdated",
      "type": "event"
    },
    {
      "anonymous": false,
      "inputs": [
        {
          "indexed": false,
          "internalType": "uint64",
          "name": "newWalletMaxBtcTransfer",
          "type": "uint64"
        },
        {
          "indexed": false,
          "internalType": "uint256",
          "name": "timestamp",
          "type": "uint256"
        }
      ],
      "name": "WalletMaxBtcTransferUpdateStarted",
      "type": "event"
    },
    {
      "anonymous": false,
      "inputs": [
        {
          "indexed": false,
          "internalType": "uint64",
          "name": "walletMaxBtcTransfer",
          "type": "uint64"
        }
      ],
      "name": "WalletMaxBtcTransferUpdated",
      "type": "event"
    },
    {
      "inputs": [
        {
          "internalType": "address",
          "name": "_newBridgeGovernance",
          "type": "address"
        }
      ],
      "name": "beginBridgeGovernanceTransfer",
      "outputs": [],
      "stateMutability": "nonpayable",
      "type": "function"
    },
    {
      "inputs": [
        {
          "internalType": "uint64",
          "name": "_newDepositDustThreshold",
          "type": "uint64"
        }
      ],
      "name": "beginDepositDustThresholdUpdate",
      "outputs": [],
      "stateMutability": "nonpayable",
      "type": "function"
    },
    {
      "inputs": [
        {
          "internalType": "uint32",
          "name": "_newDepositRevealAheadPeriod",
          "type": "uint32"
        }
      ],
      "name": "beginDepositRevealAheadPeriodUpdate",
      "outputs": [],
      "stateMutability": "nonpayable",
      "type": "function"
    },
    {
      "inputs": [
        {
          "internalType": "uint64",
          "name": "_newDepositTreasuryFeeDivisor",
          "type": "uint64"
        }
      ],
      "name": "beginDepositTreasuryFeeDivisorUpdate",
      "outputs": [],
      "stateMutability": "nonpayable",
      "type": "function"
    },
    {
      "inputs": [
        {
          "internalType": "uint64",
          "name": "_newDepositTxMaxFee",
          "type": "uint64"
        }
      ],
      "name": "beginDepositTxMaxFeeUpdate",
      "outputs": [],
      "stateMutability": "nonpayable",
      "type": "function"
    },
    {
      "inputs": [
        {
          "internalType": "uint32",
          "name": "_newFraudChallengeDefeatTimeout",
          "type": "uint32"
        }
      ],
      "name": "beginFraudChallengeDefeatTimeoutUpdate",
      "outputs": [],
      "stateMutability": "nonpayable",
      "type": "function"
    },
    {
      "inputs": [
        {
          "internalType": "uint96",
          "name": "_newFraudChallengeDepositAmount",
          "type": "uint96"
        }
      ],
      "name": "beginFraudChallengeDepositAmountUpdate",
      "outputs": [],
      "stateMutability": "nonpayable",
      "type": "function"
    },
    {
      "inputs": [
        {
          "internalType": "uint32",
          "name": "_newFraudNotifierRewardMultiplier",
          "type": "uint32"
        }
      ],
      "name": "beginFraudNotifierRewardMultiplierUpdate",
      "outputs": [],
      "stateMutability": "nonpayable",
      "type": "function"
    },
    {
      "inputs": [
        {
          "internalType": "uint96",
          "name": "_newFraudSlashingAmount",
          "type": "uint96"
        }
      ],
      "name": "beginFraudSlashingAmountUpdate",
      "outputs": [],
      "stateMutability": "nonpayable",
      "type": "function"
    },
    {
      "inputs": [
        {
          "internalType": "uint256",
          "name": "_newGovernanceDelay",
          "type": "uint256"
        }
      ],
      "name": "beginGovernanceDelayUpdate",
      "outputs": [],
      "stateMutability": "nonpayable",
      "type": "function"
    },
    {
      "inputs": [
        {
          "internalType": "uint32",
          "name": "_newMovedFundsSweepTimeoutNotifierRewardMultiplier",
          "type": "uint32"
        }
      ],
      "name": "beginMovedFundsSweepTimeoutNotifierRewardMultiplierUpdate",
      "outputs": [],
      "stateMutability": "nonpayable",
      "type": "function"
    },
    {
      "inputs": [
        {
          "internalType": "uint96",
          "name": "_newMovedFundsSweepTimeoutSlashingAmount",
          "type": "uint96"
        }
      ],
      "name": "beginMovedFundsSweepTimeoutSlashingAmountUpdate",
      "outputs": [],
      "stateMutability": "nonpayable",
      "type": "function"
    },
    {
      "inputs": [
        {
          "internalType": "uint32",
          "name": "_newMovedFundsSweepTimeout",
          "type": "uint32"
        }
      ],
      "name": "beginMovedFundsSweepTimeoutUpdate",
      "outputs": [],
      "stateMutability": "nonpayable",
      "type": "function"
    },
    {
      "inputs": [
        {
          "internalType": "uint64",
          "name": "_newMovedFundsSweepTxMaxTotalFee",
          "type": "uint64"
        }
      ],
      "name": "beginMovedFundsSweepTxMaxTotalFeeUpdate",
      "outputs": [],
      "stateMutability": "nonpayable",
      "type": "function"
    },
    {
      "inputs": [
        {
          "internalType": "uint16",
          "name": "_newMovingFundsCommitmentGasOffset",
          "type": "uint16"
        }
      ],
      "name": "beginMovingFundsCommitmentGasOffsetUpdate",
      "outputs": [],
      "stateMutability": "nonpayable",
      "type": "function"
    },
    {
      "inputs": [
        {
          "internalType": "uint64",
          "name": "_newMovingFundsDustThreshold",
          "type": "uint64"
        }
      ],
      "name": "beginMovingFundsDustThresholdUpdate",
      "outputs": [],
      "stateMutability": "nonpayable",
      "type": "function"
    },
    {
      "inputs": [
        {
          "internalType": "uint32",
          "name": "_newMovingFundsTimeoutNotifierRewardMultiplier",
          "type": "uint32"
        }
      ],
      "name": "beginMovingFundsTimeoutNotifierRewardMultiplierUpdate",
      "outputs": [],
      "stateMutability": "nonpayable",
      "type": "function"
    },
    {
      "inputs": [
        {
          "internalType": "uint32",
          "name": "_newMovingFundsTimeoutResetDelay",
          "type": "uint32"
        }
      ],
      "name": "beginMovingFundsTimeoutResetDelayUpdate",
      "outputs": [],
      "stateMutability": "nonpayable",
      "type": "function"
    },
    {
      "inputs": [
        {
          "internalType": "uint96",
          "name": "_newMovingFundsTimeoutSlashingAmount",
          "type": "uint96"
        }
      ],
      "name": "beginMovingFundsTimeoutSlashingAmountUpdate",
      "outputs": [],
      "stateMutability": "nonpayable",
      "type": "function"
    },
    {
      "inputs": [
        {
          "internalType": "uint32",
          "name": "_newMovingFundsTimeout",
          "type": "uint32"
        }
      ],
      "name": "beginMovingFundsTimeoutUpdate",
      "outputs": [],
      "stateMutability": "nonpayable",
      "type": "function"
    },
    {
      "inputs": [
        {
          "internalType": "uint64",
          "name": "_newMovingFundsTxMaxTotalFee",
          "type": "uint64"
        }
      ],
      "name": "beginMovingFundsTxMaxTotalFeeUpdate",
      "outputs": [],
      "stateMutability": "nonpayable",
      "type": "function"
    },
    {
      "inputs": [
        {
          "internalType": "uint64",
          "name": "_newRedemptionDustThreshold",
          "type": "uint64"
        }
      ],
      "name": "beginRedemptionDustThresholdUpdate",
      "outputs": [],
      "stateMutability": "nonpayable",
      "type": "function"
    },
    {
      "inputs": [
        {
          "internalType": "uint32",
          "name": "_newRedemptionTimeoutNotifierRewardMultiplier",
          "type": "uint32"
        }
      ],
      "name": "beginRedemptionTimeoutNotifierRewardMultiplierUpdate",
      "outputs": [],
      "stateMutability": "nonpayable",
      "type": "function"
    },
    {
      "inputs": [
        {
          "internalType": "uint96",
          "name": "_newRedemptionTimeoutSlashingAmount",
          "type": "uint96"
        }
      ],
      "name": "beginRedemptionTimeoutSlashingAmountUpdate",
      "outputs": [],
      "stateMutability": "nonpayable",
      "type": "function"
    },
    {
      "inputs": [
        {
          "internalType": "uint32",
          "name": "_newRedemptionTimeout",
          "type": "uint32"
        }
      ],
      "name": "beginRedemptionTimeoutUpdate",
      "outputs": [],
      "stateMutability": "nonpayable",
      "type": "function"
    },
    {
      "inputs": [
        {
          "internalType": "uint64",
          "name": "_newRedemptionTreasuryFeeDivisor",
          "type": "uint64"
        }
      ],
      "name": "beginRedemptionTreasuryFeeDivisorUpdate",
      "outputs": [],
      "stateMutability": "nonpayable",
      "type": "function"
    },
    {
      "inputs": [
        {
          "internalType": "uint64",
          "name": "_newRedemptionTxMaxFee",
          "type": "uint64"
        }
      ],
      "name": "beginRedemptionTxMaxFeeUpdate",
      "outputs": [],
      "stateMutability": "nonpayable",
      "type": "function"
    },
    {
      "inputs": [
        {
          "internalType": "uint64",
          "name": "_newRedemptionTxMaxTotalFee",
          "type": "uint64"
        }
      ],
      "name": "beginRedemptionTxMaxTotalFeeUpdate",
      "outputs": [],
      "stateMutability": "nonpayable",
      "type": "function"
    },
    {
      "inputs": [
        {
          "internalType": "address",
          "name": "_newTreasury",
          "type": "address"
        }
      ],
      "name": "beginTreasuryUpdate",
      "outputs": [],
      "stateMutability": "nonpayable",
      "type": "function"
    },
    {
      "inputs": [
        {
          "internalType": "uint32",
          "name": "_newWalletClosingPeriod",
          "type": "uint32"
        }
      ],
      "name": "beginWalletClosingPeriodUpdate",
      "outputs": [],
      "stateMutability": "nonpayable",
      "type": "function"
    },
    {
      "inputs": [
        {
          "internalType": "uint64",
          "name": "_newWalletClosureMinBtcBalance",
          "type": "uint64"
        }
      ],
      "name": "beginWalletClosureMinBtcBalanceUpdate",
      "outputs": [],
      "stateMutability": "nonpayable",
      "type": "function"
    },
    {
      "inputs": [
        {
          "internalType": "uint64",
          "name": "_newWalletCreationMaxBtcBalance",
          "type": "uint64"
        }
      ],
      "name": "beginWalletCreationMaxBtcBalanceUpdate",
      "outputs": [],
      "stateMutability": "nonpayable",
      "type": "function"
    },
    {
      "inputs": [
        {
          "internalType": "uint64",
          "name": "_newWalletCreationMinBtcBalance",
          "type": "uint64"
        }
      ],
      "name": "beginWalletCreationMinBtcBalanceUpdate",
      "outputs": [],
      "stateMutability": "nonpayable",
      "type": "function"
    },
    {
      "inputs": [
        {
          "internalType": "uint32",
          "name": "_newWalletCreationPeriod",
          "type": "uint32"
        }
      ],
      "name": "beginWalletCreationPeriodUpdate",
      "outputs": [],
      "stateMutability": "nonpayable",
      "type": "function"
    },
    {
      "inputs": [
        {
          "internalType": "uint32",
          "name": "_newWalletMaxAge",
          "type": "uint32"
        }
      ],
      "name": "beginWalletMaxAgeUpdate",
      "outputs": [],
      "stateMutability": "nonpayable",
      "type": "function"
    },
    {
      "inputs": [
        {
          "internalType": "uint64",
          "name": "_newWalletMaxBtcTransfer",
          "type": "uint64"
        }
      ],
      "name": "beginWalletMaxBtcTransferUpdate",
      "outputs": [],
      "stateMutability": "nonpayable",
      "type": "function"
    },
    {
      "inputs": [],
      "name": "bridgeGovernanceTransferChangeInitiated",
      "outputs": [
        {
          "internalType": "uint256",
          "name": "",
          "type": "uint256"
        }
      ],
      "stateMutability": "view",
      "type": "function"
    },
    {
      "inputs": [],
      "name": "finalizeBridgeGovernanceTransfer",
      "outputs": [],
      "stateMutability": "nonpayable",
      "type": "function"
    },
    {
      "inputs": [],
      "name": "finalizeDepositDustThresholdUpdate",
      "outputs": [],
      "stateMutability": "nonpayable",
      "type": "function"
    },
    {
      "inputs": [],
      "name": "finalizeDepositRevealAheadPeriodUpdate",
      "outputs": [],
      "stateMutability": "nonpayable",
      "type": "function"
    },
    {
      "inputs": [],
      "name": "finalizeDepositTreasuryFeeDivisorUpdate",
      "outputs": [],
      "stateMutability": "nonpayable",
      "type": "function"
    },
    {
      "inputs": [],
      "name": "finalizeDepositTxMaxFeeUpdate",
      "outputs": [],
      "stateMutability": "nonpayable",
      "type": "function"
    },
    {
      "inputs": [],
      "name": "finalizeFraudChallengeDefeatTimeoutUpdate",
      "outputs": [],
      "stateMutability": "nonpayable",
      "type": "function"
    },
    {
      "inputs": [],
      "name": "finalizeFraudChallengeDepositAmountUpdate",
      "outputs": [],
      "stateMutability": "nonpayable",
      "type": "function"
    },
    {
      "inputs": [],
      "name": "finalizeFraudNotifierRewardMultiplierUpdate",
      "outputs": [],
      "stateMutability": "nonpayable",
      "type": "function"
    },
    {
      "inputs": [],
      "name": "finalizeFraudSlashingAmountUpdate",
      "outputs": [],
      "stateMutability": "nonpayable",
      "type": "function"
    },
    {
      "inputs": [],
      "name": "finalizeGovernanceDelayUpdate",
      "outputs": [],
      "stateMutability": "nonpayable",
      "type": "function"
    },
    {
      "inputs": [],
      "name": "finalizeMovedFundsSweepTimeoutNotifierRewardMultiplierUpdate",
      "outputs": [],
      "stateMutability": "nonpayable",
      "type": "function"
    },
    {
      "inputs": [],
      "name": "finalizeMovedFundsSweepTimeoutSlashingAmountUpdate",
      "outputs": [],
      "stateMutability": "nonpayable",
      "type": "function"
    },
    {
      "inputs": [],
      "name": "finalizeMovedFundsSweepTimeoutUpdate",
      "outputs": [],
      "stateMutability": "nonpayable",
      "type": "function"
    },
    {
      "inputs": [],
      "name": "finalizeMovedFundsSweepTxMaxTotalFeeUpdate",
      "outputs": [],
      "stateMutability": "nonpayable",
      "type": "function"
    },
    {
      "inputs": [],
      "name": "finalizeMovingFundsCommitmentGasOffsetUpdate",
      "outputs": [],
      "stateMutability": "nonpayable",
      "type": "function"
    },
    {
      "inputs": [],
      "name": "finalizeMovingFundsDustThresholdUpdate",
      "outputs": [],
      "stateMutability": "nonpayable",
      "type": "function"
    },
    {
      "inputs": [],
      "name": "finalizeMovingFundsTimeoutNotifierRewardMultiplierUpdate",
      "outputs": [],
      "stateMutability": "nonpayable",
      "type": "function"
    },
    {
      "inputs": [],
      "name": "finalizeMovingFundsTimeoutResetDelayUpdate",
      "outputs": [],
      "stateMutability": "nonpayable",
      "type": "function"
    },
    {
      "inputs": [],
      "name": "finalizeMovingFundsTimeoutSlashingAmountUpdate",
      "outputs": [],
      "stateMutability": "nonpayable",
      "type": "function"
    },
    {
      "inputs": [],
      "name": "finalizeMovingFundsTimeoutUpdate",
      "outputs": [],
      "stateMutability": "nonpayable",
      "type": "function"
    },
    {
      "inputs": [],
      "name": "finalizeMovingFundsTxMaxTotalFeeUpdate",
      "outputs": [],
      "stateMutability": "nonpayable",
      "type": "function"
    },
    {
      "inputs": [],
      "name": "finalizeRedemptionDustThresholdUpdate",
      "outputs": [],
      "stateMutability": "nonpayable",
      "type": "function"
    },
    {
      "inputs": [],
      "name": "finalizeRedemptionTimeoutNotifierRewardMultiplierUpdate",
      "outputs": [],
      "stateMutability": "nonpayable",
      "type": "function"
    },
    {
      "inputs": [],
      "name": "finalizeRedemptionTimeoutSlashingAmountUpdate",
      "outputs": [],
      "stateMutability": "nonpayable",
      "type": "function"
    },
    {
      "inputs": [],
      "name": "finalizeRedemptionTimeoutUpdate",
      "outputs": [],
      "stateMutability": "nonpayable",
      "type": "function"
    },
    {
      "inputs": [],
      "name": "finalizeRedemptionTreasuryFeeDivisorUpdate",
      "outputs": [],
      "stateMutability": "nonpayable",
      "type": "function"
    },
    {
      "inputs": [],
      "name": "finalizeRedemptionTxMaxFeeUpdate",
      "outputs": [],
      "stateMutability": "nonpayable",
      "type": "function"
    },
    {
      "inputs": [],
      "name": "finalizeRedemptionTxMaxTotalFeeUpdate",
      "outputs": [],
      "stateMutability": "nonpayable",
      "type": "function"
    },
    {
      "inputs": [],
      "name": "finalizeTreasuryUpdate",
      "outputs": [],
      "stateMutability": "nonpayable",
      "type": "function"
    },
    {
      "inputs": [],
      "name": "finalizeWalletClosingPeriodUpdate",
      "outputs": [],
      "stateMutability": "nonpayable",
      "type": "function"
    },
    {
      "inputs": [],
      "name": "finalizeWalletClosureMinBtcBalanceUpdate",
      "outputs": [],
      "stateMutability": "nonpayable",
      "type": "function"
    },
    {
      "inputs": [],
      "name": "finalizeWalletCreationMaxBtcBalanceUpdate",
      "outputs": [],
      "stateMutability": "nonpayable",
      "type": "function"
    },
    {
      "inputs": [],
      "name": "finalizeWalletCreationMinBtcBalanceUpdate",
      "outputs": [],
      "stateMutability": "nonpayable",
      "type": "function"
    },
    {
      "inputs": [],
      "name": "finalizeWalletCreationPeriodUpdate",
      "outputs": [],
      "stateMutability": "nonpayable",
      "type": "function"
    },
    {
      "inputs": [],
      "name": "finalizeWalletMaxAgeUpdate",
      "outputs": [],
      "stateMutability": "nonpayable",
      "type": "function"
    },
    {
      "inputs": [],
      "name": "finalizeWalletMaxBtcTransferUpdate",
      "outputs": [],
      "stateMutability": "nonpayable",
      "type": "function"
    },
    {
      "inputs": [
        {
          "internalType": "uint256",
          "name": "",
          "type": "uint256"
        }
      ],
      "name": "governanceDelays",
      "outputs": [
        {
          "internalType": "uint256",
          "name": "",
          "type": "uint256"
        }
      ],
      "stateMutability": "view",
      "type": "function"
    },
    {
      "inputs": [],
      "name": "owner",
      "outputs": [
        {
          "internalType": "address",
          "name": "",
          "type": "address"
        }
      ],
      "stateMutability": "view",
      "type": "function"
    },
    {
      "inputs": [],
      "name": "renounceOwnership",
      "outputs": [],
      "stateMutability": "nonpayable",
      "type": "function"
    },
    {
      "inputs": [
        {
          "internalType": "address",
          "name": "redemptionWatchtower",
          "type": "address"
        }
      ],
      "name": "setRedemptionWatchtower",
      "outputs": [],
      "stateMutability": "nonpayable",
      "type": "function"
    },
    {
      "inputs": [
        {
          "internalType": "address",
          "name": "spvMaintainer",
          "type": "address"
        },
        {
          "internalType": "bool",
          "name": "isTrusted",
          "type": "bool"
        }
      ],
      "name": "setSpvMaintainerStatus",
      "outputs": [],
      "stateMutability": "nonpayable",
      "type": "function"
    },
    {
      "inputs": [
        {
          "internalType": "address",
          "name": "vault",
          "type": "address"
        },
        {
          "internalType": "bool",
          "name": "isTrusted",
          "type": "bool"
        }
      ],
      "name": "setVaultStatus",
      "outputs": [],
      "stateMutability": "nonpayable",
      "type": "function"
    },
    {
      "inputs": [
        {
          "internalType": "address",
          "name": "newOwner",
          "type": "address"
        }
      ],
      "name": "transferOwnership",
      "outputs": [],
      "stateMutability": "nonpayable",
      "type": "function"
    }
  ],
  "transactionHash": "0x711d9ad556feb2c098a6d60d1b0aa6d84b948538753eaccbf33218ada8f1256e",
  "args": [
    "0x5e4861a80B55f035D899f66772117F00FA0E8e7B",
    172800
  ],
  "numDeployments": 2,
  "solcInputHash": "55668483c8e646c24290782f9a134e59",
  "bytecode": "0x60806040523480156200001157600080fd5b5060405162004e1e38038062004e1e8339810160408190526200003491620000ba565b6200003f336200006a565b604580546001600160a01b0319166001600160a01b0384161790558060466000015550620000f69050565b600080546001600160a01b038381166001600160a01b0319831681178455604051919092169283917f8be0079c531659141344cd1fd0a4f28419497f9722a3daafe3b4186f6b6457e09190a35050565b60008060408385031215620000ce57600080fd5b82516001600160a01b0381168114620000e657600080fd5b6020939093015192949293505050565b614d1880620001066000396000f3fe608060405234801561001057600080fd5b50600436106104805760003560e01c806368fcf2a811610257578063be26ebad11610146578063dd6d0e68116100c3578063f44c0f3311610087578063f44c0f33146108be578063f604f5d3146108c6578063f9f06a9a146108ce578063fabcb8fa146108d6578063fcbf9be7146108e957600080fd5b8063dd6d0e6814610875578063e7c7c8c81461087d578063f00b17d414610890578063f039ee9a14610898578063f2fde38b146108ab57600080fd5b8063caf0bc8f1161010a578063caf0bc8f14610821578063d1234d9514610834578063d25cb94614610847578063da7767981461085a578063dc46f09d1461086257600080fd5b8063be26ebad146107e3578063c1104a2d146107f6578063c63cba4614610809578063c789663b14610811578063c79fb0111461081957600080fd5b80638c382a53116101d457806397fd27fc1161019857806397fd27fc1461078f5780639b64dab8146107a2578063a8550725146107aa578063aa4d9ccc146107bd578063b372e403146107d057600080fd5b80638c382a53146107485780638da5cb5b1461075157806390464a441461076c578063961312ce1461077f57806397845cc41461078757600080fd5b80637256fde91161021b5780637256fde9146106ff5780637318814c1461070757806380b2f2db1461071a57806385082d2c146107225780638b18a5051461073557600080fd5b806368fcf2a8146106a35780636a57a28b146106c9578063715018a6146106dc57806371c96758146106e457806371e7b693146106ec57600080fd5b80634078dde011610373578063541d6987116102f0578063605da053116102b4578063605da0531461066557806360d712fc1461066d578063625391f9146106805780636263b883146106885780636636b6551461069b57600080fd5b8063541d6987146106275780635e3ef2c71461063a5780635f2b2d0d146106425780635faa6fa0146106555780636015124b1461065d57600080fd5b806348dd7d661161033757806348dd7d66146105c85780634abef7d4146105db5780634cf19dde146105ee5780634e216f5f146106015780634f5bfd2a1461061457600080fd5b80634078dde01461057f57806340c9ac421461059257806343b327c3146105a5578063471c169f146105b857806348075367146105c057600080fd5b806324d6fa9d116104015780632eb97687116103c55780632eb97687146105415780632f65b50f1461054957806337fa5d51146105515780633860c357146105645780633a1e363d1461056c57600080fd5b806324d6fa9d1461050e57806326825a9d1461051657806326c23dda1461051e57806329d8c91d146105265780632df793c71461053957600080fd5b8063128643371161044857806312864337146104c557806315566135146104d85780631b3d4e63146104e05780631fb738bb146104e857806322f1d80a146104fb57600080fd5b806301a1f86f146104855780630403ac241461049a57806305a1d322146104a25780630a303cd2146104aa57806311f08c3e146104bd575b600080fd5b610498610493366004614759565b6108f1565b005b61049861096f565b610498610b2b565b6104986104b836600461478f565b610ca8565b610498610cf4565b6104986104d33660046147c1565b610e85565b610498610ed4565b610498611054565b6104986104f63660046147c1565b6111d8565b610498610509366004614759565b611227565b610498611276565b6104986113cf565b610498611491565b61049861053436600461478f565b6115ec565b610498611638565b61049861177d565b6104986118fd565b61049861055f3660046147de565b611a5b565b610498611a6c565b61049861057a366004614759565b611bb8565b61049861058d366004614759565b611c07565b6104986105a0366004614759565b611c56565b6104986105b3366004614759565b611ca5565b610498611cf3565b610498611e4d565b6104986105d6366004614759565b611f92565b6104986105e936600461478f565b611fe1565b6104986105fc36600461478f565b61202d565b61049861060f366004614759565b612079565b61049861062236600461478f565b6120c8565b61049861063536600461478f565b612114565b610498612160565b610498610650366004614813565b6122db565b61049861234f565b6104986124aa565b610498612627565b61049861067b366004614813565b61274e565b610498612790565b610498610696366004614759565b6128e6565b610498612935565b6106b66106b13660046147de565b612a90565b6040519081526020015b60405180910390f35b6104986106d7366004614759565b612aa7565b610498612af6565b610498612b0a565b6104986106fa36600461478f565b612c4f565b610498612c9b565b61049861071536600461478f565b612e18565b610498612e64565b6104986107303660046147c1565b612fad565b61049861074336600461484f565b612ffc565b6106b660495481565b6000546040516001600160a01b0390911681526020016106c0565b61049861077a36600461487a565b613065565b6104986130af565b6104986131f7565b61049861079d36600461478f565b613352565b61049861339e565b6104986107b836600461478f565b61351e565b6104986107cb36600461478f565b61356a565b6104986107de366004614759565b6135b5565b6104986107f136600461484f565b613604565b610498610804366004614759565b613668565b6104986136b7565b610498613837565b610498613991565b61049861082f36600461484f565b613b11565b6104986108423660046147c1565b613b60565b610498610855366004614759565b613baf565b610498613bfe565b61049861087036600461478f565b613cbf565b610498613d0b565b61049861088b36600461478f565b613e64565b610498613eb0565b6104986108a63660046147c1565b614009565b6104986108b936600461484f565b614058565b6104986140d1565b61049861424e565b610498614397565b6104986108e4366004614759565b6144f2565b610498614541565b6108f961469a565b6040516340834c5960e11b8152600160048201526001600160401b038216602482015273ce4b16b81A28d785FEEB7b1D56a9B97d450D34439063810698b2906044015b60006040518083038186803b15801561095457600080fd5b505af4158015610968573d6000803e3d6000fd5b5050505050565b61097761469a565b600080600080600080600080600080604560009054906101000a90046001600160a01b03166001600160a01b031663be05abe36040518163ffffffff1660e01b815260040161016060405180830381865afa1580156109da573d6000803e3d6000fd5b505050506040513d601f19601f820116820180604052508101906109fe91906148ad565b5099509950995099509950995099509950995099506000601760140160009054906101000a900463ffffffff169050601773ce4b16b81A28d785FEEB7b1D56a9B97d450D3443637d105c799091610a5460465490565b6040516001600160e01b031960e085901b1681526004810192909252602482015260440160006040518083038186803b158015610a9057600080fd5b505af4158015610aa4573d6000803e3d6000fd5b505060455460405163c3b5ffc960e01b81526001600160a01b03909116925063c3b5ffc99150610aec908e908e908e908e908e908e908e908e908e908e908e90600401614993565b600060405180830381600087803b158015610b0657600080fd5b505af1158015610b1a573d6000803e3d6000fd5b505050505050505050505050505050565b610b3361469a565b600080600080600080600080600080604560009054906101000a90046001600160a01b03166001600160a01b031663be05abe36040518163ffffffff1660e01b815260040161016060405180830381865afa158015610b96573d6000803e3d6000fd5b505050506040513d601f19601f82011682018060405250810190610bba91906148ad565b9a509a5050995099509950995099509950995099506000601760100160009054906101000a900463ffffffff169050601773ce4b16b81A28d785FEEB7b1D56a9B97d450D3443638c0fc65a9091610c1060465490565b6040516001600160e01b031960e085901b1681526004810192909252602482015260440160006040518083038186803b158015610c4c57600080fd5b505af4158015610c60573d6000803e3d6000fd5b505060455460405163c3b5ffc960e01b81526001600160a01b03909116925063c3b5ffc99150610aec908e908e908e908e908e908e908e908e908c908f908f90600401614993565b610cb061469a565b604051630587584360e21b8152602d600482015263ffffffff8216602482015273ce4b16b81A28d785FEEB7b1D56a9B97d450D34439063161d610c9060440161093c565b610cfc61469a565b600080600080600080604560009054906101000a90046001600160a01b03166001600160a01b0316636e70ce416040518163ffffffff1660e01b815260040160e060405180830381865afa158015610d58573d6000803e3d6000fd5b505050506040513d601f19601f82011682018060405250810190610d7c9190614a0d565b50601554959b5093995091975095509350915063ffffffff1673ce4b16b81A28d785FEEB7b1D56a9B97d450D344363728bd45d6009610dba60465490565b6040516001600160e01b031960e085901b1681526004810192909252602482015260440160006040518083038186803b158015610df657600080fd5b505af4158015610e0a573d6000803e3d6000fd5b505060455460405163b5da217160e01b81526001600160a01b03909116925063b5da21719150610e4a908a908a908a908a908a908a908a90600401614aa9565b600060405180830381600087803b158015610e6457600080fd5b505af1158015610e78573d6000803e3d6000fd5b5050505050505050505050565b610e8d61469a565b604051632fc22b3f60e21b8152603b60048201526001600160601b038216602482015273ce4b16b81A28d785FEEB7b1D56a9B97d450D34439063bf08acfc9060440161093c565b610edc61469a565b600080600080600080600080600080604560009054906101000a90046001600160a01b03166001600160a01b031663be05abe36040518163ffffffff1660e01b815260040161016060405180830381865afa158015610f3f573d6000803e3d6000fd5b505050506040513d601f19601f82011682018060405250810190610f6391906148ad565b9a509a509a5050995099509950995099509950995060006017600e0160009054906101000a90046001600160401b03169050601773ce4b16b81A28d785FEEB7b1D56a9B97d450D3443634569ab889091610fbc60465490565b6040516001600160e01b031960e085901b1681526004810192909252602482015260440160006040518083038186803b158015610ff857600080fd5b505af415801561100c573d6000803e3d6000fd5b505060455460405163c3b5ffc960e01b81526001600160a01b03909116925063c3b5ffc99150610aec908e908e908e908e908e908e908e908b908f908f908f90600401614993565b61105c61469a565b6000806000604560009054906101000a90046001600160a01b03166001600160a01b03166375b922d16040518163ffffffff1660e01b8152600401608060405180830381865afa1580156110b4573d6000803e3d6000fd5b505050506040513d601f19601f820116820180604052508101906110d89190614af8565b603b805493975091955093506001600160601b03909116915073ce4b16b81A28d785FEEB7b1D56a9B97d450D344390638f2ca6459061111660465490565b6040516001600160e01b031960e085901b1681526004810192909252602482015260440160006040518083038186803b15801561115257600080fd5b505af4158015611166573d6000803e3d6000fd5b505060455460405163dc49117b60e01b81526001600160a01b03909116925063dc49117b91506111a0908490889088908890600401614b57565b600060405180830381600087803b1580156111ba57600080fd5b505af11580156111ce573d6000803e3d6000fd5b5050505050505050565b6111e061469a565b604051632eed92d760e21b8152600960048201526001600160601b038216602482015273ce4b16b81A28d785FEEB7b1D56a9B97d450D34439063bbb64b5c9060440161093c565b61122f61469a565b6040516374b0fecf60e11b8152602d60048201526001600160401b038216602482015273ce4b16b81A28d785FEEB7b1D56a9B97d450D34439063e961fd9e9060440161093c565b61127e61469a565b600080600080600080604560009054906101000a90046001600160a01b03166001600160a01b03166361ccf97a6040518163ffffffff1660e01b815260040160e060405180830381865afa1580156112da573d6000803e3d6000fd5b505050506040513d601f19601f820116820180604052508101906112fe9190614b87565b603554969c50949a509298509096509094509092505063ffffffff1673ce4b16b81A28d785FEEB7b1D56a9B97d450D34436305be330f602d61133f60465490565b6040516001600160e01b031960e085901b1681526004810192909252602482015260440160006040518083038186803b15801561137b57600080fd5b505af415801561138f573d6000803e3d6000fd5b505060455460405163883d6a1160e01b81526001600160a01b03909116925063883d6a119150610e4a908a908a908a908a9088908b908b90600401614c02565b6113d761469a565b6048546114225760405162461bcd60e51b815260206004820152601460248201527310da185b99d9481b9bdd081a5b9a5d1a585d195960621b60448201526064015b60405180910390fd5b6046546048546114329042614c49565b1161147f5760405162461bcd60e51b815260206004820181905260248201527f476f7665726e616e63652064656c617920686173206e6f7420656c61707365646044820152606401611419565b60478054604655600090819055604855565b61149961469a565b600080600080600080604560009054906101000a90046001600160a01b03166001600160a01b03166361ccf97a6040518163ffffffff1660e01b815260040160e060405180830381865afa1580156114f5573d6000803e3d6000fd5b505050506040513d601f19601f820116820180604052508101906115199190614b87565b603354969c50949a509298509650909450909250506001600160401b031673ce4b16b81A28d785FEEB7b1D56a9B97d450D3443633861f138602d61155c60465490565b6040516001600160e01b031960e085901b1681526004810192909252602482015260440160006040518083038186803b15801561159857600080fd5b505af41580156115ac573d6000803e3d6000fd5b505060455460405163883d6a1160e01b81526001600160a01b03909116925063883d6a119150610e4a908a908a908a9087908b908b908b90600401614c02565b6115f461469a565b604051639707e9ad60e01b81526017600482015263ffffffff8216602482015273ce4b16b81A28d785FEEB7b1D56a9B97d450D344390639707e9ad9060440161093c565b61164061469a565b6000806000604560009054906101000a90046001600160a01b03166001600160a01b031663c42b64d06040518163ffffffff1660e01b8152600401608060405180830381865afa158015611698573d6000803e3d6000fd5b505050506040513d601f19601f820116820180604052508101906116bc9190614c70565b50600754929550909350915063ffffffff1673ce4b16b81A28d785FEEB7b1D56a9B97d450D3443632520e8bf60016116f360465490565b6040516001600160e01b031960e085901b1681526004810192909252602482015260440160006040518083038186803b15801561172f57600080fd5b505af4158015611743573d6000803e3d6000fd5b5050604554604051633832650760e01b81526001600160a01b039091169250633832650791506111a0908790879087908790600401614cb3565b61178561469a565b600080600080600080600080600080604560009054906101000a90046001600160a01b03166001600160a01b031663be05abe36040518163ffffffff1660e01b815260040161016060405180830381865afa1580156117e8573d6000803e3d6000fd5b505050506040513d601f19601f8201168201806040525081019061180c91906148ad565b9a509a509a509a509a509a509a509a509a505099506000601760020160009054906101000a90046001600160401b03169050601773ce4b16b81A28d785FEEB7b1D56a9B97d450D344363d6964b97909161186560465490565b6040516001600160e01b031960e085901b1681526004810192909252602482015260440160006040518083038186803b1580156118a157600080fd5b505af41580156118b5573d6000803e3d6000fd5b505060455460405163c3b5ffc960e01b81526001600160a01b03909116925063c3b5ffc99150610aec908e9085908f908f908f908f908f908f908f908f908f90600401614993565b61190561469a565b600080600080600080604560009054906101000a90046001600160a01b03166001600160a01b0316636e70ce416040518163ffffffff1660e01b815260040160e060405180830381865afa158015611961573d6000803e3d6000fd5b505050506040513d601f19601f820116820180604052508101906119859190614a0d565b60098054969d50949b50929950909750955093506001600160401b03909116915073ce4b16b81A28d785FEEB7b1D56a9B97d450D34439063ec9f4760906119cb60465490565b6040516001600160e01b031960e085901b1681526004810192909252602482015260440160006040518083038186803b158015611a0757600080fd5b505af4158015611a1b573d6000803e3d6000fd5b505060455460405163b5da217160e01b81526001600160a01b03909116925063b5da21719150610e4a9084908b908b908b908b908b908b90600401614aa9565b611a6361469a565b60475542604855565b611a7461469a565b6000806000604560009054906101000a90046001600160a01b03166001600160a01b031663c42b64d06040518163ffffffff1660e01b8152600401608060405180830381865afa158015611acc573d6000803e3d6000fd5b505050506040513d601f19601f82011682018060405250810190611af09190614c70565b6001805493975091955093506001600160401b03909116915073ce4b16b81A28d785FEEB7b1D56a9B97d450D34439063ae25638390611b2e60465490565b6040516001600160e01b031960e085901b1681526004810192909252602482015260440160006040518083038186803b158015611b6a57600080fd5b505af4158015611b7e573d6000803e3d6000fd5b5050604554604051633832650760e01b81526001600160a01b039091169250633832650791506111a0908490889088908890600401614cb3565b611bc061469a565b6040516368af502160e01b8152600960048201526001600160401b038216602482015273ce4b16b81A28d785FEEB7b1D56a9B97d450D3443906368af50219060440161093c565b611c0f61469a565b604051630ac6330760e11b8152600160048201526001600160401b038216602482015273ce4b16b81A28d785FEEB7b1D56a9B97d450D34439063158c660e9060440161093c565b611c5e61469a565b6040516319de06fb60e31b8152600160048201526001600160401b038216602482015273ce4b16b81A28d785FEEB7b1D56a9B97d450D34439063cef037d89060440161093c565b611cad61469a565b604051620f049d60ea1b8152600960048201526001600160401b038216602482015273ce4b16b81A28d785FEEB7b1D56a9B97d450D344390633c1274009060440161093c565b611cfb61469a565b600080600080600080604560009054906101000a90046001600160a01b03166001600160a01b0316636e70ce416040518163ffffffff1660e01b815260040160e060405180830381865afa158015611d57573d6000803e3d6000fd5b505050506040513d601f19601f82011682018060405250810190611d7b9190614a0d565b600d54969c50949a5091985096509450909250506001600160401b031673ce4b16b81A28d785FEEB7b1D56a9B97d450D3443639232db3f6009611dbd60465490565b6040516001600160e01b031960e085901b1681526004810192909252602482015260440160006040518083038186803b158015611df957600080fd5b505af4158015611e0d573d6000803e3d6000fd5b505060455460405163b5da217160e01b81526001600160a01b03909116925063b5da21719150610e4a908a908a9086908b908b908b908b90600401614aa9565b611e5561469a565b6000806000604560009054906101000a90046001600160a01b03166001600160a01b03166375b922d16040518163ffffffff1660e01b8152600401608060405180830381865afa158015611ead573d6000803e3d6000fd5b505050506040513d601f19601f82011682018060405250810190611ed19190614af8565b50604154929550909350915063ffffffff1673ce4b16b81A28d785FEEB7b1D56a9B97d450D3443630c4e5686603b611f0860465490565b6040516001600160e01b031960e085901b1681526004810192909252602482015260440160006040518083038186803b158015611f4457600080fd5b505af4158015611f58573d6000803e3d6000fd5b505060455460405163dc49117b60e01b81526001600160a01b03909116925063dc49117b91506111a0908790879087908790600401614b57565b611f9a61469a565b604051633964f6cb60e11b8152601760048201526001600160401b038216602482015273ce4b16b81A28d785FEEB7b1D56a9B97d450D3443906372c9ed969060440161093c565b611fe961469a565b604051636312276d60e11b81526017600482015263ffffffff8216602482015273ce4b16b81A28d785FEEB7b1D56a9B97d450D34439063c6244eda9060440161093c565b61203561469a565b604051632d453d5760e01b8152603b600482015263ffffffff8216602482015273ce4b16b81A28d785FEEB7b1D56a9B97d450D344390632d453d579060440161093c565b61208161469a565b6040516377b3952360e11b8152600960048201526001600160401b038216602482015273ce4b16b81A28d785FEEB7b1D56a9B97d450D34439063ef672a469060440161093c565b6120d061469a565b60405163382c42c560e11b8152603b600482015263ffffffff8216602482015273ce4b16b81A28d785FEEB7b1D56a9B97d450D344390637058858a9060440161093c565b61211c61469a565b60405163730d3c4360e11b81526009600482015263ffffffff8216602482015273ce4b16b81A28d785FEEB7b1D56a9B97d450D34439063e61a78869060440161093c565b61216861469a565b600080600080600080600080600080604560009054906101000a90046001600160a01b03166001600160a01b031663be05abe36040518163ffffffff1660e01b815260040161016060405180830381865afa1580156121cb573d6000803e3d6000fd5b505050506040513d601f19601f820116820180604052508101906121ef91906148ad565b9a509a509a509a505099509950995099509950995060006017600c0160009054906101000a900461ffff169050601773ce4b16b81A28d785FEEB7b1D56a9B97d450D344363d7e1b317909161224360465490565b6040516001600160e01b031960e085901b1681526004810192909252602482015260440160006040518083038186803b15801561227f57600080fd5b505af4158015612293573d6000803e3d6000fd5b505060455460405163c3b5ffc960e01b81526001600160a01b03909116925063c3b5ffc99150610aec908e908e908e908e908e908e908a908f908f908f908f90600401614993565b6122e361469a565b604554604051635f2b2d0d60e01b81526001600160a01b038481166004830152831515602483015290911690635f2b2d0d906044015b600060405180830381600087803b15801561233357600080fd5b505af1158015612347573d6000803e3d6000fd5b505050505050565b61235761469a565b600080600080600080604560009054906101000a90046001600160a01b03166001600160a01b0316636e70ce416040518163ffffffff1660e01b815260040160e060405180830381865afa1580156123b3573d6000803e3d6000fd5b505050506040513d601f19601f820116820180604052508101906123d79190614a0d565b600f54969c50949a509298509650909450909250506001600160401b031673ce4b16b81A28d785FEEB7b1D56a9B97d450D3443638a346d4d600961241a60465490565b6040516001600160e01b031960e085901b1681526004810192909252602482015260440160006040518083038186803b15801561245657600080fd5b505af415801561246a573d6000803e3d6000fd5b505060455460405163b5da217160e01b81526001600160a01b03909116925063b5da21719150610e4a908a908a908a9087908b908b908b90600401614aa9565b6124b261469a565b600080600080600080600080600080604560009054906101000a90046001600160a01b03166001600160a01b031663be05abe36040518163ffffffff1660e01b815260040161016060405180830381865afa158015612515573d6000803e3d6000fd5b505050506040513d601f19601f8201168201806040525081019061253991906148ad565b9a509a509a509a509a50509950995099509950995060006017600a0160009054906101000a900463ffffffff169050601773ce4b16b81A28d785FEEB7b1D56a9B97d450D3443631b3f064f909161258f60465490565b6040516001600160e01b031960e085901b1681526004810192909252602482015260440160006040518083038186803b1580156125cb57600080fd5b505af41580156125df573d6000803e3d6000fd5b505060455460405163c3b5ffc960e01b81526001600160a01b03909116925063c3b5ffc99150610aec908e908e908e908e908e9089908f908f908f908f908f90600401614993565b61262f61469a565b6000604954116126785760405162461bcd60e51b815260206004820152601460248201527310da185b99d9481b9bdd081a5b9a5d1a585d195960621b6044820152606401611419565b6046546049546126889042614c49565b10156126d65760405162461bcd60e51b815260206004820181905260248201527f476f7665726e616e63652064656c617920686173206e6f7420656c61707365646044820152606401611419565b604554604a546040516334e2fffd60e21b81526001600160a01b03918216600482015291169063d38bfff490602401600060405180830381600087803b15801561271f57600080fd5b505af1158015612733573d6000803e3d6000fd5b505060006049555050604a80546001600160a01b0319169055565b61275661469a565b604554604051631835c4bf60e21b81526001600160a01b0384811660048301528315156024830152909116906360d712fc90604401612319565b61279861469a565b600080600080600080604560009054906101000a90046001600160a01b03166001600160a01b03166361ccf97a6040518163ffffffff1660e01b815260040160e060405180830381865afa1580156127f4573d6000803e3d6000fd5b505050506040513d601f19601f820116820180604052508101906128189190614b87565b50603954959b5093995091975095509350915063ffffffff1673ce4b16b81A28d785FEEB7b1D56a9B97d450D344363dbf83803602d61285660465490565b6040516001600160e01b031960e085901b1681526004810192909252602482015260440160006040518083038186803b15801561289257600080fd5b505af41580156128a6573d6000803e3d6000fd5b505060455460405163883d6a1160e01b81526001600160a01b03909116925063883d6a119150610e4a908a908a908a908a908a908a908a90600401614c02565b6128ee61469a565b6040516323d4f60160e21b8152601760048201526001600160401b038216602482015273ce4b16b81A28d785FEEB7b1D56a9B97d450D344390638f53d8049060440161093c565b61293d61469a565b600080600080600080604560009054906101000a90046001600160a01b03166001600160a01b0316636e70ce416040518163ffffffff1660e01b815260040160e060405180830381865afa158015612999573d6000803e3d6000fd5b505050506040513d601f19601f820116820180604052508101906129bd9190614a0d565b601354969c50949a509298509096509450909250506001600160601b031673ce4b16b81A28d785FEEB7b1D56a9B97d450D344363f818e43c6009612a0060465490565b6040516001600160e01b031960e085901b1681526004810192909252602482015260440160006040518083038186803b158015612a3c57600080fd5b505af4158015612a50573d6000803e3d6000fd5b505060455460405163b5da217160e01b81526001600160a01b03909116925063b5da21719150610e4a908a908a908a908a908a9089908b90600401614aa9565b60468160038110612aa057600080fd5b0154905081565b612aaf61469a565b60405163f543e37d60e01b8152602d60048201526001600160401b038216602482015273ce4b16b81A28d785FEEB7b1D56a9B97d450D34439063f543e37d9060440161093c565b612afe61469a565b612b0860006146f4565b565b612b1261469a565b6000806000604560009054906101000a90046001600160a01b03166001600160a01b03166375b922d16040518163ffffffff1660e01b8152600401608060405180830381865afa158015612b6a573d6000803e3d6000fd5b505050506040513d601f19601f82011682018060405250810190612b8e9190614af8565b603d5493965090945092505063ffffffff1673ce4b16b81A28d785FEEB7b1D56a9B97d450D344363d2a27c33603b612bc560465490565b6040516001600160e01b031960e085901b1681526004810192909252602482015260440160006040518083038186803b158015612c0157600080fd5b505af4158015612c15573d6000803e3d6000fd5b505060455460405163dc49117b60e01b81526001600160a01b03909116925063dc49117b91506111a0908790859088908890600401614b57565b612c5761469a565b6040516353cf6f6560e01b81526001600482015263ffffffff8216602482015273ce4b16b81A28d785FEEB7b1D56a9B97d450D3443906353cf6f659060440161093c565b612ca361469a565b600080600080600080600080600080604560009054906101000a90046001600160a01b03166001600160a01b031663be05abe36040518163ffffffff1660e01b815260040161016060405180830381865afa158015612d06573d6000803e3d6000fd5b505050506040513d601f19601f82011682018060405250810190612d2a91906148ad565b9a509a509a509a509a509a509a509a5050995099506000601760040160009054906101000a900463ffffffff169050601773ce4b16b81A28d785FEEB7b1D56a9B97d450D34436351a3d06e9091612d8060465490565b6040516001600160e01b031960e085901b1681526004810192909252602482015260440160006040518083038186803b158015612dbc57600080fd5b505af4158015612dd0573d6000803e3d6000fd5b505060455460405163c3b5ffc960e01b81526001600160a01b03909116925063c3b5ffc99150610aec908e908e9086908f908f908f908f908f908f908f908f90600401614993565b612e2061469a565b60405163126e077960e31b81526017600482015263ffffffff8216602482015273ce4b16b81A28d785FEEB7b1D56a9B97d450D3443906393703bc89060440161093c565b612e6c61469a565b6000806000604560009054906101000a90046001600160a01b03166001600160a01b031663c42b64d06040518163ffffffff1660e01b8152600401608060405180830381865afa158015612ec4573d6000803e3d6000fd5b505050506040513d601f19601f82011682018060405250810190612ee89190614c70565b600554939650919450909250506001600160401b031673ce4b16b81A28d785FEEB7b1D56a9B97d450D34436368decba26001612f2360465490565b6040516001600160e01b031960e085901b1681526004810192909252602482015260440160006040518083038186803b158015612f5f57600080fd5b505af4158015612f73573d6000803e3d6000fd5b5050604554604051633832650760e01b81526001600160a01b039091169250633832650791506111a0908790879086908890600401614cb3565b612fb561469a565b6040516322b8310d60e21b8152601760048201526001600160601b038216602482015273ce4b16b81A28d785FEEB7b1D56a9B97d450D344390638ae0c4349060440161093c565b61300461469a565b604a80546001600160a01b0319166001600160a01b0383169081179091554260498190556040805192835260208301919091527f24973178c1aef0f16b3490f7b45109bb38df71d627a7ed575597447150837881910160405180910390a150565b61306d61469a565b6040516336cdaf1960e11b81526017600482015261ffff8216602482015273ce4b16b81A28d785FEEB7b1D56a9B97d450D344390636d9b5e329060440161093c565b6130b761469a565b6000806000604560009054906101000a90046001600160a01b03166001600160a01b031663c42b64d06040518163ffffffff1660e01b8152600401608060405180830381865afa15801561310f573d6000803e3d6000fd5b505050506040513d601f19601f820116820180604052508101906131339190614c70565b6003549396509094509250506001600160401b031673ce4b16b81A28d785FEEB7b1D56a9B97d450D344363362c2372600161316d60465490565b6040516001600160e01b031960e085901b1681526004810192909252602482015260440160006040518083038186803b1580156131a957600080fd5b505af41580156131bd573d6000803e3d6000fd5b5050604554604051633832650760e01b81526001600160a01b039091169250633832650791506111a0908790859088908890600401614cb3565b6131ff61469a565b600080600080600080604560009054906101000a90046001600160a01b03166001600160a01b03166361ccf97a6040518163ffffffff1660e01b815260040160e060405180830381865afa15801561325b573d6000803e3d6000fd5b505050506040513d601f19601f8201168201806040525081019061327f9190614b87565b602d8054969d50949b509299509097509550935063ffffffff909116915073ce4b16b81A28d785FEEB7b1D56a9B97d450D34439063a62029f6906132c260465490565b6040516001600160e01b031960e085901b1681526004810192909252602482015260440160006040518083038186803b1580156132fe57600080fd5b505af4158015613312573d6000803e3d6000fd5b505060455460405163883d6a1160e01b81526001600160a01b03909116925063883d6a119150610e4a9084908b908b908b908b908b908b90600401614c02565b61335a61469a565b604051631323ffb160e11b81526017600482015263ffffffff8216602482015273ce4b16b81A28d785FEEB7b1D56a9B97d450D344390632647ff629060440161093c565b6133a661469a565b600080600080600080600080600080604560009054906101000a90046001600160a01b03166001600160a01b031663be05abe36040518163ffffffff1660e01b815260040161016060405180830381865afa158015613409573d6000803e3d6000fd5b505050506040513d601f19601f8201168201806040525081019061342d91906148ad565b9a50509950995099509950995099509950995099506000601760120160009054906101000a90046001600160601b03169050601773ce4b16b81A28d785FEEB7b1D56a9B97d450D3443636d5be9be909161348660465490565b6040516001600160e01b031960e085901b1681526004810192909252602482015260440160006040518083038186803b1580156134c257600080fd5b505af41580156134d6573d6000803e3d6000fd5b505060455460405163c3b5ffc960e01b81526001600160a01b03909116925063c3b5ffc99150610aec908e908e908e908e908e908e908e908e908e908d908f90600401614993565b61352661469a565b60405163a6b0e7bd60e01b81526017600482015263ffffffff8216602482015273ce4b16b81A28d785FEEB7b1D56a9B97d450D34439063a6b0e7bd9060440161093c565b61357261469a565b604051620c4fa760ea1b8152602d600482015263ffffffff8216602482015273ce4b16b81A28d785FEEB7b1D56a9B97d450D34439063313e9c009060440161093c565b6135bd61469a565b6040516391346cbb60e01b8152602d60048201526001600160401b038216602482015273ce4b16b81A28d785FEEB7b1D56a9B97d450D3443906391346cbb9060440161093c565b61360c61469a565b60455460405163be26ebad60e01b81526001600160a01b0383811660048301529091169063be26ebad906024015b600060405180830381600087803b15801561365457600080fd5b505af1158015610968573d6000803e3d6000fd5b61367061469a565b6040516304b8e2eb60e01b8152602d60048201526001600160401b038216602482015273ce4b16b81A28d785FEEB7b1D56a9B97d450D3443906304b8e2eb9060440161093c565b6136bf61469a565b600080600080600080600080600080604560009054906101000a90046001600160a01b03166001600160a01b031663be05abe36040518163ffffffff1660e01b815260040161016060405180830381865afa158015613722573d6000803e3d6000fd5b505050506040513d601f19601f8201168201806040525081019061374691906148ad565b9a509a509a509a509a509a509a509a509a509a50506000601760000160009054906101000a90046001600160401b03169050601773ce4b16b81A28d785FEEB7b1D56a9B97d450D3443630b5a08ed909161379f60465490565b6040516001600160e01b031960e085901b1681526004810192909252602482015260440160006040518083038186803b1580156137db57600080fd5b505af41580156137ef573d6000803e3d6000fd5b505060455460405163c3b5ffc960e01b81526001600160a01b03909116925063c3b5ffc99150610aec9084908f908f908f908f908f908f908f908f908f908f90600401614993565b61383f61469a565b600080600080600080604560009054906101000a90046001600160a01b03166001600160a01b03166361ccf97a6040518163ffffffff1660e01b815260040160e060405180830381865afa15801561389b573d6000803e3d6000fd5b505050506040513d601f19601f820116820180604052508101906138bf9190614b87565b603154969c50949a5091985096509450909250506001600160401b031673ce4b16b81A28d785FEEB7b1D56a9B97d450D344363f08cac39602d61390160465490565b6040516001600160e01b031960e085901b1681526004810192909252602482015260440160006040518083038186803b15801561393d57600080fd5b505af4158015613951573d6000803e3d6000fd5b505060455460405163883d6a1160e01b81526001600160a01b03909116925063883d6a119150610e4a908a908a9086908b908b908b908b90600401614c02565b61399961469a565b600080600080600080600080600080604560009054906101000a90046001600160a01b03166001600160a01b031663be05abe36040518163ffffffff1660e01b815260040161016060405180830381865afa1580156139fc573d6000803e3d6000fd5b505050506040513d601f19601f82011682018060405250810190613a2091906148ad565b9a509a509a509a509a509a505099509950995099506000601760080160009054906101000a90046001600160601b03169050601773ce4b16b81A28d785FEEB7b1D56a9B97d450D344363ffbe06279091613a7960465490565b6040516001600160e01b031960e085901b1681526004810192909252602482015260440160006040518083038186803b158015613ab557600080fd5b505af4158015613ac9573d6000803e3d6000fd5b505060455460405163c3b5ffc960e01b81526001600160a01b03909116925063c3b5ffc99150610aec908e908e908e908e9088908f908f908f908f908f908f90600401614993565b613b1961469a565b604051630b56b11560e41b8152604360048201526001600160a01b038216602482015273ce4b16b81A28d785FEEB7b1D56a9B97d450D34439063b56b11509060440161093c565b613b6861469a565b604051638a397dd760e01b8152603b60048201526001600160601b038216602482015273ce4b16b81A28d785FEEB7b1D56a9B97d450D344390638a397dd79060440161093c565b613bb761469a565b6040516301d2d6f160e51b8152601760048201526001600160401b038216602482015273ce4b16b81A28d785FEEB7b1D56a9B97d450D344390633a5ade209060440161093c565b613c0661469a565b604380546001600160a01b03169073ce4b16b81A28d785FEEB7b1D56a9B97d450D344390634a46b83390613c3960465490565b6040516001600160e01b031960e085901b1681526004810192909252602482015260440160006040518083038186803b158015613c7557600080fd5b505af4158015613c89573d6000803e3d6000fd5b5050604554604051637f51bb1f60e01b81526001600160a01b0385811660048301529091169250637f51bb1f915060240161363a565b613cc761469a565b60405163e37b9e1b60e01b8152602d600482015263ffffffff8216602482015273ce4b16b81A28d785FEEB7b1D56a9B97d450D34439063e37b9e1b9060440161093c565b613d1361469a565b600080600080600080604560009054906101000a90046001600160a01b03166001600160a01b0316636e70ce416040518163ffffffff1660e01b815260040160e060405180830381865afa158015613d6f573d6000803e3d6000fd5b505050506040513d601f19601f82011682018060405250810190613d939190614a0d565b601154969c50949a509298509096509094509092505063ffffffff1673ce4b16b81A28d785FEEB7b1D56a9B97d450D344363a48814a56009613dd460465490565b6040516001600160e01b031960e085901b1681526004810192909252602482015260440160006040518083038186803b158015613e1057600080fd5b505af4158015613e24573d6000803e3d6000fd5b505060455460405163b5da217160e01b81526001600160a01b03909116925063b5da21719150610e4a908a908a908a908a9088908b908b90600401614aa9565b613e6c61469a565b6040516383eb9c5960e01b81526009600482015263ffffffff8216602482015273ce4b16b81A28d785FEEB7b1D56a9B97d450D3443906383eb9c599060440161093c565b613eb861469a565b600080600080600080604560009054906101000a90046001600160a01b03166001600160a01b0316636e70ce416040518163ffffffff1660e01b815260040160e060405180830381865afa158015613f14573d6000803e3d6000fd5b505050506040513d601f19601f82011682018060405250810190613f389190614a0d565b600b54969c50939a50919850965094509250506001600160401b031673ce4b16b81A28d785FEEB7b1D56a9B97d450D344363c4faa8676009613f7960465490565b6040516001600160e01b031960e085901b1681526004810192909252602482015260440160006040518083038186803b158015613fb557600080fd5b505af4158015613fc9573d6000803e3d6000fd5b505060455460405163b5da217160e01b81526001600160a01b03909116925063b5da21719150610e4a908a9085908b908b908b908b908b90600401614aa9565b61401161469a565b60405163128c836760e21b8152601760048201526001600160601b038216602482015273ce4b16b81A28d785FEEB7b1D56a9B97d450D344390634a320d9c9060440161093c565b61406061469a565b6001600160a01b0381166140c55760405162461bcd60e51b815260206004820152602660248201527f4f776e61626c653a206e6577206f776e657220697320746865207a65726f206160448201526564647265737360d01b6064820152608401611419565b6140ce816146f4565b50565b6140d961469a565b600080600080600080600080600080604560009054906101000a90046001600160a01b03166001600160a01b031663be05abe36040518163ffffffff1660e01b815260040161016060405180830381865afa15801561413c573d6000803e3d6000fd5b505050506040513d601f19601f8201168201806040525081019061416091906148ad565b9a509a509a509a509a509a509a50509950995099506000601760060160009054906101000a900463ffffffff169050601773ce4b16b81A28d785FEEB7b1D56a9B97d450D344363dcce6cc890916141b660465490565b6040516001600160e01b031960e085901b1681526004810192909252602482015260440160006040518083038186803b1580156141f257600080fd5b505af4158015614206573d6000803e3d6000fd5b505060455460405163c3b5ffc960e01b81526001600160a01b03909116925063c3b5ffc99150610aec908e908e908e9087908f908f908f908f908f908f908f90600401614993565b61425661469a565b6000806000604560009054906101000a90046001600160a01b03166001600160a01b03166375b922d16040518163ffffffff1660e01b8152600401608060405180830381865afa1580156142ae573d6000803e3d6000fd5b505050506040513d601f19601f820116820180604052508101906142d29190614af8565b603f54939650919450909250506001600160601b031673ce4b16b81A28d785FEEB7b1D56a9B97d450D344363a9e31763603b61430d60465490565b6040516001600160e01b031960e085901b1681526004810192909252602482015260440160006040518083038186803b15801561434957600080fd5b505af415801561435d573d6000803e3d6000fd5b505060455460405163dc49117b60e01b81526001600160a01b03909116925063dc49117b91506111a0908790879086908890600401614b57565b61439f61469a565b600080600080600080604560009054906101000a90046001600160a01b03166001600160a01b03166361ccf97a6040518163ffffffff1660e01b815260040160e060405180830381865afa1580156143fb573d6000803e3d6000fd5b505050506040513d601f19601f8201168201806040525081019061441f9190614b87565b603754969c50949a509298509096509450909250506001600160401b031673ce4b16b81A28d785FEEB7b1D56a9B97d450D344363af11623a602d61446260465490565b6040516001600160e01b031960e085901b1681526004810192909252602482015260440160006040518083038186803b15801561449e57600080fd5b505af41580156144b2573d6000803e3d6000fd5b505060455460405163883d6a1160e01b81526001600160a01b03909116925063883d6a119150610e4a908a908a908a908a908a9089908b90600401614c02565b6144fa61469a565b60405163baa9397360e01b8152600960048201526001600160401b038216602482015273ce4b16b81A28d785FEEB7b1D56a9B97d450D34439063baa939739060440161093c565b61454961469a565b600080600080600080604560009054906101000a90046001600160a01b03166001600160a01b03166361ccf97a6040518163ffffffff1660e01b815260040160e060405180830381865afa1580156145a5573d6000803e3d6000fd5b505050506040513d601f19601f820116820180604052508101906145c99190614b87565b602f54969c50939a50919850965094509250506001600160401b031673ce4b16b81A28d785FEEB7b1D56a9B97d450D34436381f5c03a602d61460a60465490565b6040516001600160e01b031960e085901b1681526004810192909252602482015260440160006040518083038186803b15801561464657600080fd5b505af415801561465a573d6000803e3d6000fd5b505060455460405163883d6a1160e01b81526001600160a01b03909116925063883d6a119150610e4a908a9085908b908b908b908b908b90600401614c02565b6000546001600160a01b03163314612b085760405162461bcd60e51b815260206004820181905260248201527f4f776e61626c653a2063616c6c6572206973206e6f7420746865206f776e65726044820152606401611419565b600080546001600160a01b038381166001600160a01b0319831681178455604051919092169283917f8be0079c531659141344cd1fd0a4f28419497f9722a3daafe3b4186f6b6457e09190a35050565b6001600160401b03811681146140ce57600080fd5b60006020828403121561476b57600080fd5b813561477681614744565b9392505050565b63ffffffff811681146140ce57600080fd5b6000602082840312156147a157600080fd5b81356147768161477d565b6001600160601b03811681146140ce57600080fd5b6000602082840312156147d357600080fd5b8135614776816147ac565b6000602082840312156147f057600080fd5b5035919050565b80356001600160a01b038116811461480e57600080fd5b919050565b6000806040838503121561482657600080fd5b61482f836147f7565b91506020830135801515811461484457600080fd5b809150509250929050565b60006020828403121561486157600080fd5b614776826147f7565b61ffff811681146140ce57600080fd5b60006020828403121561488c57600080fd5b81356147768161486a565b805161480e8161477d565b805161480e816147ac565b60008060008060008060008060008060006101608c8e0312156148cf57600080fd5b8b516148da81614744565b60208d0151909b506148eb81614744565b60408d0151909a506148fc8161477d565b60608d015190995061490d8161477d565b60808d015190985061491e816147ac565b60a08d015190975061492f8161477d565b60c08d01519096506149408161486a565b60e08d015190955061495181614744565b6101008d01519094506149638161477d565b92506149726101208d016148a2565b91506149816101408d01614897565b90509295989b509295989b9093969950565b6001600160401b039b8c168152998b1660208b015263ffffffff98891660408b015296881660608a01526001600160601b0395861660808a015293871660a089015261ffff9290921660c088015290961660e086015294831661010085015293909316610120830152919091166101408201526101600190565b600080600080600080600060e0888a031215614a2857600080fd5b8751614a3381614744565b6020890151909750614a4481614744565b6040890151909650614a5581614744565b6060890151909550614a6681614744565b6080890151909450614a778161477d565b60a0890151909350614a88816147ac565b60c0890151909250614a998161477d565b8091505092959891949750929550565b6001600160401b0397881681529587166020870152938616604086015291909416606084015263ffffffff93841660808401526001600160601b031660a083015290911660c082015260e00190565b60008060008060808587031215614b0e57600080fd5b8451614b19816147ac565b6020860151909450614b2a8161477d565b6040860151909350614b3b816147ac565b6060860151909250614b4c8161477d565b939692955090935050565b6001600160601b03948516815263ffffffff93841660208201529190931660408201529116606082015260800190565b600080600080600080600060e0888a031215614ba257600080fd5b8751614bad8161477d565b6020890151909750614bbe81614744565b6040890151909650614bcf81614744565b6060890151909550614be081614744565b6080890151909450614bf18161477d565b60a0890151909350614a8881614744565b63ffffffff97881681526001600160401b03968716602082015294861660408601529285166060850152908516608084015290921660a0820152911660c082015260e00190565b81810381811115614c6a57634e487b7160e01b600052601160045260246000fd5b92915050565b60008060008060808587031215614c8657600080fd5b8451614c9181614744565b6020860151909450614ca281614744565b6040860151909350614b3b81614744565b6001600160401b03948516815292841660208401529216604082015263ffffffff90911660608201526080019056fea26469706673582212208f06da53006b028db458b0210b1dd46894d90bec6a18b0ab2fa1ee76a4e7ee1464736f6c63430008110033",
  "deployedBytecode": "0x608060405234801561001057600080fd5b50600436106104805760003560e01c806368fcf2a811610257578063be26ebad11610146578063dd6d0e68116100c3578063f44c0f3311610087578063f44c0f33146108be578063f604f5d3146108c6578063f9f06a9a146108ce578063fabcb8fa146108d6578063fcbf9be7146108e957600080fd5b8063dd6d0e6814610875578063e7c7c8c81461087d578063f00b17d414610890578063f039ee9a14610898578063f2fde38b146108ab57600080fd5b8063caf0bc8f1161010a578063caf0bc8f14610821578063d1234d9514610834578063d25cb94614610847578063da7767981461085a578063dc46f09d1461086257600080fd5b8063be26ebad146107e3578063c1104a2d146107f6578063c63cba4614610809578063c789663b14610811578063c79fb0111461081957600080fd5b80638c382a53116101d457806397fd27fc1161019857806397fd27fc1461078f5780639b64dab8146107a2578063a8550725146107aa578063aa4d9ccc146107bd578063b372e403146107d057600080fd5b80638c382a53146107485780638da5cb5b1461075157806390464a441461076c578063961312ce1461077f57806397845cc41461078757600080fd5b80637256fde91161021b5780637256fde9146106ff5780637318814c1461070757806380b2f2db1461071a57806385082d2c146107225780638b18a5051461073557600080fd5b806368fcf2a8146106a35780636a57a28b146106c9578063715018a6146106dc57806371c96758146106e457806371e7b693146106ec57600080fd5b80634078dde011610373578063541d6987116102f0578063605da053116102b4578063605da0531461066557806360d712fc1461066d578063625391f9146106805780636263b883146106885780636636b6551461069b57600080fd5b8063541d6987146106275780635e3ef2c71461063a5780635f2b2d0d146106425780635faa6fa0146106555780636015124b1461065d57600080fd5b806348dd7d661161033757806348dd7d66146105c85780634abef7d4146105db5780634cf19dde146105ee5780634e216f5f146106015780634f5bfd2a1461061457600080fd5b80634078dde01461057f57806340c9ac421461059257806343b327c3146105a5578063471c169f146105b857806348075367146105c057600080fd5b806324d6fa9d116104015780632eb97687116103c55780632eb97687146105415780632f65b50f1461054957806337fa5d51146105515780633860c357146105645780633a1e363d1461056c57600080fd5b806324d6fa9d1461050e57806326825a9d1461051657806326c23dda1461051e57806329d8c91d146105265780632df793c71461053957600080fd5b8063128643371161044857806312864337146104c557806315566135146104d85780631b3d4e63146104e05780631fb738bb146104e857806322f1d80a146104fb57600080fd5b806301a1f86f146104855780630403ac241461049a57806305a1d322146104a25780630a303cd2146104aa57806311f08c3e146104bd575b600080fd5b610498610493366004614759565b6108f1565b005b61049861096f565b610498610b2b565b6104986104b836600461478f565b610ca8565b610498610cf4565b6104986104d33660046147c1565b610e85565b610498610ed4565b610498611054565b6104986104f63660046147c1565b6111d8565b610498610509366004614759565b611227565b610498611276565b6104986113cf565b610498611491565b61049861053436600461478f565b6115ec565b610498611638565b61049861177d565b6104986118fd565b61049861055f3660046147de565b611a5b565b610498611a6c565b61049861057a366004614759565b611bb8565b61049861058d366004614759565b611c07565b6104986105a0366004614759565b611c56565b6104986105b3366004614759565b611ca5565b610498611cf3565b610498611e4d565b6104986105d6366004614759565b611f92565b6104986105e936600461478f565b611fe1565b6104986105fc36600461478f565b61202d565b61049861060f366004614759565b612079565b61049861062236600461478f565b6120c8565b61049861063536600461478f565b612114565b610498612160565b610498610650366004614813565b6122db565b61049861234f565b6104986124aa565b610498612627565b61049861067b366004614813565b61274e565b610498612790565b610498610696366004614759565b6128e6565b610498612935565b6106b66106b13660046147de565b612a90565b6040519081526020015b60405180910390f35b6104986106d7366004614759565b612aa7565b610498612af6565b610498612b0a565b6104986106fa36600461478f565b612c4f565b610498612c9b565b61049861071536600461478f565b612e18565b610498612e64565b6104986107303660046147c1565b612fad565b61049861074336600461484f565b612ffc565b6106b660495481565b6000546040516001600160a01b0390911681526020016106c0565b61049861077a36600461487a565b613065565b6104986130af565b6104986131f7565b61049861079d36600461478f565b613352565b61049861339e565b6104986107b836600461478f565b61351e565b6104986107cb36600461478f565b61356a565b6104986107de366004614759565b6135b5565b6104986107f136600461484f565b613604565b610498610804366004614759565b613668565b6104986136b7565b610498613837565b610498613991565b61049861082f36600461484f565b613b11565b6104986108423660046147c1565b613b60565b610498610855366004614759565b613baf565b610498613bfe565b61049861087036600461478f565b613cbf565b610498613d0b565b61049861088b36600461478f565b613e64565b610498613eb0565b6104986108a63660046147c1565b614009565b6104986108b936600461484f565b614058565b6104986140d1565b61049861424e565b610498614397565b6104986108e4366004614759565b6144f2565b610498614541565b6108f961469a565b6040516340834c5960e11b8152600160048201526001600160401b038216602482015273__$a76fe959a16b0ef92b5d2bd739d5cb0318$__9063810698b2906044015b60006040518083038186803b15801561095457600080fd5b505af4158015610968573d6000803e3d6000fd5b5050505050565b61097761469a565b600080600080600080600080600080604560009054906101000a90046001600160a01b03166001600160a01b031663be05abe36040518163ffffffff1660e01b815260040161016060405180830381865afa1580156109da573d6000803e3d6000fd5b505050506040513d601f19601f820116820180604052508101906109fe91906148ad565b5099509950995099509950995099509950995099506000601760140160009054906101000a900463ffffffff169050601773__$a76fe959a16b0ef92b5d2bd739d5cb0318$__637d105c799091610a5460465490565b6040516001600160e01b031960e085901b1681526004810192909252602482015260440160006040518083038186803b158015610a9057600080fd5b505af4158015610aa4573d6000803e3d6000fd5b505060455460405163c3b5ffc960e01b81526001600160a01b03909116925063c3b5ffc99150610aec908e908e908e908e908e908e908e908e908e908e908e90600401614993565b600060405180830381600087803b158015610b0657600080fd5b505af1158015610b1a573d6000803e3d6000fd5b505050505050505050505050505050565b610b3361469a565b600080600080600080600080600080604560009054906101000a90046001600160a01b03166001600160a01b031663be05abe36040518163ffffffff1660e01b815260040161016060405180830381865afa158015610b96573d6000803e3d6000fd5b505050506040513d601f19601f82011682018060405250810190610bba91906148ad565b9a509a5050995099509950995099509950995099506000601760100160009054906101000a900463ffffffff169050601773__$a76fe959a16b0ef92b5d2bd739d5cb0318$__638c0fc65a9091610c1060465490565b6040516001600160e01b031960e085901b1681526004810192909252602482015260440160006040518083038186803b158015610c4c57600080fd5b505af4158015610c60573d6000803e3d6000fd5b505060455460405163c3b5ffc960e01b81526001600160a01b03909116925063c3b5ffc99150610aec908e908e908e908e908e908e908e908e908c908f908f90600401614993565b610cb061469a565b604051630587584360e21b8152602d600482015263ffffffff8216602482015273__$a76fe959a16b0ef92b5d2bd739d5cb0318$__9063161d610c9060440161093c565b610cfc61469a565b600080600080600080604560009054906101000a90046001600160a01b03166001600160a01b0316636e70ce416040518163ffffffff1660e01b815260040160e060405180830381865afa158015610d58573d6000803e3d6000fd5b505050506040513d601f19601f82011682018060405250810190610d7c9190614a0d565b50601554959b5093995091975095509350915063ffffffff1673__$a76fe959a16b0ef92b5d2bd739d5cb0318$__63728bd45d6009610dba60465490565b6040516001600160e01b031960e085901b1681526004810192909252602482015260440160006040518083038186803b158015610df657600080fd5b505af4158015610e0a573d6000803e3d6000fd5b505060455460405163b5da217160e01b81526001600160a01b03909116925063b5da21719150610e4a908a908a908a908a908a908a908a90600401614aa9565b600060405180830381600087803b158015610e6457600080fd5b505af1158015610e78573d6000803e3d6000fd5b5050505050505050505050565b610e8d61469a565b604051632fc22b3f60e21b8152603b60048201526001600160601b038216602482015273__$a76fe959a16b0ef92b5d2bd739d5cb0318$__9063bf08acfc9060440161093c565b610edc61469a565b600080600080600080600080600080604560009054906101000a90046001600160a01b03166001600160a01b031663be05abe36040518163ffffffff1660e01b815260040161016060405180830381865afa158015610f3f573d6000803e3d6000fd5b505050506040513d601f19601f82011682018060405250810190610f6391906148ad565b9a509a509a5050995099509950995099509950995060006017600e0160009054906101000a90046001600160401b03169050601773__$a76fe959a16b0ef92b5d2bd739d5cb0318$__634569ab889091610fbc60465490565b6040516001600160e01b031960e085901b1681526004810192909252602482015260440160006040518083038186803b158015610ff857600080fd5b505af415801561100c573d6000803e3d6000fd5b505060455460405163c3b5ffc960e01b81526001600160a01b03909116925063c3b5ffc99150610aec908e908e908e908e908e908e908e908b908f908f908f90600401614993565b61105c61469a565b6000806000604560009054906101000a90046001600160a01b03166001600160a01b03166375b922d16040518163ffffffff1660e01b8152600401608060405180830381865afa1580156110b4573d6000803e3d6000fd5b505050506040513d601f19601f820116820180604052508101906110d89190614af8565b603b805493975091955093506001600160601b03909116915073__$a76fe959a16b0ef92b5d2bd739d5cb0318$__90638f2ca6459061111660465490565b6040516001600160e01b031960e085901b1681526004810192909252602482015260440160006040518083038186803b15801561115257600080fd5b505af4158015611166573d6000803e3d6000fd5b505060455460405163dc49117b60e01b81526001600160a01b03909116925063dc49117b91506111a0908490889088908890600401614b57565b600060405180830381600087803b1580156111ba57600080fd5b505af11580156111ce573d6000803e3d6000fd5b5050505050505050565b6111e061469a565b604051632eed92d760e21b8152600960048201526001600160601b038216602482015273__$a76fe959a16b0ef92b5d2bd739d5cb0318$__9063bbb64b5c9060440161093c565b61122f61469a565b6040516374b0fecf60e11b8152602d60048201526001600160401b038216602482015273__$a76fe959a16b0ef92b5d2bd739d5cb0318$__9063e961fd9e9060440161093c565b61127e61469a565b600080600080600080604560009054906101000a90046001600160a01b03166001600160a01b03166361ccf97a6040518163ffffffff1660e01b815260040160e060405180830381865afa1580156112da573d6000803e3d6000fd5b505050506040513d601f19601f820116820180604052508101906112fe9190614b87565b603554969c50949a509298509096509094509092505063ffffffff1673__$a76fe959a16b0ef92b5d2bd739d5cb0318$__6305be330f602d61133f60465490565b6040516001600160e01b031960e085901b1681526004810192909252602482015260440160006040518083038186803b15801561137b57600080fd5b505af415801561138f573d6000803e3d6000fd5b505060455460405163883d6a1160e01b81526001600160a01b03909116925063883d6a119150610e4a908a908a908a908a9088908b908b90600401614c02565b6113d761469a565b6048546114225760405162461bcd60e51b815260206004820152601460248201527310da185b99d9481b9bdd081a5b9a5d1a585d195960621b60448201526064015b60405180910390fd5b6046546048546114329042614c49565b1161147f5760405162461bcd60e51b815260206004820181905260248201527f476f7665726e616e63652064656c617920686173206e6f7420656c61707365646044820152606401611419565b60478054604655600090819055604855565b61149961469a565b600080600080600080604560009054906101000a90046001600160a01b03166001600160a01b03166361ccf97a6040518163ffffffff1660e01b815260040160e060405180830381865afa1580156114f5573d6000803e3d6000fd5b505050506040513d601f19601f820116820180604052508101906115199190614b87565b603354969c50949a509298509650909450909250506001600160401b031673__$a76fe959a16b0ef92b5d2bd739d5cb0318$__633861f138602d61155c60465490565b6040516001600160e01b031960e085901b1681526004810192909252602482015260440160006040518083038186803b15801561159857600080fd5b505af41580156115ac573d6000803e3d6000fd5b505060455460405163883d6a1160e01b81526001600160a01b03909116925063883d6a119150610e4a908a908a908a9087908b908b908b90600401614c02565b6115f461469a565b604051639707e9ad60e01b81526017600482015263ffffffff8216602482015273__$a76fe959a16b0ef92b5d2bd739d5cb0318$__90639707e9ad9060440161093c565b61164061469a565b6000806000604560009054906101000a90046001600160a01b03166001600160a01b031663c42b64d06040518163ffffffff1660e01b8152600401608060405180830381865afa158015611698573d6000803e3d6000fd5b505050506040513d601f19601f820116820180604052508101906116bc9190614c70565b50600754929550909350915063ffffffff1673__$a76fe959a16b0ef92b5d2bd739d5cb0318$__632520e8bf60016116f360465490565b6040516001600160e01b031960e085901b1681526004810192909252602482015260440160006040518083038186803b15801561172f57600080fd5b505af4158015611743573d6000803e3d6000fd5b5050604554604051633832650760e01b81526001600160a01b039091169250633832650791506111a0908790879087908790600401614cb3565b61178561469a565b600080600080600080600080600080604560009054906101000a90046001600160a01b03166001600160a01b031663be05abe36040518163ffffffff1660e01b815260040161016060405180830381865afa1580156117e8573d6000803e3d6000fd5b505050506040513d601f19601f8201168201806040525081019061180c91906148ad565b9a509a509a509a509a509a509a509a509a505099506000601760020160009054906101000a90046001600160401b03169050601773__$a76fe959a16b0ef92b5d2bd739d5cb0318$__63d6964b97909161186560465490565b6040516001600160e01b031960e085901b1681526004810192909252602482015260440160006040518083038186803b1580156118a157600080fd5b505af41580156118b5573d6000803e3d6000fd5b505060455460405163c3b5ffc960e01b81526001600160a01b03909116925063c3b5ffc99150610aec908e9085908f908f908f908f908f908f908f908f908f90600401614993565b61190561469a565b600080600080600080604560009054906101000a90046001600160a01b03166001600160a01b0316636e70ce416040518163ffffffff1660e01b815260040160e060405180830381865afa158015611961573d6000803e3d6000fd5b505050506040513d601f19601f820116820180604052508101906119859190614a0d565b60098054969d50949b50929950909750955093506001600160401b03909116915073__$a76fe959a16b0ef92b5d2bd739d5cb0318$__9063ec9f4760906119cb60465490565b6040516001600160e01b031960e085901b1681526004810192909252602482015260440160006040518083038186803b158015611a0757600080fd5b505af4158015611a1b573d6000803e3d6000fd5b505060455460405163b5da217160e01b81526001600160a01b03909116925063b5da21719150610e4a9084908b908b908b908b908b908b90600401614aa9565b611a6361469a565b60475542604855565b611a7461469a565b6000806000604560009054906101000a90046001600160a01b03166001600160a01b031663c42b64d06040518163ffffffff1660e01b8152600401608060405180830381865afa158015611acc573d6000803e3d6000fd5b505050506040513d601f19601f82011682018060405250810190611af09190614c70565b6001805493975091955093506001600160401b03909116915073__$a76fe959a16b0ef92b5d2bd739d5cb0318$__9063ae25638390611b2e60465490565b6040516001600160e01b031960e085901b1681526004810192909252602482015260440160006040518083038186803b158015611b6a57600080fd5b505af4158015611b7e573d6000803e3d6000fd5b5050604554604051633832650760e01b81526001600160a01b039091169250633832650791506111a0908490889088908890600401614cb3565b611bc061469a565b6040516368af502160e01b8152600960048201526001600160401b038216602482015273__$a76fe959a16b0ef92b5d2bd739d5cb0318$__906368af50219060440161093c565b611c0f61469a565b604051630ac6330760e11b8152600160048201526001600160401b038216602482015273__$a76fe959a16b0ef92b5d2bd739d5cb0318$__9063158c660e9060440161093c565b611c5e61469a565b6040516319de06fb60e31b8152600160048201526001600160401b038216602482015273__$a76fe959a16b0ef92b5d2bd739d5cb0318$__9063cef037d89060440161093c565b611cad61469a565b604051620f049d60ea1b8152600960048201526001600160401b038216602482015273__$a76fe959a16b0ef92b5d2bd739d5cb0318$__90633c1274009060440161093c565b611cfb61469a565b600080600080600080604560009054906101000a90046001600160a01b03166001600160a01b0316636e70ce416040518163ffffffff1660e01b815260040160e060405180830381865afa158015611d57573d6000803e3d6000fd5b505050506040513d601f19601f82011682018060405250810190611d7b9190614a0d565b600d54969c50949a5091985096509450909250506001600160401b031673__$a76fe959a16b0ef92b5d2bd739d5cb0318$__639232db3f6009611dbd60465490565b6040516001600160e01b031960e085901b1681526004810192909252602482015260440160006040518083038186803b158015611df957600080fd5b505af4158015611e0d573d6000803e3d6000fd5b505060455460405163b5da217160e01b81526001600160a01b03909116925063b5da21719150610e4a908a908a9086908b908b908b908b90600401614aa9565b611e5561469a565b6000806000604560009054906101000a90046001600160a01b03166001600160a01b03166375b922d16040518163ffffffff1660e01b8152600401608060405180830381865afa158015611ead573d6000803e3d6000fd5b505050506040513d601f19601f82011682018060405250810190611ed19190614af8565b50604154929550909350915063ffffffff1673__$a76fe959a16b0ef92b5d2bd739d5cb0318$__630c4e5686603b611f0860465490565b6040516001600160e01b031960e085901b1681526004810192909252602482015260440160006040518083038186803b158015611f4457600080fd5b505af4158015611f58573d6000803e3d6000fd5b505060455460405163dc49117b60e01b81526001600160a01b03909116925063dc49117b91506111a0908790879087908790600401614b57565b611f9a61469a565b604051633964f6cb60e11b8152601760048201526001600160401b038216602482015273__$a76fe959a16b0ef92b5d2bd739d5cb0318$__906372c9ed969060440161093c565b611fe961469a565b604051636312276d60e11b81526017600482015263ffffffff8216602482015273__$a76fe959a16b0ef92b5d2bd739d5cb0318$__9063c6244eda9060440161093c565b61203561469a565b604051632d453d5760e01b8152603b600482015263ffffffff8216602482015273__$a76fe959a16b0ef92b5d2bd739d5cb0318$__90632d453d579060440161093c565b61208161469a565b6040516377b3952360e11b8152600960048201526001600160401b038216602482015273__$a76fe959a16b0ef92b5d2bd739d5cb0318$__9063ef672a469060440161093c565b6120d061469a565b60405163382c42c560e11b8152603b600482015263ffffffff8216602482015273__$a76fe959a16b0ef92b5d2bd739d5cb0318$__90637058858a9060440161093c565b61211c61469a565b60405163730d3c4360e11b81526009600482015263ffffffff8216602482015273__$a76fe959a16b0ef92b5d2bd739d5cb0318$__9063e61a78869060440161093c565b61216861469a565b600080600080600080600080600080604560009054906101000a90046001600160a01b03166001600160a01b031663be05abe36040518163ffffffff1660e01b815260040161016060405180830381865afa1580156121cb573d6000803e3d6000fd5b505050506040513d601f19601f820116820180604052508101906121ef91906148ad565b9a509a509a509a505099509950995099509950995060006017600c0160009054906101000a900461ffff169050601773__$a76fe959a16b0ef92b5d2bd739d5cb0318$__63d7e1b317909161224360465490565b6040516001600160e01b031960e085901b1681526004810192909252602482015260440160006040518083038186803b15801561227f57600080fd5b505af4158015612293573d6000803e3d6000fd5b505060455460405163c3b5ffc960e01b81526001600160a01b03909116925063c3b5ffc99150610aec908e908e908e908e908e908e908a908f908f908f908f90600401614993565b6122e361469a565b604554604051635f2b2d0d60e01b81526001600160a01b038481166004830152831515602483015290911690635f2b2d0d906044015b600060405180830381600087803b15801561233357600080fd5b505af1158015612347573d6000803e3d6000fd5b505050505050565b61235761469a565b600080600080600080604560009054906101000a90046001600160a01b03166001600160a01b0316636e70ce416040518163ffffffff1660e01b815260040160e060405180830381865afa1580156123b3573d6000803e3d6000fd5b505050506040513d601f19601f820116820180604052508101906123d79190614a0d565b600f54969c50949a509298509650909450909250506001600160401b031673__$a76fe959a16b0ef92b5d2bd739d5cb0318$__638a346d4d600961241a60465490565b6040516001600160e01b031960e085901b1681526004810192909252602482015260440160006040518083038186803b15801561245657600080fd5b505af415801561246a573d6000803e3d6000fd5b505060455460405163b5da217160e01b81526001600160a01b03909116925063b5da21719150610e4a908a908a908a9087908b908b908b90600401614aa9565b6124b261469a565b600080600080600080600080600080604560009054906101000a90046001600160a01b03166001600160a01b031663be05abe36040518163ffffffff1660e01b815260040161016060405180830381865afa158015612515573d6000803e3d6000fd5b505050506040513d601f19601f8201168201806040525081019061253991906148ad565b9a509a509a509a509a50509950995099509950995060006017600a0160009054906101000a900463ffffffff169050601773__$a76fe959a16b0ef92b5d2bd739d5cb0318$__631b3f064f909161258f60465490565b6040516001600160e01b031960e085901b1681526004810192909252602482015260440160006040518083038186803b1580156125cb57600080fd5b505af41580156125df573d6000803e3d6000fd5b505060455460405163c3b5ffc960e01b81526001600160a01b03909116925063c3b5ffc99150610aec908e908e908e908e908e9089908f908f908f908f908f90600401614993565b61262f61469a565b6000604954116126785760405162461bcd60e51b815260206004820152601460248201527310da185b99d9481b9bdd081a5b9a5d1a585d195960621b6044820152606401611419565b6046546049546126889042614c49565b10156126d65760405162461bcd60e51b815260206004820181905260248201527f476f7665726e616e63652064656c617920686173206e6f7420656c61707365646044820152606401611419565b604554604a546040516334e2fffd60e21b81526001600160a01b03918216600482015291169063d38bfff490602401600060405180830381600087803b15801561271f57600080fd5b505af1158015612733573d6000803e3d6000fd5b505060006049555050604a80546001600160a01b0319169055565b61275661469a565b604554604051631835c4bf60e21b81526001600160a01b0384811660048301528315156024830152909116906360d712fc90604401612319565b61279861469a565b600080600080600080604560009054906101000a90046001600160a01b03166001600160a01b03166361ccf97a6040518163ffffffff1660e01b815260040160e060405180830381865afa1580156127f4573d6000803e3d6000fd5b505050506040513d601f19601f820116820180604052508101906128189190614b87565b50603954959b5093995091975095509350915063ffffffff1673__$a76fe959a16b0ef92b5d2bd739d5cb0318$__63dbf83803602d61285660465490565b6040516001600160e01b031960e085901b1681526004810192909252602482015260440160006040518083038186803b15801561289257600080fd5b505af41580156128a6573d6000803e3d6000fd5b505060455460405163883d6a1160e01b81526001600160a01b03909116925063883d6a119150610e4a908a908a908a908a908a908a908a90600401614c02565b6128ee61469a565b6040516323d4f60160e21b8152601760048201526001600160401b038216602482015273__$a76fe959a16b0ef92b5d2bd739d5cb0318$__90638f53d8049060440161093c565b61293d61469a565b600080600080600080604560009054906101000a90046001600160a01b03166001600160a01b0316636e70ce416040518163ffffffff1660e01b815260040160e060405180830381865afa158015612999573d6000803e3d6000fd5b505050506040513d601f19601f820116820180604052508101906129bd9190614a0d565b601354969c50949a509298509096509450909250506001600160601b031673__$a76fe959a16b0ef92b5d2bd739d5cb0318$__63f818e43c6009612a0060465490565b6040516001600160e01b031960e085901b1681526004810192909252602482015260440160006040518083038186803b158015612a3c57600080fd5b505af4158015612a50573d6000803e3d6000fd5b505060455460405163b5da217160e01b81526001600160a01b03909116925063b5da21719150610e4a908a908a908a908a908a9089908b90600401614aa9565b60468160038110612aa057600080fd5b0154905081565b612aaf61469a565b60405163f543e37d60e01b8152602d60048201526001600160401b038216602482015273__$a76fe959a16b0ef92b5d2bd739d5cb0318$__9063f543e37d9060440161093c565b612afe61469a565b612b0860006146f4565b565b612b1261469a565b6000806000604560009054906101000a90046001600160a01b03166001600160a01b03166375b922d16040518163ffffffff1660e01b8152600401608060405180830381865afa158015612b6a573d6000803e3d6000fd5b505050506040513d601f19601f82011682018060405250810190612b8e9190614af8565b603d5493965090945092505063ffffffff1673__$a76fe959a16b0ef92b5d2bd739d5cb0318$__63d2a27c33603b612bc560465490565b6040516001600160e01b031960e085901b1681526004810192909252602482015260440160006040518083038186803b158015612c0157600080fd5b505af4158015612c15573d6000803e3d6000fd5b505060455460405163dc49117b60e01b81526001600160a01b03909116925063dc49117b91506111a0908790859088908890600401614b57565b612c5761469a565b6040516353cf6f6560e01b81526001600482015263ffffffff8216602482015273__$a76fe959a16b0ef92b5d2bd739d5cb0318$__906353cf6f659060440161093c565b612ca361469a565b600080600080600080600080600080604560009054906101000a90046001600160a01b03166001600160a01b031663be05abe36040518163ffffffff1660e01b815260040161016060405180830381865afa158015612d06573d6000803e3d6000fd5b505050506040513d601f19601f82011682018060405250810190612d2a91906148ad565b9a509a509a509a509a509a509a509a5050995099506000601760040160009054906101000a900463ffffffff169050601773__$a76fe959a16b0ef92b5d2bd739d5cb0318$__6351a3d06e9091612d8060465490565b6040516001600160e01b031960e085901b1681526004810192909252602482015260440160006040518083038186803b158015612dbc57600080fd5b505af4158015612dd0573d6000803e3d6000fd5b505060455460405163c3b5ffc960e01b81526001600160a01b03909116925063c3b5ffc99150610aec908e908e9086908f908f908f908f908f908f908f908f90600401614993565b612e2061469a565b60405163126e077960e31b81526017600482015263ffffffff8216602482015273__$a76fe959a16b0ef92b5d2bd739d5cb0318$__906393703bc89060440161093c565b612e6c61469a565b6000806000604560009054906101000a90046001600160a01b03166001600160a01b031663c42b64d06040518163ffffffff1660e01b8152600401608060405180830381865afa158015612ec4573d6000803e3d6000fd5b505050506040513d601f19601f82011682018060405250810190612ee89190614c70565b600554939650919450909250506001600160401b031673__$a76fe959a16b0ef92b5d2bd739d5cb0318$__6368decba26001612f2360465490565b6040516001600160e01b031960e085901b1681526004810192909252602482015260440160006040518083038186803b158015612f5f57600080fd5b505af4158015612f73573d6000803e3d6000fd5b5050604554604051633832650760e01b81526001600160a01b039091169250633832650791506111a0908790879086908890600401614cb3565b612fb561469a565b6040516322b8310d60e21b8152601760048201526001600160601b038216602482015273__$a76fe959a16b0ef92b5d2bd739d5cb0318$__90638ae0c4349060440161093c565b61300461469a565b604a80546001600160a01b0319166001600160a01b0383169081179091554260498190556040805192835260208301919091527f24973178c1aef0f16b3490f7b45109bb38df71d627a7ed575597447150837881910160405180910390a150565b61306d61469a565b6040516336cdaf1960e11b81526017600482015261ffff8216602482015273__$a76fe959a16b0ef92b5d2bd739d5cb0318$__90636d9b5e329060440161093c565b6130b761469a565b6000806000604560009054906101000a90046001600160a01b03166001600160a01b031663c42b64d06040518163ffffffff1660e01b8152600401608060405180830381865afa15801561310f573d6000803e3d6000fd5b505050506040513d601f19601f820116820180604052508101906131339190614c70565b6003549396509094509250506001600160401b031673__$a76fe959a16b0ef92b5d2bd739d5cb0318$__63362c2372600161316d60465490565b6040516001600160e01b031960e085901b1681526004810192909252602482015260440160006040518083038186803b1580156131a957600080fd5b505af41580156131bd573d6000803e3d6000fd5b5050604554604051633832650760e01b81526001600160a01b039091169250633832650791506111a0908790859088908890600401614cb3565b6131ff61469a565b600080600080600080604560009054906101000a90046001600160a01b03166001600160a01b03166361ccf97a6040518163ffffffff1660e01b815260040160e060405180830381865afa15801561325b573d6000803e3d6000fd5b505050506040513d601f19601f8201168201806040525081019061327f9190614b87565b602d8054969d50949b509299509097509550935063ffffffff909116915073__$a76fe959a16b0ef92b5d2bd739d5cb0318$__9063a62029f6906132c260465490565b6040516001600160e01b031960e085901b1681526004810192909252602482015260440160006040518083038186803b1580156132fe57600080fd5b505af4158015613312573d6000803e3d6000fd5b505060455460405163883d6a1160e01b81526001600160a01b03909116925063883d6a119150610e4a9084908b908b908b908b908b908b90600401614c02565b61335a61469a565b604051631323ffb160e11b81526017600482015263ffffffff8216602482015273__$a76fe959a16b0ef92b5d2bd739d5cb0318$__90632647ff629060440161093c565b6133a661469a565b600080600080600080600080600080604560009054906101000a90046001600160a01b03166001600160a01b031663be05abe36040518163ffffffff1660e01b815260040161016060405180830381865afa158015613409573d6000803e3d6000fd5b505050506040513d601f19601f8201168201806040525081019061342d91906148ad565b9a50509950995099509950995099509950995099506000601760120160009054906101000a90046001600160601b03169050601773__$a76fe959a16b0ef92b5d2bd739d5cb0318$__636d5be9be909161348660465490565b6040516001600160e01b031960e085901b1681526004810192909252602482015260440160006040518083038186803b1580156134c257600080fd5b505af41580156134d6573d6000803e3d6000fd5b505060455460405163c3b5ffc960e01b81526001600160a01b03909116925063c3b5ffc99150610aec908e908e908e908e908e908e908e908e908e908d908f90600401614993565b61352661469a565b60405163a6b0e7bd60e01b81526017600482015263ffffffff8216602482015273__$a76fe959a16b0ef92b5d2bd739d5cb0318$__9063a6b0e7bd9060440161093c565b61357261469a565b604051620c4fa760ea1b8152602d600482015263ffffffff8216602482015273__$a76fe959a16b0ef92b5d2bd739d5cb0318$__9063313e9c009060440161093c565b6135bd61469a565b6040516391346cbb60e01b8152602d60048201526001600160401b038216602482015273__$a76fe959a16b0ef92b5d2bd739d5cb0318$__906391346cbb9060440161093c565b61360c61469a565b60455460405163be26ebad60e01b81526001600160a01b0383811660048301529091169063be26ebad906024015b600060405180830381600087803b15801561365457600080fd5b505af1158015610968573d6000803e3d6000fd5b61367061469a565b6040516304b8e2eb60e01b8152602d60048201526001600160401b038216602482015273__$a76fe959a16b0ef92b5d2bd739d5cb0318$__906304b8e2eb9060440161093c565b6136bf61469a565b600080600080600080600080600080604560009054906101000a90046001600160a01b03166001600160a01b031663be05abe36040518163ffffffff1660e01b815260040161016060405180830381865afa158015613722573d6000803e3d6000fd5b505050506040513d601f19601f8201168201806040525081019061374691906148ad565b9a509a509a509a509a509a509a509a509a509a50506000601760000160009054906101000a90046001600160401b03169050601773__$a76fe959a16b0ef92b5d2bd739d5cb0318$__630b5a08ed909161379f60465490565b6040516001600160e01b031960e085901b1681526004810192909252602482015260440160006040518083038186803b1580156137db57600080fd5b505af41580156137ef573d6000803e3d6000fd5b505060455460405163c3b5ffc960e01b81526001600160a01b03909116925063c3b5ffc99150610aec9084908f908f908f908f908f908f908f908f908f908f90600401614993565b61383f61469a565b600080600080600080604560009054906101000a90046001600160a01b03166001600160a01b03166361ccf97a6040518163ffffffff1660e01b815260040160e060405180830381865afa15801561389b573d6000803e3d6000fd5b505050506040513d601f19601f820116820180604052508101906138bf9190614b87565b603154969c50949a5091985096509450909250506001600160401b031673__$a76fe959a16b0ef92b5d2bd739d5cb0318$__63f08cac39602d61390160465490565b6040516001600160e01b031960e085901b1681526004810192909252602482015260440160006040518083038186803b15801561393d57600080fd5b505af4158015613951573d6000803e3d6000fd5b505060455460405163883d6a1160e01b81526001600160a01b03909116925063883d6a119150610e4a908a908a9086908b908b908b908b90600401614c02565b61399961469a565b600080600080600080600080600080604560009054906101000a90046001600160a01b03166001600160a01b031663be05abe36040518163ffffffff1660e01b815260040161016060405180830381865afa1580156139fc573d6000803e3d6000fd5b505050506040513d601f19601f82011682018060405250810190613a2091906148ad565b9a509a509a509a509a509a505099509950995099506000601760080160009054906101000a90046001600160601b03169050601773__$a76fe959a16b0ef92b5d2bd739d5cb0318$__63ffbe06279091613a7960465490565b6040516001600160e01b031960e085901b1681526004810192909252602482015260440160006040518083038186803b158015613ab557600080fd5b505af4158015613ac9573d6000803e3d6000fd5b505060455460405163c3b5ffc960e01b81526001600160a01b03909116925063c3b5ffc99150610aec908e908e908e908e9088908f908f908f908f908f908f90600401614993565b613b1961469a565b604051630b56b11560e41b8152604360048201526001600160a01b038216602482015273__$a76fe959a16b0ef92b5d2bd739d5cb0318$__9063b56b11509060440161093c565b613b6861469a565b604051638a397dd760e01b8152603b60048201526001600160601b038216602482015273__$a76fe959a16b0ef92b5d2bd739d5cb0318$__90638a397dd79060440161093c565b613bb761469a565b6040516301d2d6f160e51b8152601760048201526001600160401b038216602482015273__$a76fe959a16b0ef92b5d2bd739d5cb0318$__90633a5ade209060440161093c565b613c0661469a565b604380546001600160a01b03169073__$a76fe959a16b0ef92b5d2bd739d5cb0318$__90634a46b83390613c3960465490565b6040516001600160e01b031960e085901b1681526004810192909252602482015260440160006040518083038186803b158015613c7557600080fd5b505af4158015613c89573d6000803e3d6000fd5b5050604554604051637f51bb1f60e01b81526001600160a01b0385811660048301529091169250637f51bb1f915060240161363a565b613cc761469a565b60405163e37b9e1b60e01b8152602d600482015263ffffffff8216602482015273__$a76fe959a16b0ef92b5d2bd739d5cb0318$__9063e37b9e1b9060440161093c565b613d1361469a565b600080600080600080604560009054906101000a90046001600160a01b03166001600160a01b0316636e70ce416040518163ffffffff1660e01b815260040160e060405180830381865afa158015613d6f573d6000803e3d6000fd5b505050506040513d601f19601f82011682018060405250810190613d939190614a0d565b601154969c50949a509298509096509094509092505063ffffffff1673__$a76fe959a16b0ef92b5d2bd739d5cb0318$__63a48814a56009613dd460465490565b6040516001600160e01b031960e085901b1681526004810192909252602482015260440160006040518083038186803b158015613e1057600080fd5b505af4158015613e24573d6000803e3d6000fd5b505060455460405163b5da217160e01b81526001600160a01b03909116925063b5da21719150610e4a908a908a908a908a9088908b908b90600401614aa9565b613e6c61469a565b6040516383eb9c5960e01b81526009600482015263ffffffff8216602482015273__$a76fe959a16b0ef92b5d2bd739d5cb0318$__906383eb9c599060440161093c565b613eb861469a565b600080600080600080604560009054906101000a90046001600160a01b03166001600160a01b0316636e70ce416040518163ffffffff1660e01b815260040160e060405180830381865afa158015613f14573d6000803e3d6000fd5b505050506040513d601f19601f82011682018060405250810190613f389190614a0d565b600b54969c50939a50919850965094509250506001600160401b031673__$a76fe959a16b0ef92b5d2bd739d5cb0318$__63c4faa8676009613f7960465490565b6040516001600160e01b031960e085901b1681526004810192909252602482015260440160006040518083038186803b158015613fb557600080fd5b505af4158015613fc9573d6000803e3d6000fd5b505060455460405163b5da217160e01b81526001600160a01b03909116925063b5da21719150610e4a908a9085908b908b908b908b908b90600401614aa9565b61401161469a565b60405163128c836760e21b8152601760048201526001600160601b038216602482015273__$a76fe959a16b0ef92b5d2bd739d5cb0318$__90634a320d9c9060440161093c565b61406061469a565b6001600160a01b0381166140c55760405162461bcd60e51b815260206004820152602660248201527f4f776e61626c653a206e6577206f776e657220697320746865207a65726f206160448201526564647265737360d01b6064820152608401611419565b6140ce816146f4565b50565b6140d961469a565b600080600080600080600080600080604560009054906101000a90046001600160a01b03166001600160a01b031663be05abe36040518163ffffffff1660e01b815260040161016060405180830381865afa15801561413c573d6000803e3d6000fd5b505050506040513d601f19601f8201168201806040525081019061416091906148ad565b9a509a509a509a509a509a509a50509950995099506000601760060160009054906101000a900463ffffffff169050601773__$a76fe959a16b0ef92b5d2bd739d5cb0318$__63dcce6cc890916141b660465490565b6040516001600160e01b031960e085901b1681526004810192909252602482015260440160006040518083038186803b1580156141f257600080fd5b505af4158015614206573d6000803e3d6000fd5b505060455460405163c3b5ffc960e01b81526001600160a01b03909116925063c3b5ffc99150610aec908e908e908e9087908f908f908f908f908f908f908f90600401614993565b61425661469a565b6000806000604560009054906101000a90046001600160a01b03166001600160a01b03166375b922d16040518163ffffffff1660e01b8152600401608060405180830381865afa1580156142ae573d6000803e3d6000fd5b505050506040513d601f19601f820116820180604052508101906142d29190614af8565b603f54939650919450909250506001600160601b031673__$a76fe959a16b0ef92b5d2bd739d5cb0318$__63a9e31763603b61430d60465490565b6040516001600160e01b031960e085901b1681526004810192909252602482015260440160006040518083038186803b15801561434957600080fd5b505af415801561435d573d6000803e3d6000fd5b505060455460405163dc49117b60e01b81526001600160a01b03909116925063dc49117b91506111a0908790879086908890600401614b57565b61439f61469a565b600080600080600080604560009054906101000a90046001600160a01b03166001600160a01b03166361ccf97a6040518163ffffffff1660e01b815260040160e060405180830381865afa1580156143fb573d6000803e3d6000fd5b505050506040513d601f19601f8201168201806040525081019061441f9190614b87565b603754969c50949a509298509096509450909250506001600160401b031673__$a76fe959a16b0ef92b5d2bd739d5cb0318$__63af11623a602d61446260465490565b6040516001600160e01b031960e085901b1681526004810192909252602482015260440160006040518083038186803b15801561449e57600080fd5b505af41580156144b2573d6000803e3d6000fd5b505060455460405163883d6a1160e01b81526001600160a01b03909116925063883d6a119150610e4a908a908a908a908a908a9089908b90600401614c02565b6144fa61469a565b60405163baa9397360e01b8152600960048201526001600160401b038216602482015273__$a76fe959a16b0ef92b5d2bd739d5cb0318$__9063baa939739060440161093c565b61454961469a565b600080600080600080604560009054906101000a90046001600160a01b03166001600160a01b03166361ccf97a6040518163ffffffff1660e01b815260040160e060405180830381865afa1580156145a5573d6000803e3d6000fd5b505050506040513d601f19601f820116820180604052508101906145c99190614b87565b602f54969c50939a50919850965094509250506001600160401b031673__$a76fe959a16b0ef92b5d2bd739d5cb0318$__6381f5c03a602d61460a60465490565b6040516001600160e01b031960e085901b1681526004810192909252602482015260440160006040518083038186803b15801561464657600080fd5b505af415801561465a573d6000803e3d6000fd5b505060455460405163883d6a1160e01b81526001600160a01b03909116925063883d6a119150610e4a908a9085908b908b908b908b908b90600401614c02565b6000546001600160a01b03163314612b085760405162461bcd60e51b815260206004820181905260248201527f4f776e61626c653a2063616c6c6572206973206e6f7420746865206f776e65726044820152606401611419565b600080546001600160a01b038381166001600160a01b0319831681178455604051919092169283917f8be0079c531659141344cd1fd0a4f28419497f9722a3daafe3b4186f6b6457e09190a35050565b6001600160401b03811681146140ce57600080fd5b60006020828403121561476b57600080fd5b813561477681614744565b9392505050565b63ffffffff811681146140ce57600080fd5b6000602082840312156147a157600080fd5b81356147768161477d565b6001600160601b03811681146140ce57600080fd5b6000602082840312156147d357600080fd5b8135614776816147ac565b6000602082840312156147f057600080fd5b5035919050565b80356001600160a01b038116811461480e57600080fd5b919050565b6000806040838503121561482657600080fd5b61482f836147f7565b91506020830135801515811461484457600080fd5b809150509250929050565b60006020828403121561486157600080fd5b614776826147f7565b61ffff811681146140ce57600080fd5b60006020828403121561488c57600080fd5b81356147768161486a565b805161480e8161477d565b805161480e816147ac565b60008060008060008060008060008060006101608c8e0312156148cf57600080fd5b8b516148da81614744565b60208d0151909b506148eb81614744565b60408d0151909a506148fc8161477d565b60608d015190995061490d8161477d565b60808d015190985061491e816147ac565b60a08d015190975061492f8161477d565b60c08d01519096506149408161486a565b60e08d015190955061495181614744565b6101008d01519094506149638161477d565b92506149726101208d016148a2565b91506149816101408d01614897565b90509295989b509295989b9093969950565b6001600160401b039b8c168152998b1660208b015263ffffffff98891660408b015296881660608a01526001600160601b0395861660808a015293871660a089015261ffff9290921660c088015290961660e086015294831661010085015293909316610120830152919091166101408201526101600190565b600080600080600080600060e0888a031215614a2857600080fd5b8751614a3381614744565b6020890151909750614a4481614744565b6040890151909650614a5581614744565b6060890151909550614a6681614744565b6080890151909450614a778161477d565b60a0890151909350614a88816147ac565b60c0890151909250614a998161477d565b8091505092959891949750929550565b6001600160401b0397881681529587166020870152938616604086015291909416606084015263ffffffff93841660808401526001600160601b031660a083015290911660c082015260e00190565b60008060008060808587031215614b0e57600080fd5b8451614b19816147ac565b6020860151909450614b2a8161477d565b6040860151909350614b3b816147ac565b6060860151909250614b4c8161477d565b939692955090935050565b6001600160601b03948516815263ffffffff93841660208201529190931660408201529116606082015260800190565b600080600080600080600060e0888a031215614ba257600080fd5b8751614bad8161477d565b6020890151909750614bbe81614744565b6040890151909650614bcf81614744565b6060890151909550614be081614744565b6080890151909450614bf18161477d565b60a0890151909350614a8881614744565b63ffffffff97881681526001600160401b03968716602082015294861660408601529285166060850152908516608084015290921660a0820152911660c082015260e00190565b81810381811115614c6a57634e487b7160e01b600052601160045260246000fd5b92915050565b60008060008060808587031215614c8657600080fd5b8451614c9181614744565b6020860151909450614ca281614744565b6040860151909350614b3b81614744565b6001600160401b03948516815292841660208401529216604082015263ffffffff90911660608201526080019056fea26469706673582212208f06da53006b028db458b0210b1dd46894d90bec6a18b0ab2fa1ee76a4e7ee1464736f6c63430008110033",
  "libraries": {
    "BridgeGovernanceParameters": "0xce4b16b81A28d785FEEB7b1D56a9B97d450D3443"
  }
}