{
  "address": "0xa544b70dC6af906862f68eb8e68c27bb7150e672",
  "abi": [
    {
      "inputs": [
        {
          "internalType": "contract Bank",
          "name": "_bank",
          "type": "address"
        }
      ],
      "stateMutability": "nonpayable",
      "type": "constructor"
    },
    {
      "anonymous": false,
      "inputs": [
        {
          "indexed": false,
          "internalType": "address",
          "name": "donor",
          "type": "address"
        },
        {
          "indexed": false,
          "internalType": "uint256",
          "name": "donatedAmount",
          "type": "uint256"
        }
      ],
      "name": "DonationReceived",
      "type": "event"
    },
    {
      "inputs": [],
      "name": "bank",
      "outputs": [
        {
          "internalType": "contract Bank",
          "name": "",
          "type": "address"
        }
      ],
      "stateMutability": "view",
      "type": "function"
    },
    {
      "inputs": [
        {
          "internalType": "uint256",
          "name": "amount",
          "type": "uint256"
        }
      ],
      "name": "donate",
      "outputs": [],
      "stateMutability": "nonpayable",
      "type": "function"
    },
    {
      "inputs": [
        {
          "internalType": "address",
          "name": "owner",
          "type": "address"
        },
        {
          "internalType": "uint256",
          "name": "amount",
          "type": "uint256"
        },
        {
          "internalType": "bytes",
          "name": "",
          "type": "bytes"
        }
      ],
      "name": "receiveBalanceApproval",
      "outputs": [],
      "stateMutability": "nonpayable",
      "type": "function"
    },
    {
      "inputs": [
        {
          "internalType": "address[]",
          "name": "depositors",
          "type": "address[]"
        },
        {
          "internalType": "uint256[]",
          "name": "depositedAmounts",
          "type": "uint256[]"
        }
      ],
      "name": "receiveBalanceIncrease",
      "outputs": [],
      "stateMutability": "nonpayable",
      "type": "function"
    }
  ],
  "transactionHash": "0x7c6998485393862491877bbfa9a1b24a4be0fd1976a8b158c579ee530b8a8510",
  "args": [
    "0x65Fbae61ad2C8836fFbFB502A0dA41b0789D9Fc6"
  ],
  "numDeployments": 1,
  "solcInputHash": "887fad6b16575ba42183543c324eeb0e",
  "bytecode": "0x608060405234801561001057600080fd5b50604051610a1d380380610a1d83398101604081905261002f916100ae565b6001600160a01b0381166100895760405162461bcd60e51b815260206004820181905260248201527f42616e6b2063616e206e6f7420626520746865207a65726f2061646472657373604482015260640160405180910390fd5b600080546001600160a01b0319166001600160a01b03929092169190911790556100de565b6000602082840312156100c057600080fd5b81516001600160a01b03811681146100d757600080fd5b9392505050565b610930806100ed6000396000f3fe608060405234801561001057600080fd5b506004361061004c5760003560e01c8063461c637314610051578063475d05701461006657806376cdb03b14610079578063f14faf6f146100a8575b600080fd5b61006461005f3660046106df565b6100bb565b005b61006461007436600461077d565b610298565b60005461008c906001600160a01b031681565b6040516001600160a01b03909116815260200160405180910390f35b6100646100b6366004610848565b6104ca565b6000546001600160a01b0316331461011a5760405162461bcd60e51b815260206004820152601660248201527f43616c6c6572206973206e6f74207468652042616e6b0000000000000000000060448201526064015b60405180910390fd5b600083900361016b5760405162461bcd60e51b815260206004820152601760248201527f4e6f206465706f7369746f7273207370656369666965640000000000000000006044820152606401610111565b6000805b848110156102325783838281811061018957610189610861565b905060200201358261019b919061088d565b91507f264f630d9efa0d07053a31163641d9fcc0adafc9d9e76f1c37c2ce3a558d2c528686838181106101d0576101d0610861565b90506020020160208101906101e591906108a6565b8585848181106101f7576101f7610861565b604080516001600160a01b0390951685526020918202939093013590840152500160405180910390a18061022a816108c8565b91505061016f565b5060005460405163392aee4360e01b8152600481018390526001600160a01b039091169063392aee4390602401600060405180830381600087803b15801561027957600080fd5b505af115801561028d573d6000803e3d6000fd5b505050505050505050565b6000546001600160a01b031633146102f25760405162461bcd60e51b815260206004820152601660248201527f43616c6c6572206973206e6f74207468652042616e6b000000000000000000006044820152606401610111565b6000546040516370a0823160e01b81526001600160a01b038581166004830152849216906370a0823190602401602060405180830381865afa15801561033c573d6000803e3d6000fd5b505050506040513d601f19601f8201168201806040525081019061036091906108e1565b10156103b95760405162461bcd60e51b815260206004820152602260248201527f416d6f756e7420657863656564732062616c616e636520696e207468652062616044820152616e6b60f01b6064820152608401610111565b604080516001600160a01b0385168152602081018490527f264f630d9efa0d07053a31163641d9fcc0adafc9d9e76f1c37c2ce3a558d2c52910160405180910390a1600054604051631f1b6d2760e21b81526001600160a01b0385811660048301523060248301526044820185905290911690637c6db49c90606401600060405180830381600087803b15801561044f57600080fd5b505af1158015610463573d6000803e3d6000fd5b505060005460405163392aee4360e01b8152600481018690526001600160a01b03909116925063392aee439150602401600060405180830381600087803b1580156104ad57600080fd5b505af11580156104c1573d6000803e3d6000fd5b50505050505050565b6000546040516370a0823160e01b815233600482015282916001600160a01b0316906370a0823190602401602060405180830381865afa158015610512573d6000803e3d6000fd5b505050506040513d601f19601f8201168201806040525081019061053691906108e1565b101561058f5760405162461bcd60e51b815260206004820152602260248201527f416d6f756e7420657863656564732062616c616e636520696e207468652062616044820152616e6b60f01b6064820152608401610111565b60408051338152602081018390527f264f630d9efa0d07053a31163641d9fcc0adafc9d9e76f1c37c2ce3a558d2c52910160405180910390a1600054604051631f1b6d2760e21b8152336004820152306024820152604481018390526001600160a01b0390911690637c6db49c90606401600060405180830381600087803b15801561061a57600080fd5b505af115801561062e573d6000803e3d6000fd5b505060005460405163392aee4360e01b8152600481018590526001600160a01b03909116925063392aee439150602401600060405180830381600087803b15801561067857600080fd5b505af115801561068c573d6000803e3d6000fd5b5050505050565b60008083601f8401126106a557600080fd5b50813567ffffffffffffffff8111156106bd57600080fd5b6020830191508360208260051b85010111156106d857600080fd5b9250929050565b600080600080604085870312156106f557600080fd5b843567ffffffffffffffff8082111561070d57600080fd5b61071988838901610693565b9096509450602087013591508082111561073257600080fd5b5061073f87828801610693565b95989497509550505050565b80356001600160a01b038116811461076257600080fd5b919050565b634e487b7160e01b600052604160045260246000fd5b60008060006060848603121561079257600080fd5b61079b8461074b565b925060208401359150604084013567ffffffffffffffff808211156107bf57600080fd5b818601915086601f8301126107d357600080fd5b8135818111156107e5576107e5610767565b604051601f8201601f19908116603f0116810190838211818310171561080d5761080d610767565b8160405282815289602084870101111561082657600080fd5b8260208601602083013760006020848301015280955050505050509250925092565b60006020828403121561085a57600080fd5b5035919050565b634e487b7160e01b600052603260045260246000fd5b634e487b7160e01b600052601160045260246000fd5b808201808211156108a0576108a0610877565b92915050565b6000602082840312156108b857600080fd5b6108c18261074b565b9392505050565b6000600182016108da576108da610877565b5060010190565b6000602082840312156108f357600080fd5b505191905056fea2646970667358221220477f34f7e107515e966ecf16b9041936f4c2020e109f50cc6c87a5e8d546499764736f6c63430008110033",
  "devdoc": {
    "kind": "dev",
    "methods": {
      "donate(uint256)": {
        "details": "Requirements:      - The caller's balance in the Bank must be greater than or equal        to the `amount`,      - Donation Vault must have an allowance for caller's balance in        the Bank for at least `amount`.",
        "params": {
          "amount": "Amount of the Bank balance to donate."
        }
      },
      "receiveBalanceApproval(address,uint256,bytes)": {
        "details": "Requirements:      - Can only be called by the Bank via `approveBalanceAndCall`,      - The `owner` balance in the Bank must be greater than or equal        to the `amount`.",
        "params": {
          "amount": "The amount of the Bank balance approved by the owner        to be used by the vault.",
          "owner": "Address of the Bank balance owner who approved their        balance to be used by the vault."
        }
      },
      "receiveBalanceIncrease(address[],uint256[])": {
        "details": "Requirements:      - Can only be called by the Bank after the Bridge swept deposits        and Bank increased balance for the vault,      - The `depositors` array must not be empty,      - The `depositors` array length must be equal to the        `depositedAmounts` array length.",
        "params": {
          "depositedAmounts": "Amounts deposited by individual depositors and        swept.",
          "depositors": "Addresses of depositors whose deposits have been swept."
        }
      }
    },
    "title": "BTC donation vault",
    "version": 1
  },
  "userdoc": {
    "kind": "user",
    "methods": {
      "donate(uint256)": {
        "notice": "Transfers the given `amount` of the Bank balance from the         caller to the Donation Vault and immediately decreases the         vault's balance in the Bank by the transferred `amount`."
      },
      "receiveBalanceApproval(address,uint256,bytes)": {
        "notice": "Transfers the given `amount` of the Bank balance from the         `owner` to the Donation Vault and immediately decreases the         vault's balance in the Bank by the transferred `amount`."
      },
      "receiveBalanceIncrease(address[],uint256[])": {
        "notice": "Ignores the deposited amounts and does not increase depositors'         individual balances. The vault decreases its own tBTC balance         in the Bank by the total deposited amount."
      }
    },
    "notice": "Vault that allows making BTC donations to the system. Upon deposit,         this vault does not increase depositors' balances and always         decreases its own balance in the same transaction. The vault also         allows making donations using existing Bank balances.         BEWARE: ALL BTC DEPOSITS TARGETING THIS VAULT ARE NOT REDEEMABLE         AND THERE IS NO WAY TO RESTORE THE DONATED BALANCE.         USE THIS VAULT ONLY WHEN YOU REALLY KNOW WHAT YOU ARE DOING!",
    "version": 1
  },
  "storageLayout": {
    "storage": [
      {
        "astId": 33060,
        "contract": "contracts/vault/DonationVault.sol:DonationVault",
        "label": "bank",
        "offset": 0,
        "slot": "0",
        "type": "t_contract(Bank)18611"
      }
    ],
    "types": {
      "t_contract(Bank)18611": {
        "encoding": "inplace",
        "label": "contract Bank",
        "numberOfBytes": "20"
      }
    }
  }
}