{
  "address": "0x836cdFE63fe2d63f8Bdb69b96f6097F36635896E",
  "abi": [
    {
      "anonymous": false,
      "inputs": [
        {
          "indexed": false,
          "internalType": "bool",
          "name": "newStatus",
          "type": "bool"
        }
      ],
      "name": "AuthorizationRequirementChanged",
      "type": "event"
    },
    {
      "anonymous": false,
      "inputs": [
        {
          "indexed": false,
          "internalType": "uint256",
          "name": "blockHeight",
          "type": "uint256"
        }
      ],
      "name": "Genesis",
      "type": "event"
    },
    {
      "anonymous": false,
      "inputs": [
        {
          "indexed": true,
          "internalType": "address",
          "name": "previousOwner",
          "type": "address"
        },
        {
          "indexed": true,
          "internalType": "address",
          "name": "newOwner",
          "type": "address"
        }
      ],
      "name": "OwnershipTransferred",
      "type": "event"
    },
    {
      "anonymous": false,
      "inputs": [
        {
          "indexed": false,
          "internalType": "uint256",
          "name": "newLength",
          "type": "uint256"
        }
      ],
      "name": "ProofLengthChanged",
      "type": "event"
    },
    {
      "anonymous": false,
      "inputs": [
        {
          "indexed": false,
          "internalType": "uint256",
          "name": "oldDifficulty",
          "type": "uint256"
        },
        {
          "indexed": false,
          "internalType": "uint256",
          "name": "newDifficulty",
          "type": "uint256"
        }
      ],
      "name": "Retarget",
      "type": "event"
    },
    {
      "anonymous": false,
      "inputs": [
        {
          "indexed": false,
          "internalType": "address",
          "name": "submitter",
          "type": "address"
        }
      ],
      "name": "SubmitterAuthorized",
      "type": "event"
    },
    {
      "anonymous": false,
      "inputs": [
        {
          "indexed": false,
          "internalType": "address",
          "name": "submitter",
          "type": "address"
        }
      ],
      "name": "SubmitterDeauthorized",
      "type": "event"
    },
    {
      "inputs": [],
      "name": "authorizationRequired",
      "outputs": [
        {
          "internalType": "bool",
          "name": "",
          "type": "bool"
        }
      ],
      "stateMutability": "view",
      "type": "function"
    },
    {
      "inputs": [
        {
          "internalType": "address",
          "name": "submitter",
          "type": "address"
        }
      ],
      "name": "authorize",
      "outputs": [],
      "stateMutability": "nonpayable",
      "type": "function"
    },
    {
      "inputs": [],
      "name": "currentEpoch",
      "outputs": [
        {
          "internalType": "uint64",
          "name": "",
          "type": "uint64"
        }
      ],
      "stateMutability": "view",
      "type": "function"
    },
    {
      "inputs": [
        {
          "internalType": "address",
          "name": "submitter",
          "type": "address"
        }
      ],
      "name": "deauthorize",
      "outputs": [],
      "stateMutability": "nonpayable",
      "type": "function"
    },
    {
      "inputs": [
        {
          "internalType": "bytes",
          "name": "genesisHeader",
          "type": "bytes"
        },
        {
          "internalType": "uint256",
          "name": "genesisHeight",
          "type": "uint256"
        },
        {
          "internalType": "uint64",
          "name": "genesisProofLength",
          "type": "uint64"
        }
      ],
      "name": "genesis",
      "outputs": [],
      "stateMutability": "nonpayable",
      "type": "function"
    },
    {
      "inputs": [],
      "name": "genesisEpoch",
      "outputs": [
        {
          "internalType": "uint64",
          "name": "",
          "type": "uint64"
        }
      ],
      "stateMutability": "view",
      "type": "function"
    },
    {
      "inputs": [
        {
          "internalType": "uint256",
          "name": "blockNumber",
          "type": "uint256"
        }
      ],
      "name": "getBlockDifficulty",
      "outputs": [
        {
          "internalType": "uint256",
          "name": "",
          "type": "uint256"
        }
      ],
      "stateMutability": "view",
      "type": "function"
    },
    {
      "inputs": [],
      "name": "getCurrentAndPrevEpochDifficulty",
      "outputs": [
        {
          "internalType": "uint256",
          "name": "current",
          "type": "uint256"
        },
        {
          "internalType": "uint256",
          "name": "previous",
          "type": "uint256"
        }
      ],
      "stateMutability": "view",
      "type": "function"
    },
    {
      "inputs": [],
      "name": "getCurrentEpochDifficulty",
      "outputs": [
        {
          "internalType": "uint256",
          "name": "",
          "type": "uint256"
        }
      ],
      "stateMutability": "view",
      "type": "function"
    },
    {
      "inputs": [
        {
          "internalType": "uint256",
          "name": "epochNumber",
          "type": "uint256"
        }
      ],
      "name": "getEpochDifficulty",
      "outputs": [
        {
          "internalType": "uint256",
          "name": "",
          "type": "uint256"
        }
      ],
      "stateMutability": "view",
      "type": "function"
    },
    {
      "inputs": [],
      "name": "getPrevEpochDifficulty",
      "outputs": [
        {
          "internalType": "uint256",
          "name": "",
          "type": "uint256"
        }
      ],
      "stateMutability": "view",
      "type": "function"
    },
    {
      "inputs": [],
      "name": "getRelayRange",
      "outputs": [
        {
          "internalType": "uint256",
          "name": "relayGenesis",
          "type": "uint256"
        },
        {
          "internalType": "uint256",
          "name": "currentEpochEnd",
          "type": "uint256"
        }
      ],
      "stateMutability": "view",
      "type": "function"
    },
    {
      "inputs": [
        {
          "internalType": "address",
          "name": "",
          "type": "address"
        }
      ],
      "name": "isAuthorized",
      "outputs": [
        {
          "internalType": "bool",
          "name": "",
          "type": "bool"
        }
      ],
      "stateMutability": "view",
      "type": "function"
    },
    {
      "inputs": [],
      "name": "owner",
      "outputs": [
        {
          "internalType": "address",
          "name": "",
          "type": "address"
        }
      ],
      "stateMutability": "view",
      "type": "function"
    },
    {
      "inputs": [],
      "name": "proofLength",
      "outputs": [
        {
          "internalType": "uint64",
          "name": "",
          "type": "uint64"
        }
      ],
      "stateMutability": "view",
      "type": "function"
    },
    {
      "inputs": [],
      "name": "ready",
      "outputs": [
        {
          "internalType": "bool",
          "name": "",
          "type": "bool"
        }
      ],
      "stateMutability": "view",
      "type": "function"
    },
    {
      "inputs": [],
      "name": "renounceOwnership",
      "outputs": [],
      "stateMutability": "nonpayable",
      "type": "function"
    },
    {
      "inputs": [
        {
          "internalType": "bytes",
          "name": "headers",
          "type": "bytes"
        }
      ],
      "name": "retarget",
      "outputs": [],
      "stateMutability": "nonpayable",
      "type": "function"
    },
    {
      "inputs": [
        {
          "internalType": "bool",
          "name": "status",
          "type": "bool"
        }
      ],
      "name": "setAuthorizationStatus",
      "outputs": [],
      "stateMutability": "nonpayable",
      "type": "function"
    },
    {
      "inputs": [
        {
          "internalType": "uint64",
          "name": "newLength",
          "type": "uint64"
        }
      ],
      "name": "setProofLength",
      "outputs": [],
      "stateMutability": "nonpayable",
      "type": "function"
    },
    {
      "inputs": [
        {
          "internalType": "address",
          "name": "newOwner",
          "type": "address"
        }
      ],
      "name": "transferOwnership",
      "outputs": [],
      "stateMutability": "nonpayable",
      "type": "function"
    },
    {
      "inputs": [
        {
          "internalType": "bytes",
          "name": "headers",
          "type": "bytes"
        }
      ],
      "name": "validateChain",
      "outputs": [
        {
          "internalType": "uint256",
          "name": "startingHeaderTimestamp",
          "type": "uint256"
        },
        {
          "internalType": "uint256",
          "name": "headerCount",
          "type": "uint256"
        }
      ],
      "stateMutability": "view",
      "type": "function"
    }
  ],
  "transactionHash": "0x5c6828aaeea8f18f42d9a78057c8a6179f5ed049613c8941d63a86569f3aac32",
  "args": [],
  "numDeployments": 1,
  "solcInputHash": "887fad6b16575ba42183543c324eeb0e",
  "bytecode": "0x608060405234801561001057600080fd5b5061001a3361001f565b61006f565b600080546001600160a01b038381166001600160a01b0319831681178455604051919092169283917f8be0079c531659141344cd1fd0a4f28419497f9722a3daafe3b4186f6b6457e09190a35050565b6122748061007e6000396000f3fe608060405234801561001057600080fd5b50600436106101825760003560e01c8063715018a6116100d8578063b6a5d7de1161008c578063f2fde38b11610066578063f2fde38b14610322578063f5619fda14610335578063fe9fbb801461035057600080fd5b8063b6a5d7de146102e8578063b70e6be6146102fb578063eb8695ef1461030f57600080fd5b80637ca5b1dd116100bd5780637ca5b1dd146102a65780638da5cb5b146102b957806395410d2b146102d457600080fd5b8063715018a61461026a578063766718081461027257600080fd5b806327c97fa51161013a5780634ca49f51116101145780634ca49f5114610220578063620414e6146102335780636defbf801461024657600080fd5b806327c97fa5146101fa5780632b97be241461020d5780633a1b77b01461021557600080fd5b8063113764be1161016b578063113764be146101ca578063189179a3146101d257806319c9aa32146101e557600080fd5b806306a274221461018757806310b76ed8146101ad575b600080fd5b61019a610195366004611e14565b610373565b6040519081526020015b60405180910390f35b6101b561038a565b604080519283526020830191909152016101a4565b60025461019a565b6101b56101e0366004611e43565b6103ea565b6101f86101f3366004611f11565b6107e2565b005b6101f8610208366004611f2c565b610a27565b60035461019a565b6002546003546101b5565b6101f861022e366004611f55565b610ad2565b61019a610241366004611e14565b610eed565b60005461025a90600160a01b900460ff1681565b60405190151581526020016101a4565b6101f8610ffd565b60015461028d90600160401b900467ffffffffffffffff1681565b60405167ffffffffffffffff90911681526020016101a4565b6101f86102b4366004611e43565b611063565b6000546040516001600160a01b0390911681526020016101a4565b60005461025a90600160a81b900460ff1681565b6101f86102f6366004611f2c565b611601565b60015461028d9067ffffffffffffffff1681565b6101f861031d366004611fde565b6116af565b6101f8610330366004611f2c565b611771565b60005461028d90600160b01b900467ffffffffffffffff1681565b61025a61035e366004611f2c565b60056020526000908152604090205460ff1681565b60006103846102416107e08461202c565b92915050565b60015460009081906103a89067ffffffffffffffff166107e0612040565b60015467ffffffffffffffff91821693506103ce91600160401b909104166107e0612040565b6103da906107df61206c565b67ffffffffffffffff1690509091565b600080605083516103fb9190612094565b1561044d5760405162461bcd60e51b815260206004820152601560248201527f496e76616c696420686561646572206c656e677468000000000000000000000060448201526064015b60405180910390fd5b6050835161045b919061202c565b905060018111801561046e57506107e081105b6104ba5760405162461bcd60e51b815260206004820152601960248201527f496e76616c6964206e756d626572206f662068656164657273000000000000006044820152606401610444565b6104c383611853565b63ffffffff1691506000806104d9858280611887565b6040805180820182526000808252602080830182905260015467ffffffffffffffff600160401b90910416808352600482529184902084518086019095525463ffffffff8116855264010000000090046001600160e01b031690840152939550919350909190825b815163ffffffff1688101561059f5761055b6001846120a8565b60008181526004602090815260409182902082518084019093525463ffffffff8116835264010000000090046001600160e01b031690820152909350919050610541565b815163ffffffff166106195760405162461bcd60e51b815260206004820152602b60248201527f43616e6e6f742076616c696461746520636861696e73206265666f726520726560448201527f6c61792067656e657369730000000000000000000000000000000000000000006064820152608401610444565b81602001516001600160e01b031685146106e35780602001516001600160e01b03168503610649579050826106e3565b6106546001846120a8565b60008181526004602090815260409182902082518084019093525463ffffffff8116835264010000000090046001600160e01b031690820181905291945092915085146106e35760405162461bcd60e51b815260206004820152601e60248201527f496e76616c69642074617267657420696e2068656164657220636861696e00006044820152606401610444565b60015b878110156107d65760006107058b6106ff8460506120bb565b8a611887565b60208601519098509091506001600160e01b031687146107c257600061073661072f8460506120bb565b8d9061195f565b845163ffffffff9182169250161580159061075d575083602001516001600160e01b031688145b801561076f5750835163ffffffff1681145b6107bb5760405162461bcd60e51b815260206004820152601e60248201527f496e76616c69642074617267657420696e2068656164657220636861696e00006044820152606401610444565b5091925084915b9650806107ce816120d2565b9150506106e6565b50505050505050915091565b600054600160a01b900460ff1661083b5760405162461bcd60e51b815260206004820152601a60248201527f52656c6179206973206e6f7420726561647920666f72207573650000000000006044820152606401610444565b6000546001600160a01b031633146108955760405162461bcd60e51b815260206004820181905260248201527f4f776e61626c653a2063616c6c6572206973206e6f7420746865206f776e65726044820152606401610444565b6107e08167ffffffffffffffff16106108f05760405162461bcd60e51b815260206004820152601660248201527f50726f6f66206c656e67746820657863657373697665000000000000000000006044820152606401610444565b60008167ffffffffffffffff161161094a5760405162461bcd60e51b815260206004820152601c60248201527f50726f6f66206c656e677468206d6179206e6f74206265207a65726f000000006044820152606401610444565b60005467ffffffffffffffff600160b01b9091048116908216036109b05760405162461bcd60e51b815260206004820152601660248201527f50726f6f66206c656e67746820756e6368616e676564000000000000000000006044820152606401610444565b600080547fffff0000000000000000ffffffffffffffffffffffffffffffffffffffffffff16600160b01b67ffffffffffffffff8416908102919091179091556040519081527f3e9f904d8cf11753c79b67c8259c582056d4a7d8af120f81257a59eeb8824b96906020015b60405180910390a150565b6000546001600160a01b03163314610a815760405162461bcd60e51b815260206004820181905260248201527f4f776e61626c653a2063616c6c6572206973206e6f7420746865206f776e65726044820152606401610444565b6001600160a01b038116600081815260056020908152604091829020805460ff1916905590519182527f7498b96beeabea5ad3139f1a2861a03e480034254e36b10aae2e6e42ad7b4b689101610a1c565b6000546001600160a01b03163314610b2c5760405162461bcd60e51b815260206004820181905260248201527f4f776e61626c653a2063616c6c6572206973206e6f7420746865206f776e65726044820152606401610444565b600054600160a01b900460ff1615610b865760405162461bcd60e51b815260206004820152601960248201527f47656e6573697320616c726561647920706572666f726d6564000000000000006044820152606401610444565b60508314610bd65760405162461bcd60e51b815260206004820152601d60248201527f496e76616c69642067656e6573697320686561646572206c656e6774680000006044820152606401610444565b610be26107e083612094565b15610c555760405162461bcd60e51b815260206004820152602560248201527f496e76616c696420686569676874206f662072656c61792067656e657369732060448201527f626c6f636b0000000000000000000000000000000000000000000000000000006064820152608401610444565b6107e08167ffffffffffffffff1610610cb05760405162461bcd60e51b815260206004820152601660248201527f50726f6f66206c656e67746820657863657373697665000000000000000000006044820152606401610444565b60008167ffffffffffffffff1611610d0a5760405162461bcd60e51b815260206004820152601c60248201527f50726f6f66206c656e677468206d6179206e6f74206265207a65726f000000006044820152606401610444565b610d166107e08361202c565b600180547fffffffffffffffffffffffffffffffff000000000000000000000000000000001667ffffffffffffffff92909216918217600160401b92909202919091179055604080516020601f8601819004810282018101909252848152600091610d9c9190879087908190840183828082843760009201919091525061198092505050565b90506000610ddf86868080601f01602080910402602001604051908101604052809392919081815260200183838082843760009201919091525061185392505050565b60408051808201825263ffffffff9283168082526001600160e01b03808716602080850191825260015467ffffffffffffffff9081166000908152600490925295812094519151909216640100000000029516949094179091558254918616600160b01b027fffff0000000000000000ffffffffffffffffffffffffffffffffffffffffffff909216919091179091559050610e7a8261198d565b600255600080547fffffffffffffffffffffff00ffffffffffffffffffffffffffffffffffffffff16600160a01b1790556040517f2381d16925551c2fb1a5edfcf4fce2f6d085e1f85f4b88340c09c9d191f9d4e990610edd9086815260200190565b60405180910390a1505050505050565b60015460009067ffffffffffffffff16821015610f4c5760405162461bcd60e51b815260206004820152601d60248201527f45706f6368206973206265666f72652072656c61792067656e657369730000006044820152606401610444565b600154600160401b900467ffffffffffffffff16821115610fd45760405162461bcd60e51b8152602060048201526024808201527f45706f6368206973206e6f742070726f76656e20746f207468652072656c617960448201527f20796574000000000000000000000000000000000000000000000000000000006064820152608401610444565b6000828152600460205260409020546103849064010000000090046001600160e01b031661198d565b6000546001600160a01b031633146110575760405162461bcd60e51b815260206004820181905260248201527f4f776e61626c653a2063616c6c6572206973206e6f7420746865206f776e65726044820152606401610444565b61106160006119b5565b565b600054600160a01b900460ff166110bc5760405162461bcd60e51b815260206004820152601a60248201527f52656c6179206973206e6f7420726561647920666f72207573650000000000006044820152606401610444565b600054600160a81b900460ff161561112d573360009081526005602052604090205460ff1661112d5760405162461bcd60e51b815260206004820152601660248201527f5375626d697474657220756e617574686f72697a6564000000000000000000006044820152606401610444565b60005461114c90600160b01b900467ffffffffffffffff166002612040565b611157906050612040565b67ffffffffffffffff168151146111b05760405162461bcd60e51b815260206004820152601560248201527f496e76616c696420686561646572206c656e67746800000000000000000000006044820152606401610444565b600154600160401b900467ffffffffffffffff166000908152600460205260408120805490916401000000009091046001600160e01b031690805b600054600160b01b900467ffffffffffffffff168110156112ac5760008061121e876112188560506120bb565b86611887565b915091508481146112975760405162461bcd60e51b815260206004820152602660248201527f496e76616c69642074617267657420696e207072652d7265746172676574206860448201527f65616465727300000000000000000000000000000000000000000000000000006064820152608401610444565b509150806112a4816120d2565b9150506111eb565b50600080546112ee906112d290600190600160b01b900467ffffffffffffffff166120eb565b6112dd906050612040565b869067ffffffffffffffff1661195f565b63ffffffff1690504281106113455760405162461bcd60e51b815260206004820152601e60248201527f45706f63682063616e6e6f7420656e6420696e207468652066757475726500006044820152606401610444565b835460009061135c90859063ffffffff1684611a1d565b9050600080611398600060169054906101000a900467ffffffffffffffff1660506113879190612040565b899067ffffffffffffffff1661195f565b60005463ffffffff919091169150600160b01b900467ffffffffffffffff165b6000546113d790600160b01b900467ffffffffffffffff166002612040565b67ffffffffffffffff168110156114e9576000806113fa8b6106ff8560506120bb565b915091508460000361145f57809450808616811461145a5760405162461bcd60e51b815260206004820152601b60248201527f496e76616c69642074617267657420696e206e65772065706f636800000000006044820152606401610444565b6114d4565b8481146114d45760405162461bcd60e51b815260206004820152602760248201527f556e657870656374656420746172676574206368616e6765206166746572207260448201527f65746172676574000000000000000000000000000000000000000000000000006064820152608401610444565b509550806114e1816120d2565b9150506113b8565b50600160089054906101000a900467ffffffffffffffff16600161150d919061206c565b6001805467ffffffffffffffff928316600160401b9081027fffffffffffffffffffffffffffffffff0000000000000000ffffffffffffffff909216919091179182905560408051808201825263ffffffff80871682526001600160e01b03808916602080850191825295909604909616600090815260049094529183209051935190941664010000000002921691909117909155600254906115af8461198d565b6003839055600281905560408051848152602081018390529192507fa282ee798b132f9dc11e06cd4d8e767e562be8709602ca14fea7ab3392acbdab910160405180910390a150505050505050505050565b6000546001600160a01b0316331461165b5760405162461bcd60e51b815260206004820181905260248201527f4f776e61626c653a2063616c6c6572206973206e6f7420746865206f776e65726044820152606401610444565b6001600160a01b038116600081815260056020908152604091829020805460ff1916600117905590519182527fd53649b492f738bb59d6825099b5955073efda0bf9e3a7ad20da22e110122e299101610a1c565b6000546001600160a01b031633146117095760405162461bcd60e51b815260206004820181905260248201527f4f776e61626c653a2063616c6c6572206973206e6f7420746865206f776e65726044820152606401610444565b60008054821515600160a81b027fffffffffffffffffffff00ffffffffffffffffffffffffffffffffffffffffff9091161790556040517fd813b248d49c8bf08be2b6947126da6763df310beed7bea97756456c5727419a90610a1c90831515815260200190565b6000546001600160a01b031633146117cb5760405162461bcd60e51b815260206004820181905260248201527f4f776e61626c653a2063616c6c6572206973206e6f7420746865206f776e65726044820152606401610444565b6001600160a01b0381166118475760405162461bcd60e51b815260206004820152602660248201527f4f776e61626c653a206e6577206f776e657220697320746865207a65726f206160448201527f64647265737300000000000000000000000000000000000000000000000000006064820152608401610444565b611850816119b5565b50565b600061038461186183611ab1565b60d881901c63ff00ff001662ff00ff60e89290921c9190911617601081811b91901c1790565b60008082156118e75761189b858585611abe565b6118e75760405162461bcd60e51b815260206004820152600d60248201527f496e76616c696420636861696e000000000000000000000000000000000000006044820152606401610444565b6118f18585611ae9565b90506118ff85856050611b8b565b915061190b8282611bb5565b6119575760405162461bcd60e51b815260206004820152600c60248201527f496e76616c696420776f726b00000000000000000000000000000000000000006044820152606401610444565b935093915050565b600061197961186161197284604461210c565b8590611d0e565b9392505050565b6000610384826000611ae9565b60006103847bffff000000000000000000000000000000000000000000000000000083611d1d565b600080546001600160a01b038381167fffffffffffffffffffffffff0000000000000000000000000000000000000000831681178455604051919092169283917f8be0079c531659141344cd1fd0a4f28419497f9722a3daafe3b4186f6b6457e09190a35050565b600080611a2a8385611d29565b9050611a3a621275006004611d1d565b811015611a5257611a4f621275006004611d1d565b90505b611a60621275006004611d85565b811115611a7857611a75621275006004611d85565b90505b6000611a9182611a8b8862010000611d1d565b90611d85565b9050611aa762010000611a8b8362127500611d1d565b9695505050505050565b6000610384826044611d0e565b600080611acb8585611dfb565b9050828114611ade576000915050611979565b506001949350505050565b600080611afa61197284604861210c565b60e81c9050600084611b0d85604b61210c565b81518110611b1d57611b1d61211f565b016020015160f81c90506000611b5183600060108262ffffff16901c8261ff001660108462ffffff16901b17179050919050565b62ffffff1690506000611b65600384612135565b60ff169050611b7681610100612232565b611b8090836120bb565b979650505050505050565b6000602060008385602001870160025afa50602060006020600060025afa50506000519392505050565b600082611bc457506000610384565b81611d068460008190506008817eff00ff00ff00ff00ff00ff00ff00ff00ff00ff00ff00ff00ff00ff00ff00ff16901b600882901c7eff00ff00ff00ff00ff00ff00ff00ff00ff00ff00ff00ff00ff00ff00ff00ff161790506010817dffff0000ffff0000ffff0000ffff0000ffff0000ffff0000ffff0000ffff16901b601082901c7dffff0000ffff0000ffff0000ffff0000ffff0000ffff0000ffff0000ffff161790506020817bffffffff00000000ffffffff00000000ffffffff00000000ffffffff16901b602082901c7bffffffff00000000ffffffff00000000ffffffff00000000ffffffff1617905060408177ffffffffffffffff0000000000000000ffffffffffffffff16901b604082901c77ffffffffffffffff0000000000000000ffffffffffffffff16179050608081901b608082901c179050919050565b109392505050565b60006119798383016020015190565b6000611979828461202c565b600082821115611d7b5760405162461bcd60e51b815260206004820152601d60248201527f556e646572666c6f7720647572696e67207375627472616374696f6e2e0000006044820152606401610444565b61197982846120a8565b600082600003611d9757506000610384565b611da182846120bb565b905081611dae848361202c565b146103845760405162461bcd60e51b815260206004820152601f60248201527f4f766572666c6f7720647572696e67206d756c7469706c69636174696f6e2e006044820152606401610444565b6000611979611e0b83600461210c565b84016020015190565b600060208284031215611e2657600080fd5b5035919050565b634e487b7160e01b600052604160045260246000fd5b600060208284031215611e5557600080fd5b813567ffffffffffffffff80821115611e6d57600080fd5b818401915084601f830112611e8157600080fd5b813581811115611e9357611e93611e2d565b604051601f8201601f19908116603f01168101908382118183101715611ebb57611ebb611e2d565b81604052828152876020848701011115611ed457600080fd5b826020860160208301376000928101602001929092525095945050505050565b803567ffffffffffffffff81168114611f0c57600080fd5b919050565b600060208284031215611f2357600080fd5b61197982611ef4565b600060208284031215611f3e57600080fd5b81356001600160a01b038116811461197957600080fd5b60008060008060608587031215611f6b57600080fd5b843567ffffffffffffffff80821115611f8357600080fd5b818701915087601f830112611f9757600080fd5b813581811115611fa657600080fd5b886020828501011115611fb857600080fd5b602092830196509450508501359150611fd360408601611ef4565b905092959194509250565b600060208284031215611ff057600080fd5b8135801515811461197957600080fd5b634e487b7160e01b600052601260045260246000fd5b634e487b7160e01b600052601160045260246000fd5b60008261203b5761203b612000565b500490565b67ffffffffffffffff81811683821602808216919082811461206457612064612016565b505092915050565b67ffffffffffffffff81811683821601908082111561208d5761208d612016565b5092915050565b6000826120a3576120a3612000565b500690565b8181038181111561038457610384612016565b808202811582820484141761038457610384612016565b6000600182016120e4576120e4612016565b5060010190565b67ffffffffffffffff82811682821603908082111561208d5761208d612016565b8082018082111561038457610384612016565b634e487b7160e01b600052603260045260246000fd5b60ff828116828216039081111561038457610384612016565b600181815b8085111561218957816000190482111561216f5761216f612016565b8085161561217c57918102915b93841c9390800290612153565b509250929050565b6000826121a057506001610384565b816121ad57506000610384565b81600181146121c357600281146121cd576121e9565b6001915050610384565b60ff8411156121de576121de612016565b50506001821b610384565b5060208310610133831016604e8410600b841016171561220c575081810a610384565b612216838361214e565b806000190482111561222a5761222a612016565b029392505050565b6000611979838361219156fea264697066735822122018ceadb31a71f313826b2debd631f3528b052732b43f13559c05ff21b0f0819264736f6c63430008110033",
  "devdoc": {
    "details": "THE RELAY MUST NOT BE USED BEFORE GENESIS AND AT LEAST ONE RETARGET.",
    "kind": "dev",
    "methods": {
      "authorize(address)": {
        "params": {
          "submitter": "The address to be authorised."
        }
      },
      "deauthorize(address)": {
        "params": {
          "submitter": "The address to be deauthorised."
        }
      },
      "genesis(bytes,uint256,uint64)": {
        "details": "If the relay is used by querying the current and previous epoch difficulty, at least one retarget needs to be provided after genesis; otherwise the prevEpochDifficulty will be uninitialised and zero.",
        "params": {
          "genesisHeader": "The first block header of the genesis epoch.",
          "genesisHeight": "The block number of the first block of the epoch.",
          "genesisProofLength": "The number of blocks required to accept a proof."
        }
      },
      "getBlockDifficulty(uint256)": {
        "params": {
          "blockNumber": "The number of the block. Must fall within the relay range (at or after the relay genesis, and at or before the end of the most recent epoch proven to the relay)."
        },
        "returns": {
          "_0": "The difficulty of the epoch."
        }
      },
      "getCurrentEpochDifficulty()": {
        "details": "returns 0 if the relay is not ready.",
        "returns": {
          "_0": "The difficulty of the current epoch."
        }
      },
      "getEpochDifficulty(uint256)": {
        "params": {
          "epochNumber": "The number of the epoch (the height of the first block of the epoch, divided by 2016). Must fall within the relay range."
        },
        "returns": {
          "_0": "The difficulty of the epoch."
        }
      },
      "getPrevEpochDifficulty()": {
        "details": "Returns 0 if the relay is not ready or has not had a retarget.",
        "returns": {
          "_0": "The difficulty of the previous epoch."
        }
      },
      "getRelayRange()": {
        "details": "Assumes that the genesis has been set correctly. Additionally, if the next epoch after the current one has the exact same difficulty, headers for it can be validated as well. This function should be used for informative purposes, e.g. to determine whether a retarget must be provided before submitting a header chain for validation.",
        "returns": {
          "currentEpochEnd": "The height of the last block that can be included in header chains for the relay to validate.",
          "relayGenesis": "The height of the earliest block that can be included in header chains for the relay to validate."
        }
      },
      "owner()": {
        "details": "Returns the address of the current owner."
      },
      "renounceOwnership()": {
        "details": "Leaves the contract without owner. It will not be possible to call `onlyOwner` functions anymore. Can only be called by the current owner. NOTE: Renouncing ownership will leave the contract without an owner, thereby removing any functionality that is only available to the owner."
      },
      "retarget(bytes)": {
        "details": "Checks that the first X blocks are valid in the most recent epoch, that the difficulty of the new epoch is calculated correctly according to the block timestamps, and that the next X blocks would be valid in the new epoch. We have no information of block heights, so we cannot enforce that retargets only happen every 2016 blocks; instead, we assume that this is the case if a valid proof of work is provided. It is possible to cheat the relay by providing X blocks from earlier in the most recent epoch, and then mining X new blocks after them. However, each of these malicious blocks would have to be mined to a higher difficulty than the legitimate ones. Alternatively, if the retarget has not been performed yet, one could first mine X blocks in the old difficulty with timestamps set far in the future, and then another X blocks at a greatly reduced difficulty. In either case, cheating the realy requires more work than mining X legitimate blocks. Only the most recent epoch is vulnerable to these attacks; once a retarget has been proven to the relay, the epoch is immutable even if a contradictory proof were to be presented later.",
        "params": {
          "headers": "A chain of headers including the last X blocks before the retarget, followed by the first X blocks after the retarget, where X equals the current proof length."
        }
      },
      "setAuthorizationStatus(bool)": {
        "params": {
          "status": "True if authorisation is to be required, false if not."
        }
      },
      "setProofLength(uint64)": {
        "details": "For production, a high number (e.g. 20-50) is recommended. Small numbers are accepted but should only be used for testing.",
        "params": {
          "newLength": "The required number of blocks. Must be less than 2016."
        }
      },
      "transferOwnership(address)": {
        "details": "Transfers ownership of the contract to a new account (`newOwner`). Can only be called by the current owner."
      },
      "validateChain(bytes)": {
        "details": "A chain of headers is accepted as valid if: - Its length is between 2 and 2015 headers. - Headers in the chain are sequential and refer to previous digests. - Each header is mined with the correct amount of work. - The difficulty in each header matches an epoch of the relay,   as determined by the headers' timestamps. The headers must be between   the genesis epoch and the latest proven epoch (inclusive). If the chain contains a retarget, it is accepted if the retarget has already been proven to the relay. If the chain contains blocks of an epoch that has not been proven to the relay (after a retarget within the header chain, or when the entire chain falls within an epoch that has not been proven yet), it will be rejected. One exception to this is when two subsequent epochs have exactly the same difficulty; headers from the latter epoch will be accepted if the previous epoch has been proven to the relay. This is because it is not possible to distinguish such headers from headers of the previous epoch. If the difficulty increases significantly between relay genesis and the present, creating fraudulent proofs for earlier epochs becomes easier. Users of the relay should check the timestamps of valid headers and only accept appropriately recent ones.",
        "params": {
          "headers": "A chain of 2 to 2015 bitcoin headers."
        },
        "returns": {
          "headerCount": "The number of headers.",
          "startingHeaderTimestamp": "The timestamp of the first header."
        }
      }
    },
    "version": 1
  },
  "userdoc": {
    "kind": "user",
    "methods": {
      "authorize(address)": {
        "notice": "Authorise the given address to submit retarget proofs."
      },
      "deauthorize(address)": {
        "notice": "Rescind the authorisation of the submitter to retarget."
      },
      "genesis(bytes,uint256,uint64)": {
        "notice": "Establish a starting point for the relay by providing the target, timestamp and blockheight of the first block of the relay genesis epoch."
      },
      "getBlockDifficulty(uint256)": {
        "notice": "Get the difficulty of the specified block."
      },
      "getCurrentEpochDifficulty()": {
        "notice": "Returns the difficulty of the current epoch."
      },
      "getEpochDifficulty(uint256)": {
        "notice": "Get the difficulty of the specified epoch."
      },
      "getPrevEpochDifficulty()": {
        "notice": "Returns the difficulty of the previous epoch."
      },
      "getRelayRange()": {
        "notice": "Get the range of blocks the relay can accept proofs for."
      },
      "retarget(bytes)": {
        "notice": "Add a new epoch to the relay by providing a proof of the difficulty before and after the retarget."
      },
      "setAuthorizationStatus(bool)": {
        "notice": "Set whether the relay requires retarget submitters to be pre-authorised by governance."
      },
      "setProofLength(uint64)": {
        "notice": "Set the number of blocks required to accept a header chain."
      },
      "validateChain(bytes)": {
        "notice": "Check whether a given chain of headers should be accepted as valid within the rules of the relay. If the validation fails, this function throws an exception."
      }
    },
    "version": 1
  },
  "storageLayout": {
    "storage": [
      {
        "astId": 13253,
        "contract": "contracts/relay/LightRelay.sol:LightRelay",
        "label": "_owner",
        "offset": 0,
        "slot": "0",
        "type": "t_address"
      },
      {
        "astId": 31397,
        "contract": "contracts/relay/LightRelay.sol:LightRelay",
        "label": "ready",
        "offset": 20,
        "slot": "0",
        "type": "t_bool"
      },
      {
        "astId": 31399,
        "contract": "contracts/relay/LightRelay.sol:LightRelay",
        "label": "authorizationRequired",
        "offset": 21,
        "slot": "0",
        "type": "t_bool"
      },
      {
        "astId": 31401,
        "contract": "contracts/relay/LightRelay.sol:LightRelay",
        "label": "proofLength",
        "offset": 22,
        "slot": "0",
        "type": "t_uint64"
      },
      {
        "astId": 31403,
        "contract": "contracts/relay/LightRelay.sol:LightRelay",
        "label": "genesisEpoch",
        "offset": 0,
        "slot": "1",
        "type": "t_uint64"
      },
      {
        "astId": 31405,
        "contract": "contracts/relay/LightRelay.sol:LightRelay",
        "label": "currentEpoch",
        "offset": 8,
        "slot": "1",
        "type": "t_uint64"
      },
      {
        "astId": 31407,
        "contract": "contracts/relay/LightRelay.sol:LightRelay",
        "label": "currentEpochDifficulty",
        "offset": 0,
        "slot": "2",
        "type": "t_uint256"
      },
      {
        "astId": 31409,
        "contract": "contracts/relay/LightRelay.sol:LightRelay",
        "label": "prevEpochDifficulty",
        "offset": 0,
        "slot": "3",
        "type": "t_uint256"
      },
      {
        "astId": 31414,
        "contract": "contracts/relay/LightRelay.sol:LightRelay",
        "label": "epochs",
        "offset": 0,
        "slot": "4",
        "type": "t_mapping(t_uint256,t_struct(Epoch)31286_storage)"
      },
      {
        "astId": 31418,
        "contract": "contracts/relay/LightRelay.sol:LightRelay",
        "label": "isAuthorized",
        "offset": 0,
        "slot": "5",
        "type": "t_mapping(t_address,t_bool)"
      }
    ],
    "types": {
      "t_address": {
        "encoding": "inplace",
        "label": "address",
        "numberOfBytes": "20"
      },
      "t_bool": {
        "encoding": "inplace",
        "label": "bool",
        "numberOfBytes": "1"
      },
      "t_mapping(t_address,t_bool)": {
        "encoding": "mapping",
        "key": "t_address",
        "label": "mapping(address => bool)",
        "numberOfBytes": "32",
        "value": "t_bool"
      },
      "t_mapping(t_uint256,t_struct(Epoch)31286_storage)": {
        "encoding": "mapping",
        "key": "t_uint256",
        "label": "mapping(uint256 => struct Epoch)",
        "numberOfBytes": "32",
        "value": "t_struct(Epoch)31286_storage"
      },
      "t_struct(Epoch)31286_storage": {
        "encoding": "inplace",
        "label": "struct Epoch",
        "members": [
          {
            "astId": 31283,
            "contract": "contracts/relay/LightRelay.sol:LightRelay",
            "label": "timestamp",
            "offset": 0,
            "slot": "0",
            "type": "t_uint32"
          },
          {
            "astId": 31285,
            "contract": "contracts/relay/LightRelay.sol:LightRelay",
            "label": "target",
            "offset": 4,
            "slot": "0",
            "type": "t_uint224"
          }
        ],
        "numberOfBytes": "32"
      },
      "t_uint224": {
        "encoding": "inplace",
        "label": "uint224",
        "numberOfBytes": "28"
      },
      "t_uint256": {
        "encoding": "inplace",
        "label": "uint256",
        "numberOfBytes": "32"
      },
      "t_uint32": {
        "encoding": "inplace",
        "label": "uint32",
        "numberOfBytes": "4"
      },
      "t_uint64": {
        "encoding": "inplace",
        "label": "uint64",
        "numberOfBytes": "8"
      }
    }
  }
}