{
  "address": "0x4ca2f6206Da1A7Cb8155FEA68797EFDf25EFa3C8",
  "abi": [
    {
      "inputs": [
        {
          "internalType": "contract ILightRelay",
          "name": "_lightRelay",
          "type": "address"
        },
        {
          "internalType": "contract ReimbursementPool",
          "name": "_reimbursementPool",
          "type": "address"
        }
      ],
      "stateMutability": "nonpayable",
      "type": "constructor"
    },
    {
      "anonymous": false,
      "inputs": [
        {
          "indexed": false,
          "internalType": "address",
          "name": "newRelay",
          "type": "address"
        }
      ],
      "name": "LightRelayUpdated",
      "type": "event"
    },
    {
      "anonymous": false,
      "inputs": [
        {
          "indexed": true,
          "internalType": "address",
          "name": "maintainer",
          "type": "address"
        }
      ],
      "name": "MaintainerAuthorized",
      "type": "event"
    },
    {
      "anonymous": false,
      "inputs": [
        {
          "indexed": true,
          "internalType": "address",
          "name": "maintainer",
          "type": "address"
        }
      ],
      "name": "MaintainerDeauthorized",
      "type": "event"
    },
    {
      "anonymous": false,
      "inputs": [
        {
          "indexed": true,
          "internalType": "address",
          "name": "previousOwner",
          "type": "address"
        },
        {
          "indexed": true,
          "internalType": "address",
          "name": "newOwner",
          "type": "address"
        }
      ],
      "name": "OwnershipTransferred",
      "type": "event"
    },
    {
      "anonymous": false,
      "inputs": [
        {
          "indexed": false,
          "internalType": "address",
          "name": "newReimbursementPool",
          "type": "address"
        }
      ],
      "name": "ReimbursementPoolUpdated",
      "type": "event"
    },
    {
      "anonymous": false,
      "inputs": [
        {
          "indexed": false,
          "internalType": "uint256",
          "name": "retargetGasOffset",
          "type": "uint256"
        }
      ],
      "name": "RetargetGasOffsetUpdated",
      "type": "event"
    },
    {
      "inputs": [
        {
          "internalType": "address",
          "name": "maintainer",
          "type": "address"
        }
      ],
      "name": "authorize",
      "outputs": [],
      "stateMutability": "nonpayable",
      "type": "function"
    },
    {
      "inputs": [
        {
          "internalType": "address",
          "name": "maintainer",
          "type": "address"
        }
      ],
      "name": "deauthorize",
      "outputs": [],
      "stateMutability": "nonpayable",
      "type": "function"
    },
    {
      "inputs": [
        {
          "internalType": "address",
          "name": "",
          "type": "address"
        }
      ],
      "name": "isAuthorized",
      "outputs": [
        {
          "internalType": "bool",
          "name": "",
          "type": "bool"
        }
      ],
      "stateMutability": "view",
      "type": "function"
    },
    {
      "inputs": [],
      "name": "lightRelay",
      "outputs": [
        {
          "internalType": "contract ILightRelay",
          "name": "",
          "type": "address"
        }
      ],
      "stateMutability": "view",
      "type": "function"
    },
    {
      "inputs": [],
      "name": "owner",
      "outputs": [
        {
          "internalType": "address",
          "name": "",
          "type": "address"
        }
      ],
      "stateMutability": "view",
      "type": "function"
    },
    {
      "inputs": [],
      "name": "reimbursementPool",
      "outputs": [
        {
          "internalType": "contract ReimbursementPool",
          "name": "",
          "type": "address"
        }
      ],
      "stateMutability": "view",
      "type": "function"
    },
    {
      "inputs": [],
      "name": "renounceOwnership",
      "outputs": [],
      "stateMutability": "nonpayable",
      "type": "function"
    },
    {
      "inputs": [
        {
          "internalType": "bytes",
          "name": "headers",
          "type": "bytes"
        }
      ],
      "name": "retarget",
      "outputs": [],
      "stateMutability": "nonpayable",
      "type": "function"
    },
    {
      "inputs": [],
      "name": "retargetGasOffset",
      "outputs": [
        {
          "internalType": "uint256",
          "name": "",
          "type": "uint256"
        }
      ],
      "stateMutability": "view",
      "type": "function"
    },
    {
      "inputs": [
        {
          "internalType": "address",
          "name": "newOwner",
          "type": "address"
        }
      ],
      "name": "transferOwnership",
      "outputs": [],
      "stateMutability": "nonpayable",
      "type": "function"
    },
    {
      "inputs": [
        {
          "internalType": "contract ILightRelay",
          "name": "_lightRelay",
          "type": "address"
        }
      ],
      "name": "updateLightRelay",
      "outputs": [],
      "stateMutability": "nonpayable",
      "type": "function"
    },
    {
      "inputs": [
        {
          "internalType": "contract ReimbursementPool",
          "name": "_reimbursementPool",
          "type": "address"
        }
      ],
      "name": "updateReimbursementPool",
      "outputs": [],
      "stateMutability": "nonpayable",
      "type": "function"
    },
    {
      "inputs": [
        {
          "internalType": "uint256",
          "name": "newRetargetGasOffset",
          "type": "uint256"
        }
      ],
      "name": "updateRetargetGasOffset",
      "outputs": [],
      "stateMutability": "nonpayable",
      "type": "function"
    }
  ],
  "transactionHash": "0xcd5b1a450600bced35f90ad711a5d1002b5f5e4c4402b5c97396658ad22a3458",
  "args": [
    "0x836cdFE63fe2d63f8Bdb69b96f6097F36635896E",
    "0x8adF3f35dBE4026112bCFc078872bcb967732Ea8"
  ],
  "numDeployments": 1,
  "solcInputHash": "d71d4b4434e6669852eaf643ebd2a7bc",
  "bytecode": "0x608060405234801561001057600080fd5b50604051610c2c380380610c2c83398101604081905261002f916101a8565b61003833610140565b6001600160a01b03821661009f5760405162461bcd60e51b8152602060048201526024808201527f4c696768742072656c6179206d757374206e6f74206265207a65726f206164646044820152637265737360e01b60648201526084015b60405180910390fd5b6001600160a01b0381166101095760405162461bcd60e51b815260206004820152602b60248201527f5265696d62757273656d656e7420706f6f6c206d757374206e6f74206265207a60448201526a65726f206164647265737360a81b6064820152608401610096565b603380546001600160a01b039384166001600160a01b0319918216179091556001805492909316911617905561d2f06035556101e2565b600080546001600160a01b038381166001600160a01b0319831681178455604051919092169283917f8be0079c531659141344cd1fd0a4f28419497f9722a3daafe3b4186f6b6457e09190a35050565b6001600160a01b03811681146101a557600080fd5b50565b600080604083850312156101bb57600080fd5b82516101c681610190565b60208401519092506101d781610190565b809150509250929050565b610a3b806101f16000396000f3fe608060405234801561001057600080fd5b50600436106100df5760003560e01c80638da5cb5b1161008c578063b6a5d7de11610066578063b6a5d7de146101a5578063c09975cd146101b8578063f2fde38b146101cb578063fe9fbb80146101de57600080fd5b80638da5cb5b1461016e5780639d5f29df1461017f578063b214b4981461019257600080fd5b80637b35b4e6116100bd5780637b35b4e61461011d5780637ca5b1dd1461013057806384dc44091461014357600080fd5b806327c97fa5146100e4578063293aa4a2146100f9578063715018a614610115575b600080fd5b6100f76100f2366004610871565b610211565b005b61010260355481565b6040519081526020015b60405180910390f35b6100f76102cf565b6100f761012b366004610871565b6102e3565b6100f761013e3660046108ab565b6103b7565b603354610156906001600160a01b031681565b6040516001600160a01b03909116815260200161010c565b6000546001600160a01b0316610156565b6100f761018d366004610871565b610535565b6100f76101a036600461095c565b61061b565b6100f76101b3366004610871565b610658565b600154610156906001600160a01b031681565b6100f76101d9366004610871565b610715565b6102016101ec366004610871565b60346020526000908152604090205460ff1681565b604051901515815260200161010c565b6102196107a5565b6001600160a01b03811660009081526034602052604090205460ff166102865760405162461bcd60e51b815260206004820152601c60248201527f4d61696e7461696e6572206973206e6f7420617574686f72697a65640000000060448201526064015b60405180910390fd5b6001600160a01b038116600081815260346020526040808220805460ff19169055517fc74b7e7972a420ccf708a44401a97c1bcaacb21a25a1e0f83ee40841654b2ec89190a250565b6102d76107a5565b6102e160006107ff565b565b336102f66000546001600160a01b031690565b6001600160a01b03161461034c5760405162461bcd60e51b815260206004820152601760248201527f43616c6c6572206973206e6f7420746865206f776e6572000000000000000000604482015260640161027d565b6040516001600160a01b03821681527f0e2d2343d31b085b7c4e56d1c8a6ec79f7ab07460386f1c9a1756239fe2533ac9060200160405180910390a16001805473ffffffffffffffffffffffffffffffffffffffff19166001600160a01b0392909216919091179055565b3360009081526034602052604090205460ff166104165760405162461bcd60e51b815260206004820152601860248201527f43616c6c6572206973206e6f7420617574686f72697a65640000000000000000604482015260640161027d565b60005a6033546040517f7ca5b1dd0000000000000000000000000000000000000000000000000000000081529192506001600160a01b031690637ca5b1dd90610463908590600401610975565b600060405180830381600087803b15801561047d57600080fd5b505af1158015610491573d6000803e3d6000fd5b50506001546035546001600160a01b039091169250637ad226dc91505a6104b890856109d9565b6104c291906109f2565b6040517fffffffff0000000000000000000000000000000000000000000000000000000060e084901b1681526004810191909152336024820152604401600060405180830381600087803b15801561051957600080fd5b505af115801561052d573d6000803e3d6000fd5b505050505050565b61053d6107a5565b6001600160a01b0381166105b95760405162461bcd60e51b815260206004820152602860248201527f4e6577206c696768742072656c6179206d757374206e6f74206265207a65726f60448201527f2061646472657373000000000000000000000000000000000000000000000000606482015260840161027d565b6033805473ffffffffffffffffffffffffffffffffffffffff19166001600160a01b0383169081179091556040519081527fa46f2602ab8b56454b3c3f2ac8bbad3a47d901cc73f0d800b2d607eb68743428906020015b60405180910390a150565b6106236107a5565b60358190556040518181527f47498a8064df4e0fae8efc492d7ce3222dc1dc415d1e1ff688a327ff101940fd90602001610610565b6106606107a5565b6001600160a01b03811660009081526034602052604090205460ff16156106c95760405162461bcd60e51b815260206004820181905260248201527f4d61696e7461696e657220697320616c726561647920617574686f72697a6564604482015260640161027d565b6001600160a01b038116600081815260346020526040808220805460ff19166001179055517fd47aed730622d4816ba8c667c5644d30d0042568ce573955dfa5cafd60ecba4b9190a250565b61071d6107a5565b6001600160a01b0381166107995760405162461bcd60e51b815260206004820152602660248201527f4f776e61626c653a206e6577206f776e657220697320746865207a65726f206160448201527f6464726573730000000000000000000000000000000000000000000000000000606482015260840161027d565b6107a2816107ff565b50565b6000546001600160a01b031633146102e15760405162461bcd60e51b815260206004820181905260248201527f4f776e61626c653a2063616c6c6572206973206e6f7420746865206f776e6572604482015260640161027d565b600080546001600160a01b0383811673ffffffffffffffffffffffffffffffffffffffff19831681178455604051919092169283917f8be0079c531659141344cd1fd0a4f28419497f9722a3daafe3b4186f6b6457e09190a35050565b6001600160a01b03811681146107a257600080fd5b60006020828403121561088357600080fd5b813561088e8161085c565b9392505050565b634e487b7160e01b600052604160045260246000fd5b6000602082840312156108bd57600080fd5b813567ffffffffffffffff808211156108d557600080fd5b818401915084601f8301126108e957600080fd5b8135818111156108fb576108fb610895565b604051601f8201601f19908116603f0116810190838211818310171561092357610923610895565b8160405282815287602084870101111561093c57600080fd5b826020860160208301376000928101602001929092525095945050505050565b60006020828403121561096e57600080fd5b5035919050565b600060208083528351808285015260005b818110156109a257858101830151858201604001528201610986565b506000604082860101526040601f19601f8301168501019250505092915050565b634e487b7160e01b600052601160045260246000fd5b818103818111156109ec576109ec6109c3565b92915050565b808201808211156109ec576109ec6109c356fea26469706673582212204c1db717ea81f3512cc4bba5e616ce0d380223671e65b946c7b271b3c789ec1064736f6c63430008110033",
  "devdoc": {
    "kind": "dev",
    "methods": {
      "authorize(address)": {
        "details": "The function does not implement any governance delay.",
        "params": {
          "maintainer": "The address of the maintainer to be authorized."
        }
      },
      "deauthorize(address)": {
        "details": "The function does not implement any governance delay.",
        "params": {
          "maintainer": "The address of the maintainer to be deauthorized."
        }
      },
      "owner()": {
        "details": "Returns the address of the current owner."
      },
      "renounceOwnership()": {
        "details": "Leaves the contract without owner. It will not be possible to call `onlyOwner` functions anymore. Can only be called by the current owner. NOTE: Renouncing ownership will leave the contract without an owner, thereby removing any functionality that is only available to the owner."
      },
      "retarget(bytes)": {
        "details": "See `LightRelay.retarget` function documentation."
      },
      "transferOwnership(address)": {
        "details": "Transfers ownership of the contract to a new account (`newOwner`). Can only be called by the current owner."
      },
      "updateLightRelay(address)": {
        "details": "The function does not implement any governance delay and does not      check the status of the `LightRelay`. The Governance implementation      needs to ensure all requirements for the upgrade are satisfied      before executing this function."
      },
      "updateRetargetGasOffset(uint256)": {
        "details": "Can be called only by the contract owner. The caller is responsible      for validating the parameter. The function does not implement any      governance delay.",
        "params": {
          "newRetargetGasOffset": "New retarget gas offset."
        }
      }
    },
    "stateVariables": {
      "isAuthorized": {
        "details": "The goal is to prevent a griefing attack by frontrunning relay      maintainer which is responsible for retargetting the relay in the      given round. The maintainer's transaction would revert with no gas      refund. Having the ability to restrict maintainer addresses is also      important in case the underlying relay contract has authorization      requirements for callers."
      }
    },
    "title": "LightRelayMaintainerProxy",
    "version": 1
  },
  "userdoc": {
    "kind": "user",
    "methods": {
      "authorize(address)": {
        "notice": "Authorizes the given address as a maintainer. Can only be called         by the owner and the address of the maintainer must not be         already authorized."
      },
      "deauthorize(address)": {
        "notice": "Deauthorizes the given address as a maintainer. Can only be         called by the owner and the address of the maintainer must be         authorized."
      },
      "isAuthorized(address)": {
        "notice": "Stores the addresses that can maintain the relay. Those         addresses are attested by the DAO."
      },
      "retarget(bytes)": {
        "notice": "Wraps `LightRelay.retarget` call and reimburses the caller's         transaction cost. Can only be called by an authorized relay         maintainer."
      },
      "retargetGasOffset()": {
        "notice": "Gas that is meant to balance the retarget overall cost. Can be"
      },
      "updateLightRelay(address)": {
        "notice": "Allows the governance to upgrade the `LightRelay` address."
      },
      "updateRetargetGasOffset(uint256)": {
        "notice": "Updates the values of retarget gas offset."
      }
    },
    "notice": "The proxy contract that allows the relay maintainers to be refunded         for the spent gas from the `ReimbursementPool`. When proving the         next Bitcoin difficulty epoch, the maintainer calls the         `LightRelayMaintainerProxy` which in turn calls the actual `LightRelay`         contract.",
    "version": 1
  },
  "storageLayout": {
    "storage": [
      {
        "astId": 12076,
        "contract": "contracts/relay/LightRelayMaintainerProxy.sol:LightRelayMaintainerProxy",
        "label": "_owner",
        "offset": 0,
        "slot": "0",
        "type": "t_address"
      },
      {
        "astId": 5151,
        "contract": "contracts/relay/LightRelayMaintainerProxy.sol:LightRelayMaintainerProxy",
        "label": "reimbursementPool",
        "offset": 0,
        "slot": "1",
        "type": "t_contract(ReimbursementPool)5481"
      },
      {
        "astId": 5155,
        "contract": "contracts/relay/LightRelayMaintainerProxy.sol:LightRelayMaintainerProxy",
        "label": "__gap",
        "offset": 0,
        "slot": "2",
        "type": "t_array(t_uint256)49_storage"
      },
      {
        "astId": 25082,
        "contract": "contracts/relay/LightRelayMaintainerProxy.sol:LightRelayMaintainerProxy",
        "label": "lightRelay",
        "offset": 0,
        "slot": "51",
        "type": "t_contract(ILightRelay)24165"
      },
      {
        "astId": 25087,
        "contract": "contracts/relay/LightRelayMaintainerProxy.sol:LightRelayMaintainerProxy",
        "label": "isAuthorized",
        "offset": 0,
        "slot": "52",
        "type": "t_mapping(t_address,t_bool)"
      },
      {
        "astId": 25090,
        "contract": "contracts/relay/LightRelayMaintainerProxy.sol:LightRelayMaintainerProxy",
        "label": "retargetGasOffset",
        "offset": 0,
        "slot": "53",
        "type": "t_uint256"
      }
    ],
    "types": {
      "t_address": {
        "encoding": "inplace",
        "label": "address",
        "numberOfBytes": "20"
      },
      "t_array(t_uint256)49_storage": {
        "base": "t_uint256",
        "encoding": "inplace",
        "label": "uint256[49]",
        "numberOfBytes": "1568"
      },
      "t_bool": {
        "encoding": "inplace",
        "label": "bool",
        "numberOfBytes": "1"
      },
      "t_contract(ILightRelay)24165": {
        "encoding": "inplace",
        "label": "contract ILightRelay",
        "numberOfBytes": "20"
      },
      "t_contract(ReimbursementPool)5481": {
        "encoding": "inplace",
        "label": "contract ReimbursementPool",
        "numberOfBytes": "20"
      },
      "t_mapping(t_address,t_bool)": {
        "encoding": "mapping",
        "key": "t_address",
        "label": "mapping(address => bool)",
        "numberOfBytes": "32",
        "value": "t_bool"
      },
      "t_uint256": {
        "encoding": "inplace",
        "label": "uint256",
        "numberOfBytes": "32"
      }
    }
  }
}