{
  "address": "0xcE1F983c29f7A6C0C0dFA78C4D8Fe7bdfe026d4B",
  "abi": [
    {
      "inputs": [
        {
          "internalType": "contract IERC20",
          "name": "_tbtcV1",
          "type": "address"
        },
        {
          "internalType": "contract TBTC",
          "name": "_tbtcV2",
          "type": "address"
        }
      ],
      "stateMutability": "nonpayable",
      "type": "constructor"
    },
    {
      "anonymous": false,
      "inputs": [
        {
          "indexed": false,
          "internalType": "address",
          "name": "from",
          "type": "address"
        },
        {
          "indexed": false,
          "internalType": "uint256",
          "name": "amount",
          "type": "uint256"
        }
      ],
      "name": "Deposited",
      "type": "event"
    },
    {
      "anonymous": false,
      "inputs": [
        {
          "indexed": true,
          "internalType": "address",
          "name": "to",
          "type": "address"
        },
        {
          "indexed": false,
          "internalType": "uint256",
          "name": "amount",
          "type": "uint256"
        }
      ],
      "name": "Exchanged",
      "type": "event"
    },
    {
      "anonymous": false,
      "inputs": [
        {
          "indexed": true,
          "internalType": "address",
          "name": "previousOwner",
          "type": "address"
        },
        {
          "indexed": true,
          "internalType": "address",
          "name": "newOwner",
          "type": "address"
        }
      ],
      "name": "OwnershipTransferred",
      "type": "event"
    },
    {
      "anonymous": false,
      "inputs": [
        {
          "indexed": false,
          "internalType": "address",
          "name": "token",
          "type": "address"
        },
        {
          "indexed": false,
          "internalType": "address",
          "name": "to",
          "type": "address"
        },
        {
          "indexed": false,
          "internalType": "uint256",
          "name": "amount",
          "type": "uint256"
        }
      ],
      "name": "Withdrawn",
      "type": "event"
    },
    {
      "inputs": [
        {
          "internalType": "uint256",
          "name": "amount",
          "type": "uint256"
        }
      ],
      "name": "depositTbtcV2",
      "outputs": [],
      "stateMutability": "nonpayable",
      "type": "function"
    },
    {
      "inputs": [
        {
          "internalType": "uint256",
          "name": "amount",
          "type": "uint256"
        }
      ],
      "name": "exchange",
      "outputs": [],
      "stateMutability": "nonpayable",
      "type": "function"
    },
    {
      "inputs": [],
      "name": "owner",
      "outputs": [
        {
          "internalType": "address",
          "name": "",
          "type": "address"
        }
      ],
      "stateMutability": "view",
      "type": "function"
    },
    {
      "inputs": [
        {
          "internalType": "address",
          "name": "from",
          "type": "address"
        },
        {
          "internalType": "uint256",
          "name": "amount",
          "type": "uint256"
        },
        {
          "internalType": "address",
          "name": "token",
          "type": "address"
        },
        {
          "internalType": "bytes",
          "name": "",
          "type": "bytes"
        }
      ],
      "name": "receiveApproval",
      "outputs": [],
      "stateMutability": "nonpayable",
      "type": "function"
    },
    {
      "inputs": [],
      "name": "renounceOwnership",
      "outputs": [],
      "stateMutability": "nonpayable",
      "type": "function"
    },
    {
      "inputs": [],
      "name": "tbtcV1",
      "outputs": [
        {
          "internalType": "contract IERC20",
          "name": "",
          "type": "address"
        }
      ],
      "stateMutability": "view",
      "type": "function"
    },
    {
      "inputs": [],
      "name": "tbtcV2",
      "outputs": [
        {
          "internalType": "contract TBTC",
          "name": "",
          "type": "address"
        }
      ],
      "stateMutability": "view",
      "type": "function"
    },
    {
      "inputs": [
        {
          "internalType": "address",
          "name": "newOwner",
          "type": "address"
        }
      ],
      "name": "transferOwnership",
      "outputs": [],
      "stateMutability": "nonpayable",
      "type": "function"
    },
    {
      "inputs": [
        {
          "internalType": "contract IERC20",
          "name": "token",
          "type": "address"
        },
        {
          "internalType": "address",
          "name": "recipient",
          "type": "address"
        },
        {
          "internalType": "uint256",
          "name": "amount",
          "type": "uint256"
        }
      ],
      "name": "withdrawFunds",
      "outputs": [],
      "stateMutability": "nonpayable",
      "type": "function"
    }
  ],
  "transactionHash": "0x5bc28acae7868f6d7a954c5d193f19bd72ee04fade07d616c8d6ed89091e8750",
  "args": [
    "0x8dAEBADE922dF735c38C80C7eBD708Af50815fAa",
    "0x18084fbA666a33d37592fA2633fD49a74DD93a88"
  ],
  "numDeployments": 1,
  "solcInputHash": "b0025f1f7efe4824592ac0c9793776c3",
  "bytecode": "0x60c060405234801561001057600080fd5b50604051610d8d380380610d8d83398101604081905261002f916100b7565b6100383361004f565b6001600160a01b039182166080521660a0526100f1565b600080546001600160a01b038381166001600160a01b0319831681178455604051919092169283917f8be0079c531659141344cd1fd0a4f28419497f9722a3daafe3b4186f6b6457e09190a35050565b6001600160a01b03811681146100b457600080fd5b50565b600080604083850312156100ca57600080fd5b82516100d58161009f565b60208401519092506100e68161009f565b809150509250929050565b60805160a051610c4e61013f600039600081816101440152818161036e0152818161055601526106c201526000818160c20152818161021b015281816102aa015261068d0152610c4e6000f3fe608060405234801561001057600080fd5b50600436106100a35760003560e01c80638da5cb5b1161007657806395de5a411161005b57806395de5a411461013f578063d46219ee14610166578063f2fde38b1461017957600080fd5b80638da5cb5b1461011b5780638f4ffcb11461012c57600080fd5b80631c20fadd146100a85780633678252f146100bd5780635355655914610100578063715018a614610113575b600080fd5b6100bb6100b6366004610a4d565b61018c565b005b6100e47f000000000000000000000000000000000000000000000000000000000000000081565b6040516001600160a01b03909116815260200160405180910390f35b6100bb61010e366004610a8e565b6101f8565b6100bb610205565b6000546001600160a01b03166100e4565b6100bb61013a366004610aa7565b610219565b6100e47f000000000000000000000000000000000000000000000000000000000000000081565b6100bb610174366004610a8e565b610328565b6100bb610187366004610b46565b610396565b610194610423565b604080516001600160a01b038086168252841660208201529081018290527fd1c19fbcd4551a5edfb66d43d2e337c04837afda3482b42bdf569a8fccdae5fb9060600160405180910390a16101f36001600160a01b038416838361047d565b505050565b6102023382610526565b50565b61020d610423565b61021760006106ed565b565b7f00000000000000000000000000000000000000000000000000000000000000006001600160a01b0316836001600160a01b03161461029f5760405162461bcd60e51b815260206004820152601460248201527f546f6b656e206973206e6f74207442544320763100000000000000000000000060448201526064015b60405180910390fd5b336001600160a01b037f000000000000000000000000000000000000000000000000000000000000000016146103175760405162461bcd60e51b815260206004820152601b60248201527f4f6e6c7920744254432076312063616c6c657220616c6c6f77656400000000006044820152606401610296565b6103218585610526565b5050505050565b60408051338152602081018390527f2da466a7b24304f47e87fa2e1e5a81b9831ce54fec19055ce277ca2f39ba42c4910160405180910390a16102026001600160a01b037f000000000000000000000000000000000000000000000000000000000000000016333084610755565b61039e610423565b6001600160a01b03811661041a5760405162461bcd60e51b815260206004820152602660248201527f4f776e61626c653a206e6577206f776e657220697320746865207a65726f206160448201527f64647265737300000000000000000000000000000000000000000000000000006064820152608401610296565b610202816106ed565b6000546001600160a01b031633146102175760405162461bcd60e51b815260206004820181905260248201527f4f776e61626c653a2063616c6c6572206973206e6f7420746865206f776e65726044820152606401610296565b6040516001600160a01b0383166024820152604481018290526101f39084907fa9059cbb00000000000000000000000000000000000000000000000000000000906064015b60408051601f198184030181529190526020810180517bffffffffffffffffffffffffffffffffffffffffffffffffffffffff167fffffffff00000000000000000000000000000000000000000000000000000000909316929092179091526107ac565b6040517f70a0823100000000000000000000000000000000000000000000000000000000815230600482015281907f00000000000000000000000000000000000000000000000000000000000000006001600160a01b0316906370a0823190602401602060405180830381865afa1580156105a5573d6000803e3d6000fd5b505050506040513d601f19601f820116820180604052508101906105c99190610b6a565b101561063d5760405162461bcd60e51b815260206004820152603360248201527f4e6f7420656e6f756768207442544320763220617661696c61626c6520696e2060448201527f7468652056656e64696e67204d616368696e65000000000000000000000000006064820152608401610296565b816001600160a01b03167f6ea412b125ed242bc34c304877264761547306c2429c03d7fd1b477aa61a3f5d8260405161067891815260200190565b60405180910390a26106b56001600160a01b037f000000000000000000000000000000000000000000000000000000000000000016833084610755565b6106e96001600160a01b037f000000000000000000000000000000000000000000000000000000000000000016838361047d565b5050565b600080546001600160a01b038381167fffffffffffffffffffffffff0000000000000000000000000000000000000000831681178455604051919092169283917f8be0079c531659141344cd1fd0a4f28419497f9722a3daafe3b4186f6b6457e09190a35050565b6040516001600160a01b03808516602483015283166044820152606481018290526107a69085907f23b872dd00000000000000000000000000000000000000000000000000000000906084016104c2565b50505050565b6000610801826040518060400160405280602081526020017f5361666545524332303a206c6f772d6c6576656c2063616c6c206661696c6564815250856001600160a01b03166108919092919063ffffffff16565b8051909150156101f3578080602001905181019061081f9190610b83565b6101f35760405162461bcd60e51b815260206004820152602a60248201527f5361666545524332303a204552433230206f7065726174696f6e20646964206e60448201527f6f742073756363656564000000000000000000000000000000000000000000006064820152608401610296565b60606108a084846000856108a8565b949350505050565b6060824710156109205760405162461bcd60e51b815260206004820152602660248201527f416464726573733a20696e73756666696369656e742062616c616e636520666f60448201527f722063616c6c00000000000000000000000000000000000000000000000000006064820152608401610296565b600080866001600160a01b0316858760405161093c9190610bc9565b60006040518083038185875af1925050503d8060008114610979576040519150601f19603f3d011682016040523d82523d6000602084013e61097e565b606091505b509150915061098f8783838761099a565b979650505050505050565b60608315610a09578251600003610a02576001600160a01b0385163b610a025760405162461bcd60e51b815260206004820152601d60248201527f416464726573733a2063616c6c20746f206e6f6e2d636f6e74726163740000006044820152606401610296565b50816108a0565b6108a08383815115610a1e5781518083602001fd5b8060405162461bcd60e51b81526004016102969190610be5565b6001600160a01b038116811461020257600080fd5b600080600060608486031215610a6257600080fd5b8335610a6d81610a38565b92506020840135610a7d81610a38565b929592945050506040919091013590565b600060208284031215610aa057600080fd5b5035919050565b600080600080600060808688031215610abf57600080fd5b8535610aca81610a38565b9450602086013593506040860135610ae181610a38565b9250606086013567ffffffffffffffff80821115610afe57600080fd5b818801915088601f830112610b1257600080fd5b813581811115610b2157600080fd5b896020828501011115610b3357600080fd5b9699959850939650602001949392505050565b600060208284031215610b5857600080fd5b8135610b6381610a38565b9392505050565b600060208284031215610b7c57600080fd5b5051919050565b600060208284031215610b9557600080fd5b81518015158114610b6357600080fd5b60005b83811015610bc0578181015183820152602001610ba8565b50506000910152565b60008251610bdb818460208701610ba5565b9190910192915050565b6020815260008251806020840152610c04816040850160208701610ba5565b601f01601f1916919091016040019291505056fea264697066735822122065f1458fb9a48d2637951d85d5856300fd425b137d155180d7e136e86f0dde4164736f6c63430008110033",
  "devdoc": {
    "kind": "dev",
    "methods": {
      "depositTbtcV2(uint256)": {
        "details": "This function is for the redeemer and tBTC v1 operators. This is      NOT a function for tBTC v1 token holders.",
        "params": {
          "amount": "The amount of tBTC v2 to deposit into the contract."
        }
      },
      "exchange(uint256)": {
        "params": {
          "amount": "The amount of tBTC v1 to exchange for tBTC v2."
        }
      },
      "owner()": {
        "details": "Returns the address of the current owner."
      },
      "receiveApproval(address,uint256,address,bytes)": {
        "details": "This function is a shortcut for `approve` + `exchange`. Only tBTC      v1 token caller is allowed and only tBTC v1 is allowed as a token      to transfer.",
        "params": {
          "amount": "The amount of tBTC v1 to exchange for tBTC v2.",
          "from": "tBTC v1 token holder exchanging tBTC v1 to tBTC v2.",
          "token": "tBTC v1 token address."
        }
      },
      "renounceOwnership()": {
        "details": "Leaves the contract without owner. It will not be possible to call `onlyOwner` functions anymore. Can only be called by the current owner. NOTE: Renouncing ownership will leave the contract without an owner, thereby removing any functionality that is only available to the owner."
      },
      "transferOwnership(address)": {
        "details": "Transfers ownership of the contract to a new account (`newOwner`). Can only be called by the current owner."
      },
      "withdrawFunds(address,address,uint256)": {
        "details": "This function is for the redeemer. This is NOT a function for      tBTC v1 token holders.",
        "params": {
          "amount": "The amount to withdraw.",
          "recipient": "The address which should receive withdrawn tokens.",
          "token": "The address of a token to withdraw."
        }
      }
    },
    "title": "VendingMachineV2",
    "version": 1
  },
  "userdoc": {
    "kind": "user",
    "methods": {
      "depositTbtcV2(uint256)": {
        "notice": "Allows to deposit tBTC v2 tokens to the contract.         VendingMachineV2 can not mint tBTC v2 tokens so tBTC v2 needs         to be deposited into the contract so that tBTC v1 to tBTC v2         exchange can happen.         The caller needs to have at least `amount` of tBTC v2 balance         approved for transfer to the `VendingMachineV2` before calling         this function."
      },
      "exchange(uint256)": {
        "notice": "Exchange tBTC v1 for tBTC v2 in a 1:1 ratio.         The caller needs to have at least `amount` of tBTC v1 balance         approved for transfer to the `VendingMachineV2` before calling         this function."
      },
      "receiveApproval(address,uint256,address,bytes)": {
        "notice": "Exchange tBTC v1 for tBTC v2 in a 1:1 ratio.         The caller needs to have at least `amount` of tBTC v1 balance         approved for transfer to the `VendingMachineV2` before calling         this function."
      },
      "withdrawFunds(address,address,uint256)": {
        "notice": "Allows the contract owner to withdraw tokens. This function is         used in two cases: 1) when the redeemer wants to redeem tBTC v1         tokens to perform tBTC v2 redemptions; 2) when the deadline for         tBTC v1 -> tBTC v2 exchange passed and the redeemer wants their         tBTC v2 back."
      }
    },
    "notice": "VendingMachineV2 is used to exchange tBTC v1 to tBTC v2 in a 1:1         ratio during the process of tBTC v1 bridge sunsetting. The redeemer         selected by the DAO based on the \"TIP-027b tBTC v1: The Sunsetting\"         proposal will deposit tBTC v2 tokens into VendingMachineV2 so that         outstanding tBTC v1 token owners can  upgrade to tBTC v2 tokens.         The redeemer will withdraw the tBTC v1 tokens deposited into the         contract to perform tBTC v1 redemptions.         The redeemer may decide to withdraw their deposited tBTC v2 at any         moment in time. The amount withdrawable is lower than the amount         deposited in case tBTC v1 was exchanged for tBTC v2.         This contract is owned by the redeemer.",
    "version": 1
  },
  "storageLayout": {
    "storage": [
      {
        "astId": 17198,
        "contract": "contracts/bridge/VendingMachineV2.sol:VendingMachineV2",
        "label": "_owner",
        "offset": 0,
        "slot": "0",
        "type": "t_address"
      }
    ],
    "types": {
      "t_address": {
        "encoding": "inplace",
        "label": "address",
        "numberOfBytes": "20"
      }
    }
  }
}